:020000040800F2
:1000000000500020790E0008890D0008910D0008AD
:10001000990D0008A10D0008A90D000800000000BE
:10002000000000000000000000000000E1390008AE
:10003000B10D000800000000C13B0008BD0D000824
:10004000C10E0008C10E0008C10E0008C10E000854
:10005000C10E0008C10E0008C10E0008C10E000844
:10006000C10E0008C10E0008C10E0008C10E000834
:10007000C10E0008C10E0008C10E0008C10E000824
:10008000C10E0008C10E0008C10E0008C10E000814
:10009000C10E0008C10E0008C10E0008C10E000804
:1000A000C10E0008C10E0008C10E0008C10E0008F4
:1000B000C10E0008C10E0008C10E0008C10E0008E4
:1000C000C10E0008C10E0008C10E0008C10E0008D4
:1000D000C10E0008D90D0008ED0D0008C10E000882
:1000E000C10E0008C10E0008C10E0008000000008B
:1000F0000000000000000000000000000000000000
:0C01000000000000000000005FF808F1A3
:1001100010B5054C237833B9044B13B10448AFF341
:1001200000800123237010BD60000020000000004B
:10013000F049000808B5034B1BB103490348AFF36E
:10014000008008BD0000000064000020F0490008A5
:10015000034613F8012B002AFBD1181A0138704707
:1001600080F0004002E000BF81F0004142001FBF6C
:100170005FEA410392EA030F7FEA226C7FEA236C75
:100180006AD04FEA1262D2EB1363C1BFD21841406A
:1001900048404140B8BF5B42192B88BF704710F000
:1001A000004F40F4000020F07F4018BF404211F0A3
:1001B000004F41F4000121F07F4118BF494292EA0B
:1001C000030F3FD0A2F1010241FA03FC10EB0C0037
:1001D000C3F1200301FA03F100F0004302D54942C4
:1001E00060EB4000B0F5000F13D3B0F1807F06D371
:1001F00040084FEA310102F10102FE2A51D2B1F169
:10020000004F40EBC25008BF20F0010040EA03005D
:100210007047490040EB0000013A28BFB0F5000FDD
:10022000EDD2B0FA80FCACF1080CB2EB0C0200FA93
:100230000CF0AABF00EBC25052421843BCBFD040E2
:100240001843704792F0000F81F4000106BF80F45C
:1002500000000132013BB5E74FEA41037FEA226C1F
:1002600018BF7FEA236C21D092EA030F04D092F0EA
:10027000000F08BF0846704790EA010F1CBF00201E
:10028000704712F07F4F04D1400028BF40F000407B
:10029000704712F100723CBF00F50000704700F09B
:1002A000004343F0FE4040F4000070477FEA2262C2
:1002B00016BF08467FEA23630146420206BF5FEA93
:1002C000412390EA010F40F4800070474FF0000393
:1002D00004E000BF10F0004348BF40425FEA000C5A
:1002E00008BF704743F0964301464FF000001CE002
:1002F00050EA010208BF70474FF000030AE000BF58
:1003000050EA010208BF704711F0004302D5404295
:1003100061EB41015FEA010C02BF84460146002007
:1003200043F0B64308BFA3F18053A3F50003BCFA22
:100330008CF2083AA3EBC25310DB01FA02FC6344CF
:1003400000FA02FCC2F12002BCF1004F20FA02F2D6
:1003500043EB020008BF20F00100704702F12002C9
:1003600001FA02FCC2F1200250EA4C0021FA02F22A
:1003700043EB020008BF20EADC7070474FF0FF0C2F
:100380001CEAD0521EBF1CEAD15392EA0C0F93EA2A
:100390000C0F6FD01A4480EA010C400218BF5FEACC
:1003A00041211ED04FF0006343EA501043EA51113F
:1003B000A0FB01310CF00040B1F5000F3EBF490039
:1003C00041EAD3715B0040EA010062F17F02FD2A3D
:1003D0001DD8B3F1004F40EBC25008BF20F0010020
:1003E000704790F0000F0CF0004C08BF49024CEA37
:1003F000502040EA51207F3AC2BFD2F1FF0340EAC9
:10040000C250704740F400004FF00003013A5DDC39
:1004100012F1190FDCBF00F000407047C2F100027A
:10042000410021FA02F1C2F1200200FA02FC5FEA67
:10043000310040F1000053EA4C0308BF20EADC70B1
:10044000704792F0000F00F0004C02BF400010F423
:10045000000F013AF9D040EA0C0093F0000F01F0D0
:10046000004C02BF490011F4000F013BF9D041EAF2
:100470000C018FE70CEAD15392EA0C0F18BF93EAF4
:100480000C0F0AD030F0004C18BF31F0004CD8D11E
:1004900080EA010000F00040704790F0000F17BFA5
:1004A00090F0004F084691F0000F91F0004F14D0EB
:1004B00092EA0C0F01D142020FD193EA0C0F03D143
:1004C0004B0218BF084608D180EA010000F0004046
:1004D00040F0FE4040F40000704740F0FE4040F421
:1004E000400070474FF0FF0C1CEAD0521EBF1CEAC0
:1004F000D15392EA0C0F93EA0C0F69D0A2EB0302DE
:1005000080EA010C49024FEA402037D04FF0805377
:1005100043EA111143EA10130CF000408B4238BF3C
:100520005B0042F17D024FF4000C8B4224BF5B1A4A
:1005300040EA0C00B3EB510F24BFA3EB510340EA98
:100540005C00B3EB910F24BFA3EB910340EA9C0046
:10055000B3EBD10F24BFA3EBD10340EADC001B01B6
:1005600018BF5FEA1C1CE0D1FD2A3FF650AF8B425A
:1005700040EBC25008BF20F0010070470CF0004C67
:100580004CEA50207F32C2BFD2F1FF0340EAC25092
:10059000704740F400004FF00003013A37E792F053
:1005A000000F00F0004C02BF400010F4000F013AB1
:1005B000F9D040EA0C0093F0000F01F0004C02BFAC
:1005C000490011F4000F013BF9D041EA0C0195E715
:1005D0000CEAD15392EA0C0F08D142027FF47DAFAE
:1005E00093EA0C0F7FF470AF084676E793EA0C0F9E
:1005F00004D14B023FF44CAF08466EE730F0004C9C
:1006000018BF31F0004CCAD130F000427FF45CAF2B
:1006100031F000437FF43CAF5FE700BF80B58AB0A4
:1006200000AFF8607A601A460B46FB721346BB7245
:1006300007F1140300221A605A609A60DA601A7493
:10064000AA233B7555237B759023BB75EB23FB7564
:1006500001237B76FB7ABB7607F11403073309226B
:100660000021184603F036FD002387F8243007F1F7
:100670001401C8231122F86801F080FC642000F006
:1006800083FCBB7A9AB24FF4FA737968F86801F088
:1006900000FD0346002B0CBF01230023DBB21846EC
:1006A0002837BD4680BD000080B586B000AF7860B9
:1006B00039603B681B78AA2B04D13B6801331B7857
:1006C000552B01D00023D7E03B689B79FB73FB7B64
:1006D000062B11DC032BC0F2CC80033B032B00F272
:1006E000C88001A252F823F0010700085107000852
:1006F000A90700081D080008E12B00F09F80B8E062
:100700003B6808331B781BB21B021AB23B680933E3
:100710001B781BB213431BB29AB27B681A803B68EA
:100720000A331B781BB21B021AB23B680B331B78CF
:100730001BB213431BB29BB2A3F5EA43303B9BB2FF
:100740001AB27B685A803B681A7B7B681A7192E008
:100750003B68DA797B685A7100237B611DE07B6915
:1007600004335B001A463B6813441B781BB21B0220
:100770001AB27B695B00093319463B680B441B784E
:100780001BB213431BB299B27A687B695B001344B6
:100790000A46DA807B6901337B617B685B791A46A4
:1007A0007B699342DBDB66E03B68DA797B6883F840
:1007B000262000233B6129E03B6904335B001A4695
:1007C0003B6813441B781BB21B021AB23B695B00E7
:1007D000093319463B680B441B781BB213431BB209
:1007E000BB81BB89A3F6AB231846FFF773FD034615
:1007F00023491846FFF776FE034619467B683A6997
:100800000A3243F822103B6901333B617B6893F85D
:1008100026301A463B699342CEDB2CE03B68083316
:100820001B781BB21B021AB23B6809331B781BB240
:1008300013431BB29AB27B681A871CE03B680833EB
:100840001B7803F00103002B14BF01230023DAB24D
:100850007B6883F83A203B6808331B7803F0020377
:10086000002B14BF01230023DAB27B6883F83B20FE
:1008700001E0002300E0012318461837BD4680BD83
:100880000000204180B485B000AFF860B9607A60A4
:10089000FB68064A1A60BB68054A1A607B688022BA
:1008A0001A6000BF1437BD4680BC70477C00002032
:1008B000D0000020B0B596B000AF00F003FB00F010
:1008C0004DF800F0E5F800F08FF800F0B7F81D4B98
:1008D00007F13C041D460FCD0FC495E8070084E8DE
:1008E000070007F13C030021184602F0C1F9034656
:1008F000154A1360154B07F120041D460FCD0FC498
:1009000095E8070084E8070007F120030021184656
:1009100002F0AEF903460E4A13600E4B3C1D1D4615
:100920000FCD0FC495E8070084E807003B1D0021A8
:10093000184602F09DF90346074A136002F091F948
:1009400000BFFDE7144A000860030020384A000891
:1009500064030020604A00086803002080B590B05E
:1009600000AF07F1180328220021184603F0B2FB5C
:100970003B1D00221A605A609A60DA601A610123F6
:10098000BB614FF48033FB6100233B620123BB62F8
:1009900002237B634FF48033BB634FF4E013FB63AC
:1009A00007F11803184600F089FE0346002B01D01A
:1009B00000F018F90F237B600223BB600023FB606B
:1009C0004FF480633B6100237B613B1D022118468D
:1009D00001F0F6F80346002B01D000F003F900BF48
:1009E0004037BD4680BD000080B500AF114B124AB4
:1009F0001A60104B4FF416525A600E4B00229A6048
:100A00000C4B0022DA600B4B00221A61094B0C22BE
:100A10005A61084B00229A61064B0022DA610548B0
:100A200001F05CFA0346002B01D000F0DBF800BFB8
:100A300080BD00BFD00200200038014080B500AF6B
:100A4000114B124A1A60104B4FF4E1325A600E4BB0
:100A500000229A600C4B0022DA600B4B00221A61D4
:100A6000094B0C225A61084B00229A61064B002266
:100A7000DA61054801F032FA0346002B01D000F09C
:100A8000B1F800BF80BD00BF180300200044004043
:100A900080B588B000AF07F1100300221A605A60D9
:100AA0009A60DA601E4B9B691D4A43F01003936104
:100AB0001B4B9B6903F01003FB60FB68184B9B69A1
:100AC000174A43F020039361154B9B6903F0200301
:100AD000BB60BB68124B9B69114A43F004039361EE
:100AE0000F4B9B6903F004037B607B6800224FF48B
:100AF00000510C4800F0B0FD4FF400533B6101235E
:100B00007B610023BB610223FB6107F110031946DF
:100B1000044800F01DFC00BF2037BD4680BD00BF6B
:100B2000001002400010014080B582B000AF786034
:100B30004FF40051034800F0A7FD642002F0E4F8F0
:100B400000BFF5E70010014080B58AB000AF7860C3
:100B500007F10802192303210848FFF75FFD034648
:100B6000002B05D007F1080319460548FFF79CFD47
:100B70004FF47A7002F0C8F8EAE700BFD002002014
:100B80006C03002080B594B002AF7860124B1B88D4
:100B90001946114BB3F902301A460F4B1B7907F176
:100BA0000800019300920B460C4A402103F05CFAC6
:100BB00007F108031846FFF7CBFA03469AB207F18C
:100BC00008016423064801F0D9F94FF47A7002F065
:100BD0009BF800BFDAE700BF6C0300207C4A0008E6
:100BE0001803002080B400AF72B600BF00BFFDE75D
:100BF00080B584B000AF184B9B69174A43F00103DE
:100C00009361154B9B6903F00103BB60BB68124BFA
:100C1000DB69114A43F08053D3610F4BDB6903F06A
:100C200080537B607B6800220F216FF0010000F091
:100C3000A6FA0A4B5B68FB60FB6823F0E063FB608D
:100C4000FB6843F00073FB60044AFB68536000BF1D
:100C50001037BD4680BD00BF0010024000000140BB
:100C600080B58AB000AF786007F1180300221A60DF
:100C70005A609A60DA607B681B683F4A93423AD1B7
:100C80003E4B9B693D4A43F4804393613B4B9B69D8
:100C900003F480437B617B69384B9B69374A43F09F
:100CA00004039361354B9B6903F004033B613B698B
:100CB0004FF40073BB610223FB6103237B6207F1E6
:100CC000180319462E4800F043FB4FF48063BB61C4
:100CD0000023FB6100233B6207F1180319462848F3
:100CE00000F036FB00220521252000F048FA2520DF
:100CF00000F061FA3CE07B681B68224A934237D1DE
:100D00001E4BDB691D4A43F40033D3611B4BDB6987
:100D100003F40033FB60FB68184B9B69174A43F0F0
:100D200004039361154B9B6903F00403BB60BB682C
:100D30000423BB610223FB6103237B6207F11803D9
:100D400019460F4800F004FB0823BB610023FB6138
:100D500000233B6207F118031946094800F0F8FA2E
:100D600000220521262000F00AFA262000F023FAAE
:100D700000BF2837BD4680BD00380140001002404A
:100D8000000801400044004080B400AF00BFFDE710
:100D900080B400AF00BFFDE780B400AF00BFFDE747
:100DA00080B400AF00BFFDE780B400AF00BFFDE737
:100DB00080B400AF00BFBD4680BC704780B500AFB7
:100DC00000F0C6F802F02AFD0346012B01D002F024
:100DD0001BFF00BF80BD000080B500AF024801F0DE
:100DE000EFF900BF80BD00BFD002002080B500AF8A
:100DF000024801F0E5F900BF80BD00BF18030020E4
:100E000080B586B000AF7860144A154BD31A7B6169
:100E10007B693B61134B1B68002B02D1114B124ABB
:100E20001A60104B1A687B6813443A699A4207D2D9
:100E300003F058F903460C221A604FF0FF3309E023
:100E4000084B1B68FB60074B1A687B681344054A14
:100E50001360FB6818461837BD4680BD005000205F
:100E600000040000A80300205012002080B400AF4E
:100E700000BFBD4680BC7047FFF7F8FF0B480C4928
:100E80000C4A002302E0D458C4500433C4188C42E6
:100E9000F9D3094A094C002301E013600432A2424D
:100EA000FBD303F025F9FFF705FD70470000002094
:100EB000600000201C4B0008600000204C12002045
:100EC000FEE7000080B500AF084B1B68074A43F0FF
:100ED00010031360032000F047F90F2000F008F81A
:100EE000FFF786FE0023184680BD00BF00200240A9
:100EF00080B582B000AF7860124B1A68124B1B7835
:100F000019464FF47A73B3FBF1F3B2FBF3F31846CF
:100F100000F05FF90346002B01D001230EE07B684F
:100F20000F2B0AD8002279684FF0FF3000F027F924
:100F3000064A7B681360002300E001231846083747
:100F4000BD4680BD000000200800002004000020F5
:100F500080B400AF054B1B781A46054B1B68134441
:100F6000034A136000BFBD4680BC704708000020E4
:100F7000AC03002080B400AF024B1B681846BD468E
:100F800080BC7047AC03002080B584B000AF7860AF
:100F9000FFF7F0FFB8607B68FB60FB68B3F1FF3FD1
:100FA00005D00A4B1B781A46FB681344FB6000BF50
:100FB000FFF7E0FF0246BB68D31AFA689A42F7D8F7
:100FC00000BF00BF1037BD4680BD00BF0800002035
:100FD00080B485B000AF78607B6803F00703FB60E6
:100FE0000C4BDB68BB60BA684FF6FF031340BB6075
:100FF000FB681A02BB68134343F0BF6343F400333A
:10100000BB60044ABB68D36000BF1437BD4680BCD8
:10101000704700BF00ED00E080B400AF044BDB6818
:101020001B0A03F007031846BD4680BC704700BF8B
:1010300000ED00E080B483B000AF0346FB7197F988
:101040000730002B0BDBFB7903F01F02064997F9F1
:1010500007305B09012000FA02F241F8232000BFAB
:101060000C37BD4680BC704700E100E080B483B01F
:1010700000AF03463960FB7197F90730002B0ADB9C
:101080003B68DAB20C4997F907301201D2B20B442F
:1010900083F800230AE03B68DAB20849FB7903F0E1
:1010A0000F03043B1201D2B20B441A7600BF0C3777
:1010B000BD4680BC704700BF00E100E000ED00E0ED
:1010C00080B489B000AFF860B9607A60FB6803F063
:1010D0000703FB61FB69C3F10703042B28BF04234B
:1010E000BB61FB690433062B02D9FB69033B00E0BB
:1010F00000237B614FF0FF32BB6902FA03F3DA434E
:10110000BB681A407B699A404FF0FF317B6901FA56
:1011100003F3D9437B680B40134318462437BD467D
:1011200080BC704780B582B000AF78607B68013BBF
:10113000B3F1807F01D301230FE00A4A7B68013BB2
:1011400053600F214FF0FF30FFF790FF054B002257
:101150009A60044B07221A60002318460837BD46E0
:1011600080BD00BF10E000E080B582B000AF7860C5
:101170007868FFF72DFF00BF0837BD4680BD80B5FA
:1011800086B000AF0346B9607A60FB7300237B61D1
:10119000FFF742FF78617A68B9687869FFF790FFD6
:1011A000024697F90F3011461846FFF75FFF00BF60
:1011B0001837BD4680BD80B582B000AF0346FB71D5
:1011C00097F907301846FFF735FF00BF0837BD46CF
:1011D00080BD80B582B000AF78607868FFF7A2FF6D
:1011E000034618460837BD4680BD80B485B000AFC1
:1011F00078600023FB737B6893F82130DBB2022B0D
:1012000008D07B6804229A637B68002283F8202040
:10121000012320E07B681B681A687B681B6822F04A
:101220000E021A607B681B681A687B681B6822F0D4
:1012300001021A607B681A6C7B68DB6B012101FA82
:1012400002F25A607B68012283F821207B68002229
:1012500083F82020FB7B18461437BD4680BC7047BE
:1012600080B584B000AF78600023FB737B6893F88F
:101270002130DBB2022B05D07B6804229A63012364
:10128000FB7351E07B681B681A687B681B6822F05F
:101290000E021A607B681B681A687B681B6822F064
:1012A00001021A607B681B68224A934229D07B683E
:1012B0001B68214A934222D07B681B681F4A9342D5
:1012C0001AD07B681B681E4A934212D07B681B6849
:1012D0001C4A93420AD07B681B681B4A934202D186
:1012E0004FF480130EE04FF080730BE04FF4803327
:1012F00008E04FF4805305E04FF4807302E01023C0
:1013000000E00123114A53607B68012283F8212009
:101310007B68002283F820207B685B6B002B03D066
:101320007B685B6B78689847FB7B18461037BD4637
:1013300080BD00BF080002401C0002403000024097
:1013400044000240580002406C000240000002408D
:1013500080B48BB000AF7860396000237B620023DB
:101360003B6269E101227B6A02FA03F3FB613B689D
:101370001B68FA691340BB61BA69FB699A4240F085
:1013800058813B685B689A4A93425ED0984A934280
:1013900075D8984A934258D0964A93426FD8964A45
:1013A000934252D0944A934269D8944A93424CD083
:1013B000924A934263D8924A934246D0904A9342CB
:1013C0005DD8122B2AD8122B59D801A252F823F03B
:1013D0004B1400082514000837140008791400087D
:1013E0007F1400087F1400087F1400087F14000891
:1013F0007F1400087F1400087F1400087F14000881
:101400007F1400087F1400087F1400087F14000870
:101410007F1400082D14000841140008794A9342F3
:1014200013D02CE03B68DB683B6229E03B68DB685B
:1014300004333B6224E03B68DB6808333B621FE017
:101440003B68DB680C333B621AE03B689B68002B0F
:1014500002D104233B6213E03B689B68012B05D15A
:1014600008233B627B68FA691A6109E008233B6242
:101470007B68FA695A6103E000233B6200E000BF29
:10148000BB69FF2B01D87B6801E07B6804337B617B
:10149000BB69FF2B02D87B6A9B0002E07B6A083B9A
:1014A0009B003B617B691A680F213B6901FA03F3DA
:1014B000DB431A40396A3B6901FA03F31A437B693B
:1014C0001A603B685B6803F08053002B00F0B1802A
:1014D0004D4B9B694C4A43F0010393614A4B9B6916
:1014E00003F00103BB60BB68484A7B6A9B08023378
:1014F00052F82330FB607B6A03F003039B000F224A
:1015000002FA03F3DB43FA681340FB607B68404A4E
:10151000934213D07B683F4A93420DD07B683E4A8A
:10152000934207D07B683D4A934201D1032306E0F2
:10153000042304E0022302E0012300E000237A6A8E
:1015400002F0030292009340FA681343FB602F49B4
:101550007B6A9B080233FA6841F823203B685B688A
:1015600003F48013002B06D02D4B9A682C49BB69DD
:1015700013438B6006E02A4B9A68BB69DB4328491A
:1015800013408B603B685B6803F40013002B06D0AC
:10159000234BDA682249BB691343CB6006E0204B3A
:1015A000DA68BB69DB431E491340CB603B685B686C
:1015B00003F40033002B06D0194B5A681849BB6955
:1015C00013434B6006E0164B5A68BB69DB43144972
:1015D00013404B603B685B6803F48033002B21D0E1
:1015E0000F4B1A680E49BB6913430B6021E000BF23
:1015F0000000321000003110000022100000211005
:101600000000121000001110001002400000014004
:1016100000080140000C014000100140001401408E
:10162000000401400B4B1A68BB69DB4309491340B6
:101630000B607B6A01337B623B681A687B6A22FA23
:1016400003F3002B7FF48EAE00BF00BF2C37BD46E6
:1016500080BC70470004014080B483B000AF786064
:101660000B467B8013467B707B78002B03D07A88F7
:101670007B681A6103E07B881A047B681A6100BFEB
:101680000C37BD4680BC704780B485B000AF786031
:101690000B467B807B68DB68FB607A88FB681340C5
:1016A0001A04FB68D9437B880B401A437B681A6194
:1016B00000BF1437BD4680BC7047000080B586B0BF
:1016C00000AF78607B68002B01D1012372E27B6858
:1016D0001B6803F00103002B00F08780924B5B68CE
:1016E00003F00C03042B0CD08F4B5B6803F00C034E
:1016F000082B12D18C4B5B6803F48033B3F5803F29
:101700000BD1894B1B6803F40033002B6CD07B6832
:101710005B68002B68D101234CE27B685B68B3F502
:10172000803F06D1804B1B687F4A43F480331360AF
:101730002EE07B685B68002B0CD17B4B1B687A4AE0
:1017400023F480331360784B1B68774A23F480239B
:1017500013601DE07B685B68B3F5A02F0CD1724B62
:101760001B68714A43F4802313606F4B1B686E4AF9
:1017700043F4803313600BE06B4B1B686A4A23F41D
:1017800080331360684B1B68674A23F4802313601F
:101790007B685B68002B13D0FFF7ECFB386108E037
:1017A000FFF7E8FB02463B69D31A642B01D90323F8
:1017B00000E25D4B1B6803F40033002BF0D014E013
:1017C000FFF7D8FB386108E0FFF7D4FB02463B691E
:1017D000D31A642B01D90323ECE1534B1B6803F4A8
:1017E0000033002BF0D100E000BF7B681B6803F0E2
:1017F0000203002B63D04C4B5B6803F00C03002BFF
:101800000BD0494B5B6803F00C03082B1CD1464BF3
:101810005B6803F48033002B16D1434B1B6803F045
:101820000203002B05D07B681B69012B01D001232B
:10183000C0E13D4B1B6823F0F8027B685B69DB006D
:10184000394913430B603AE07B681B69002B20D0B9
:10185000364B01221A60FFF78DFB386108E0FFF775
:1018600089FB02463B69D31A022B01D90323A1E16C
:101870002D4B1B6803F00203002BF0D02A4B1B6892
:1018800023F0F8027B685B69DB00274913430B6098
:1018900015E0264B00221A60FFF76CFB386108E068
:1018A000FFF768FB02463B69D31A022B01D90323D9
:1018B00080E11D4B1B6803F00203002BF0D17B6815
:1018C0001B6803F00803002B3AD07B689B69002B50
:1018D00019D0174B01221A60FFF74CFB386108E062
:1018E000FFF748FB02463B69D31A022B01D90323B9
:1018F00060E10D4B5B6A03F00203002BF0D0012086
:1019000000F0CEFA1CE00A4B00221A60FFF732FB0F
:1019100038610FE0FFF72EFB02463B69D31A022B1A
:1019200008D9032346E100BF0010024000004242F4
:1019300080044242924B5B6A03F00203002BE9D120
:101940007B681B6803F00403002B00F0A6800023D3
:10195000FB758B4BDB6903F08053002B0DD1884B5B
:10196000DB69874A43F08053D361854BDB6903F021
:101970008053BB60BB680123FB75824B1B6803F47B
:101980008073002B18D17F4B1B687E4A43F4807311
:101990001360FFF7EFFA386108E0FFF7EBFA024651
:1019A0003B69D31A642B01D9032303E1754B1B68F0
:1019B00003F48073002BF0D07B68DB68012B06D129
:1019C0006F4B1B6A6E4A43F0010313622DE07B6884
:1019D000DB68002B0CD16A4B1B6A694A23F00103B8
:1019E0001362674B1B6A664A23F0040313621CE010
:1019F0007B68DB68052B0CD1614B1B6A604A43F0A6
:101A0000040313625E4B1B6A5D4A43F001031362D9
:101A10000BE05B4B1B6A5A4A23F001031362584BDD
:101A20001B6A574A23F0040313627B68DB68002BB0
:101A300015D0FFF79FFA38610AE0FFF79BFA0246DC
:101A40003B69D31A41F28832934201D90323B1E0B2
:101A50004B4B1B6A03F00203002BEED014E0FFF7A0
:101A600089FA38610AE0FFF785FA02463B69D31A22
:101A700041F28832934201D903239BE0404B1B6A19
:101A800003F00203002BEED1FB7D012B05D13C4B73
:101A9000DB693B4A23F08053D3617B68DB69002B11
:101AA00000F08780364B5B6803F00C03082B61D095
:101AB0007B68DB69022B46D1334B00221A60FFF7AB
:101AC00059FA386108E0FFF755FA02463B69D31A24
:101AD000022B01D903236DE0294B1B6803F000732F
:101AE000002BF0D17B681B6AB3F5803F08D1244BF3
:101AF0005B6823F400327B689B68214913434B6089
:101B00001F4B5B6823F474127B68196A7B685B6AFD
:101B10000B431B4913434B601B4B01221A60FFF719
:101B200029FA386108E0FFF725FA02463B69D31A23
:101B3000022B01D903233DE0114B1B6803F0007316
:101B4000002BF0D035E0104B00221A60FFF712FA9C
:101B5000386108E0FFF70EFA02463B69D31A022B00
:101B600001D9032326E0064B1B6803F00073002B0A
:101B7000F0D11EE07B68DB69012B07D1012319E05E
:101B80000010024000700040600042420B4B5B6856
:101B9000FB60FB6803F480327B681B6A9A4206D1C3
:101BA000FB6803F470127B685B6A9A4201D00123E0
:101BB00000E0002318461837BD4680BD00100240E3
:101BC00080B584B000AF786039607B68002B01D1AC
:101BD0000123D0E06A4B1B6803F007033A689A427E
:101BE00010D9674B1B6823F0070265493B68134314
:101BF0000B60634B1B6803F007033A689A4201D0FD
:101C00000123B8E07B681B6803F00203002B20D09F
:101C10007B681B6803F00403002B05D0594B5B68FD
:101C2000584A43F4E06353607B681B6803F0080381
:101C3000002B05D0534B5B68524A43F4605353600A
:101C4000504B5B6823F0F0027B689B684D4913435F
:101C50004B607B681B6803F00103002B40D07B685E
:101C60005B68012B07D1474B1B6803F40033002B43
:101C700015D101237FE07B685B68022B07D1414BC4
:101C80001B6803F00073002B09D1012373E03D4B67
:101C90001B6803F00203002B01D101236BE0394BD9
:101CA0005B6823F003027B685B68364913434B6033
:101CB000FFF760F9F8600AE0FFF75CF90246FB689D
:101CC000D31A41F28832934201D9032353E02D4BBA
:101CD0005B6803F00C027B685B689B009A42EBD167
:101CE000274B1B6803F007033A689A4210D2244B33
:101CF0001B6823F0070222493B6813430B60204B0B
:101D00001B6803F007033A689A4201D0012332E0CE
:101D10007B681B6803F00403002B08D0194B5B6839
:101D200023F4E0627B68DB68164913434B607B68F1
:101D30001B6803F00803002B09D0124B5B6823F4E7
:101D400060527B681B69DB000E4913434B6000F057
:101D500021F802460B4B5B681B0903F00F030A498D
:101D6000CB5C22FA03F3094A1360094B1B6818463F
:101D7000FFF7BEF8002318461037BD4680BD00BFF0
:101D80000020024000100240AC4A00080000002081
:101D90000400002080B487B000AF0023FB60002364
:101DA000BB6000237B6100237B6000233B611E4BF3
:101DB0005B68FB60FB6803F00C03042B02D0082B6C
:101DC00003D027E0194B3B6127E0FB689B0C03F035
:101DD0000F03174AD35C7B60FB6803F48033002B4E
:101DE00010D0114B5B685B0C03F00103114AD35C0C
:101DF000BB607B680D4A03FB02F2BB68B2FBF3F3E6
:101E00007B6104E07B680C4A02FB03F37B617B6926
:101E10003B6102E0054B3B6100BF3B6918461C3744
:101E2000BD4680BC704700BF0010024000127A001F
:101E3000C44A0008D44A000800093D0080B400AF3D
:101E4000024B1B681846BD4680BC7047000000204E
:101E500080B500AFFFF7F2FF0246054B5B681B0A37
:101E600003F007030349CB5C22FA03F3184680BD55
:101E700000100240BC4A000880B500AFFFF7DEFF4B
:101E80000246054B5B68DB0A03F007030349CB5CA2
:101E900022FA03F3184680BD00100240BC4A000835
:101EA00080B485B000AF78600A4B1B680A4AA2FB79
:101EB00003235B0A7A6802FB03F3FB6000BFFB6845
:101EC0005A1EFA60002BF9D100BF00BF1437BD467F
:101ED00080BC704700000020D34D621080B582B0F6
:101EE00000AF78607B68002B01D1012342E07B6862
:101EF00093F84130DBB2002B06D17B68002283F8D7
:101F000040207868FEF7ACFE7B68242283F84120ED
:101F10007B681B68DA687B681B6822F40052DA6011
:101F2000786800F0F9FD7B681B681A697B681B689C
:101F300022F490421A617B681B685A697B681B68AF
:101F400022F02A025A617B681B68DA687B681B688A
:101F500042F40052DA607B6800225A647B682022D7
:101F600083F841207B68202283F842207B6800228E
:101F70005A63002318460837BD4680BD80B58AB035
:101F800002AFF860B9603B601346FB8000237B61C1
:101F9000FB6893F84130DBB2202B75D1BB68002B76
:101FA00002D0FB88002B01D101236EE0FB680022E8
:101FB0005A64FB68212283F84120FEF7DBFF786139
:101FC000FB68FA889A84FB68FA88DA84FB689B6865
:101FD000B3F5805F08D1FB681B69002B04D1002397
:101FE000FB61BB68BB6103E0BB68FB610023BB61B5
:101FF0002EE03B6800937B6900228021F86800F0A6
:1020000097FB0346002B05D0FB68202283F8412074
:1020100003233AE0FB69002B0BD1BB691B881A46EE
:10202000FB681B68C2F308025A60BB690233BB61DC
:1020300007E0FB691A78FB681B685A60FB6901338B
:10204000FB61FB68DB8C9BB2013B9AB2FB68DA84D4
:10205000FB68DB8C9BB2002BCBD13B6800937B6988
:1020600000224021F86800F063FB0346002B05D0F6
:10207000FB68202283F84120032306E0FB6820222E
:1020800083F84120002300E0022318462037BD4694
:1020900080BD80B58AB002AFF860B9603B6013467E
:1020A000FB8000237B61FB6893F84230DBB2202B7E
:1020B00040F08180BB68002B02D0FB88002B01D14F
:1020C000012379E0FB6800225A64FB68222283F82E
:1020D0004220FB6800221A63FEF74CFF7861FB6820
:1020E000FA889A85FB68FA88DA85FB689B68B3F5FD
:1020F000805F08D1FB681B69002B04D10023FB61C2
:10210000BB68BB6103E0BB68FB610023BB6147E0C8
:102110003B6800937B6900222021F86800F008FBEF
:102120000346002B05D0FB68202283F842200323BE
:1021300042E0FB69002B0CD1FB681B685B689BB21B
:10214000C3F308039AB2BB691A80BB690233BB614F
:102150001FE0FB689B68B3F5805F07D0FB689B6856
:10216000002B0AD1FB681B69002B06D1FB681B689A
:102170005B68DAB2FB691A7008E0FB681B685B6891
:10218000DBB203F07F03DAB2FB691A70FB6901333B
:10219000FB61FB68DB8D9BB2013B9AB2FB68DA8581
:1021A000FB68DB8D9BB2002BB2D1FB68202283F849
:1021B0004220002300E0022318462037BD4680BDA0
:1021C00080B5BAB000AF78607B681B681B68C7F841
:1021D000E4307B681B68DB68C7F8E0307B681B680D
:1021E0005B69C7F8DC300023C7F8D8300023C7F894
:1021F000D430D7F8E43003F00F03C7F8D830D7F85D
:10220000D830002B0FD1D7F8E43003F02003002B97
:1022100009D0D7F8E03003F02003002B03D0786812
:1022200000F0BCFB5BE2D7F8D830002B00F0DE807A
:10223000D7F8DC3003F00103002B06D1D7F8E030EB
:1022400003F49073002B00F0D180D7F8E43003F052
:102250000103002B0BD0D7F8E03003F48073002B80
:1022600005D07B685B6C43F001027B685A64D7F849
:10227000E43003F00403002B0BD0D7F8DC3003F07C
:102280000103002B05D07B685B6C43F002027B6886
:102290005A64D7F8E43003F00203002B0BD0D7F8D0
:1022A000DC3003F00103002B05D07B685B6C43F04E
:1022B00004027B685A64D7F8E43003F00803002B6B
:1022C00011D0D7F8E03003F02003002B05D1D7F868
:1022D000DC3003F00103002B05D07B685B6C43F01E
:1022E00008027B685A647B685B6C002B00F0F2810B
:1022F000D7F8E43003F02003002B08D0D7F8E03003
:1023000003F02003002B02D0786800F047FB7B68C5
:102310001B685B6903F04003002B14BF01230023FB
:10232000DBB2C7F8D4307B685B6C03F00803002B8A
:1023300003D1D7F8D430002B4FD0786800F051FA91
:102340007B681B685B6903F04003002B41D07B680E
:102350001B681433C7F89C30D7F89C3053E8003F13
:10236000C7F89830D7F8983023F04003C7F8D0303A
:102370007B681B681433D7F8D020C7F8A820C7F8AB
:10238000A430D7F8A410D7F8A82041E80023C7F854
:10239000A030D7F8A030002BD9D17B68DB6B002BA5
:1023A00013D07B68DB6B7E4A5A637B68DB6B184615
:1023B000FEF756FF0346002B16D07B68DB6B5B6B8A
:1023C0007A68D26B104698470EE0786800F09CF966
:1023D0000AE0786800F098F906E0786800F094F96F
:1023E0007B6800225A6475E100BF73E17B681B6B58
:1023F000012B40F04F81D7F8E43003F01003002B9D
:1024000000F04881D7F8E03003F01003002B00F013
:1024100041810023BB607B681B681B68BB607B68D5
:102420001B685B68BB60BB687B681B685B6903F00B
:102430004003002B00F0B6807B68DB6B1B685B6899
:10244000A7F8BE30B7F8BE30002B00F045817B689E
:102450009B8DB7F8BE209A4280F03E817B68B7F82A
:10246000BE20DA857B68DB6B9B69202B00F08880BF
:102470007B681B680C33C7F88830D7F8883053E87E
:10248000003FC7F88430D7F8843023F48073C7F84E
:10249000B8307B681B680C33D7F8B820C7F8942095
:1024A000C7F89030D7F89010D7F8942041E800236F
:1024B000C7F88C30D7F88C30002BD9D17B681B68DB
:1024C00014337B677B6F53E8003F3B673B6F23F020
:1024D0000103C7F8B4307B681B681433D7F8B42005
:1024E000C7F88020FB67F96FD7F8802041E8002308
:1024F000BB67BB6F002BE1D17B681B6814333B6665
:102500003B6E53E8003FFB65FB6D23F04003C7F8CB
:10251000B0307B681B681433D7F8B020FA66BB660E
:10252000B96EFA6E41E800237B667B6E002BE3D127
:102530007B68202283F842207B6800221A637B6834
:102540001B680C33FB64FB6C53E8003FBB64BB6C43
:1025500023F01003C7F8AC307B681B680C33D7F846
:10256000AC20BA657B65796DBA6D41E800233B65A7
:102570003B6D002BE3D17B68DB6B1846FEF735FE25
:102580007B6802225A637B689A8D7B68DB8D9BB2E5
:10259000D31A9BB21946786800F0BFF89CE000BFE0
:1025A000A72800087B689A8D7B68DB8D9BB2D31AC5
:1025B000A7F8CE307B68DB8D9BB2002B00F08E80BD
:1025C000B7F8CE30002B00F089807B681B680C3395
:1025D000BB63BB6B53E8003F7B637B6B23F490735F
:1025E000C7F8C8307B681B680C33D7F8C8207A64FA
:1025F0003B64396C7A6C41E80023FB63FB6B002B76
:10260000E3D17B681B6814337B627B6A53E8003F2D
:102610003B623B6A23F00103C7F8C4307B681B6848
:102620001433D7F8C4203A63FB62F96A3A6B41E885
:102630000023BB62BB6A002BE3D17B68202283F8B6
:1026400042207B6800221A637B681B680C333B6165
:102650003B6953E8003FFB60FB6823F01003C7F8B9
:10266000C0307B681B680C33D7F8C020FA61BB61AF
:10267000B969FA6941E800237B617B69002BE3D1EA
:102680007B6802225A63B7F8CE301946786800F0AA
:1026900044F823E0D7F8E43003F08003002B09D09E
:1026A000D7F8E03003F08003002B03D0786800F007
:1026B0000EF914E0D7F8E43003F04003002B0ED0FD
:1026C000D7F8E03003F04003002B08D0786800F022
:1026D0004DF904E000BF02E000BF00E000BFE837B2
:1026E000BD4680BD80B483B000AF786000BF0C37BA
:1026F000BD4680BC704780B483B000AF786000BF37
:102700000C37BD4680BC704780B483B000AF7860A2
:1027100000BF0C37BD4680BC704780B483B000AFAB
:1027200078600B467B8000BF0C37BD4680BC70478D
:1027300080B586B000AFF860B9603B601346FB71AE
:102740003BE03B6AB3F1FF3F37D0FEF713FC024694
:102750003B68D31A3A6A9A4202D33B6A002B01D1F2
:1027600003233AE0FB681B68DB6803F00403002BDB
:1027700023D0BB68802B20D0BB68402B1DD0FB68CA
:102780001B681B6803F00803082B16D100237B612C
:10279000FB681B681B687B61FB681B685B687B616F
:1027A0007B69F86800F01DF8FB6808225A64FB6832
:1027B000002283F8402001230FE0FB681B681A68A1
:1027C000BB681340BA689A420CBF01230023DBB2F6
:1027D0001A46FB799A42B4D0002318461837BD46F2
:1027E00080BD80B495B000AF78607B681B680C3307
:1027F0007B637B6B53E8003F3B633B6B23F490733D
:10280000FB647B681B680C33FA6C3A64FB63F96BFE
:102810003A6C41E80023BB63BB6B002BE5D17B68BE
:102820001B6814333B623B6A53E8003FFB61FB6962
:1028300023F00103BB647B681B681433BA6CFA6233
:10284000BB62B96AFA6A41E800237B627B6A002BAB
:10285000E5D17B681B6B012B19D17B681B680C339E
:10286000FB60FB6853E8003FBB60BB6823F01003CC
:102870007B647B681B680C337A6CBA617B61796915
:10288000BA6941E800233B613B69002BE5D17B68D5
:10289000202283F842207B6800221A6300BF54374D
:1028A000BD4680BC704780B584B000AF78607B685F
:1028B0005B6AFB60FB680022DA85FB680022DA8431
:1028C000F868FFF721FF00BF1037BD4680BD80B418
:1028D00085B000AF78607B6893F84130DBB2212B84
:1028E0003ED17B689B68B3F5805F14D17B681B6920
:1028F000002B10D17B681B6AFB60FB681B881A46A3
:102900007B681B68C2F308025A607B681B6A9A1CCA
:102910007B681A6208E07B681B6A591C7A6811623E
:102920001A787B681B685A607B68DB8C9BB2013B22
:102930009BB27A681946D184002B0FD17B681B6843
:10294000DA687B681B6822F08002DA607B681B68AB
:10295000DA687B681B6842F04002DA60002300E01E
:10296000022318461437BD4680BC704780B582B03C
:1029700000AF78607B681B68DA687B681B6822F0B0
:102980004002DA607B68202283F841207868FFF7F4
:10299000A9FE002318460837BD4680BD80B58CB01F
:1029A00000AF78607B6893F84230DBB2222B40F0B6
:1029B000AE807B689B68B3F5805F17D17B681B692D
:1029C000002B13D10023FB627B689B6ABB627B6890
:1029D0001B685B689BB2C3F308039AB2BB6A1A8098
:1029E0007B689B6A9A1C7B689A6226E07B689B6A7C
:1029F000FB620023BB627B689B68B3F5805F07D0F6
:102A00007B689B68002B0AD17B681B69002B06D171
:102A10007B681B685B68DAB2FB6A1A7008E07B6847
:102A20001B685B68DBB203F07F03DAB2FB6A1A70E3
:102A30007B689B6A5A1C7B689A627B68DB8D9BB2C1
:102A4000013B9BB27A681946D185002B5DD17B682A
:102A50001B68DA687B681B6822F02002DA607B68FA
:102A60001B68DA687B681B6822F48072DA607B6816
:102A70001B685A697B681B6822F001025A617B68F7
:102A8000202283F842207B6800225A637B681B6BFC
:102A9000012B35D17B6800221A637B681B680C33DD
:102AA0007B617B6953E8003F3B613B6923F0100386
:102AB0007B627B681B680C337A6A3A62FB61F96956
:102AC0003A6A41E80023BB61BB69002BE5D17B6812
:102AD0001B681B6803F01003102B0AD10023FB6056
:102AE0007B681B681B68FB607B681B685B68FB601E
:102AF000FB687B689B8D19467868FFF70EFE02E045
:102B00007868FFF7F8FD002302E0002300E00223CD
:102B100018463037BD4680BD80B584B000AF7860C0
:102B20007B681B681B6923F440517B68DA687B680B
:102B30001B680A431A617B689A687B681B691A43A1
:102B40007B685B691343BB607B681B68DB6823F4AD
:102B5000B05323F00C037A681268B9680B43D36052
:102B60007B681B685B6923F440717B689A697B68AA
:102B70001B680A435A617B681B682C4A934203D145
:102B8000FFF77AF9F86002E0FFF762F9F860FA6897
:102B900013469B0013449A001A447B685B689B00B1
:102BA000B2FBF3F3224AA2FB03235B091901FA6883
:102BB00013469B0013449A001A447B685B689B0091
:102BC000B2FBF3F21A4BA3FB02035B09642000FB88
:102BD00003F3D31A1B013233154AA2FB03235B090B
:102BE00003F0F0031944FA6813469B0013449A005B
:102BF0001A447B685B689B00B2FBF3F20C4BA3FBAF
:102C000002035B09642000FB03F3D31A1B01323378
:102C1000074AA2FB03235B0903F00F027B681B68D2
:102C20000A449A6000BF1037BD4680BD003801409D
:102C30001F85EB5180B485B000AF0346FB800023B5
:102C4000FB60B7F90630842B05D0B7F90620FB6886
:102C500013440333FB60FB6818461437BD4680BC41
:102C6000704780B500AF00F0DFFA0023184680BD42
:102C7000F0B589B004AF786039607B685B69002B80
:102C800020D07B689B69002B1CD07B685C687B68CC
:102C90001D687B681E697B68B3F908301846FFF72A
:102CA000C9FF01467B685B697A6892690292019369
:102CB00000913B6832462946204600F0E8F803467A
:102CC000FB601CE07B685C687B681D687B681B6937
:102CD0009EB27B68B3F908301846FFF7ABFF024697
:102CE00007F10C03019300923B68324629462046C7
:102CF00000F02DF90346012B01D0002300E0FB6812
:102D000018461437BD46F0BD80B584B000AF78607A
:102D10007B68FB60FB68002B01D0FB6800E00123AF
:102D2000184600F04BFA002318461037BD4680BD08
:102D300080B483B000AF78607B6803F108027B68E1
:102D40005A607B684FF0FF329A607B6803F108029B
:102D50007B68DA607B6803F108027B681A617B6834
:102D600000221A6000BF0C37BD4680BC704780B49B
:102D700083B000AF78607B6800221A6100BF0C3717
:102D8000BD4680BC704780B485B000AF78603960C4
:102D90007B685B68FB603B68FA685A60FB689A680E
:102DA0003B689A60FB689B683A685A60FB683A68BF
:102DB0009A603B687A681A617B681B685A1C7B685A
:102DC0001A6000BF1437BD4680BC704780B485B020
:102DD00000AF786039603B681B68BB60BB68B3F1CB
:102DE000FF3F03D17B681B69FB600CE07B68083305
:102DF000FB6002E0FB685B68FB60FB685B681B686C
:102E0000BA689A42F6D2FB685A683B685A603B68D7
:102E10005B683A689A603B68FA689A60FB683A684F
:102E20005A603B687A681A617B681B685A1C7B6829
:102E30001A6000BF1437BD4680BC704780B485B0AF
:102E400000AF78607B681B69FB607B685B687A68B1
:102E500092689A607B689B687A6852685A60FB68DF
:102E60005B687A689A4203D17B689A68FB685A600B
:102E70007B6800221A61FB681B685A1EFB681A6097
:102E8000FB681B6818461437BD4680BC704780B588
:102E90008EB004AFF860B9607A603B607B6B002B4A
:102EA0000BD14FF0500383F31188BFF36F8FBFF343
:102EB0004F8F3B6200BF00BFFDE7BB6B002B0BD108
:102EC0004FF0500383F31188BFF36F8FBFF34F8F21
:102ED000FB6100BF00BFFDE754233B613B69542BFE
:102EE0000BD04FF0500383F31188BFF36F8FBFF304
:102EF0004F8FBB6100BF00BFFDE73B69BB6B002B81
:102F00001ED07B6B002B1BD0BB6B7B627B6A7A6B0A
:102F10001A637B6A022283F85120002303937B6AA1
:102F2000029307F1140301933B6B00933B687A68AB
:102F3000B968F86800F050F8786A00F0D5F801E058
:102F400000237B617B6918462837BD4680BD80B56C
:102F50008CB004AFF860B9603B601346FB80FB881F
:102F60009B00184600F094FE78617B69002B0ED020
:102F7000542000F08DFEF861FB69002B03D0FB6943
:102F80007A691A6305E0786900F050FF01E00023D8
:102F9000FB61FB69002B17D0FB69002283F85120ED
:102FA000FA8800230393FB690293FB6A0193BB6ACF
:102FB00000933B68B968F86800F00EF8F86900F013
:102FC00093F80123BB6102E04FF0FF33BB61BB69A3
:102FD00018462037BD4680BD80B588B000AFF86088
:102FE000B9607A603B603B6B1A6B7B6803F180438E
:102FF000013B9B001344BB61BB6923F00703BB612A
:10300000BB6903F00703002B0BD04FF0500383F391
:103010001188BFF36F8FBFF34F8F7B6100BF00BF7D
:10302000FDE7BB68002B1FD00023FB6112E0BA68EC
:10303000FB69134419783A6BFB69134434330A462D
:103040001A70BA68FB6913441B78002B06D0FB6921
:103050000133FB61FB690F2BE9D900E000BF3B6B3B
:10306000002283F8432003E03B6B002283F83420E6
:10307000BB6A062B01D90623BB623B6BBA6ADA62D4
:103080003B6BBA6A5A643B6B00229A643B6B043315
:103090001846FFF76CFE3B6B18331846FFF767FEC8
:1030A0003B6B3A6B1A61BB6AC3F107023B6B9A61D7
:1030B0003B6B3A6B5A623B6B0022DA643B6B00223B
:1030C00083F850203A68F968B86900F02BFC024692
:1030D0003B6B1A60FB6A002B02D0FB6A3A6B1A60EA
:1030E00000BF2037BD4680BD80B582B000AF78609C
:1030F00000F00CFD2A4B1B680133294A1360294B51
:103100001B68002B09D1274A7B681360244B1B687E
:10311000012B10D100F0C4FA0DE0234B1B68002BEB
:1031200009D1204B1B68DA6A7B68DB6A9A4202D8B5
:103130001C4A7B6813601D4B1B6801331B4A1360DC
:103140007B68DB6A01229A40194B1B681343184ABB
:1031500013607B68DA6A13469B0013449B00154A90
:103160001A447B68043319461046FFF70CFE00F042
:10317000FDFC0D4B1B68002B0ED00A4B1B68DA6A56
:103180007B68DB6A9A4207D20B4B4FF080521A6081
:10319000BFF34F8FBFF36F8F00BF0837BD4680BDB1
:1031A000B0040020B0030020BC040020CC040020A8
:1031B000B8040020B403002004ED00E080B584B022
:1031C00000AF78600023FB607B68002B18D0144BA5
:1031D0001B68002B0BD04FF0500383F31188BFF313
:1031E0006F8FBFF34F8FBB6000BF00BFFDE700F0E4
:1031F0007DF80021786800F02FFB00F085F8F8607A
:10320000FB68002B07D1074B4FF080521A60BFF3C9
:103210004F8FBFF36F8F00BF1037BD4680BD00BF1B
:10322000D804002004ED00E080B58AB004AF00238C
:10323000BB6000237B603A46391D07F1080318463E
:10324000FDF720FB39687B68BA680292019300237E
:10325000009300230A461F491F48FFF718FE034644
:103260001E4A13601D4B1B68002B02D001237B619B
:1032700001E000237B617B69012B16D14FF05003E5
:1032800083F31188BFF36F8FBFF34F8F3B6100BF94
:10329000134B4FF0FF321A60124B01221A60124B8F
:1032A00000221A6000F0C0FB0FE07B69B3F1FF3F22
:1032B0000BD14FF0500383F31188BFF36F8FBFF32F
:1032C0004F8FFB6000BF00BFFDE700BF1837BD4652
:1032D00080BD00BFA44A000871360008D404002055
:1032E000D0040020BC040020B404002080B400AF4F
:1032F000044B1B680133034A136000BFBD4680BC0A
:10330000704700BFD804002080B584B000AF002310
:10331000FB600023BB60424B1B68002B0BD14FF0BE
:10332000500383F31188BFF36F8FBFF34F8F3B6060
:1033300000BF00BFFDE700F0E9FB394B1B68013B14
:10334000374A1360364B1B68002B61D1354B1B6825
:10335000002B5DD02EE0344BDB68DB68FB60FB6844
:1033600018331846FFF76AFDFB6804331846FFF769
:1033700065FDFB68DB6A01229A402C4B1B681343F6
:103380002A4A1360FB68DA6A13469B0013449B00C9
:10339000274A1A44FB68043319461046FFF7F3FC2A
:1033A000FB68DA6A234B1B68DB6A9A4202D3224B22
:1033B00001221A601C4B1B68002BCCD1FB68002B30
:1033C00001D000F00BFA1D4B1B687B607B68002B63
:1033D00010D000F037F80346002B02D0164B012224
:1033E0001A607B68013B7B607B68002BF1D1134B3B
:1033F00000221A60104B1B68002B09D00123BB6010
:103400000F4B4FF080521A60BFF34F8FBFF36F8F97
:1034100000F0ACFBBB6818461037BD4680BD00BF4E
:10342000D8040020B004002070040020B80400205C
:10343000B4030020B0030020C4040020C004002016
:1034400004ED00E080B586B000AF00237B614F4BF8
:103450001B68002B40F08F804D4B1B6801333B6194
:103460004B4A3B6913603B69002B21D1494B1B68D8
:103470001B68002B0BD04FF0500383F31188BFF370
:103480006F8FBFF34F8F3B6000BF00BFFDE7414B25
:103490001B68FB60404B1B683E4A13603E4AFB685A
:1034A00013603E4B1B6801333C4A136000F096F9F1
:1034B0003B4B1B683A699A4248D3364B1B681B68E2
:1034C000002B04D1364B4FF0FF321A603EE0314BF7
:1034D0001B68DB68DB68BB60BB685B687B603A6964
:1034E0007B689A4203D22E4A7B6813602EE0BB6849
:1034F00004331846FFF7A2FCBB689B6A002B04D07C
:10350000BB6818331846FFF799FCBB68DB6A0122D9
:103510009A40244B1B681343224A1360BB68DA6A43
:1035200013469B0013449B001F4A1A44BB68043394
:1035300019461046FFF727FCBB68DA6A1B4B1B686D
:10354000DB6A9A42B9D301237B61B6E7174B1B684C
:10355000DA6A154913469B0013449B000B441B6811
:10356000012B01D901237B61114B1B68002B07D074
:1035700001237B6104E00F4B1B6801330D4A13608C
:103580007B6918461837BD4680BD00BFD8040020AF
:10359000B4040020680400206C040020C80400204B
:1035A000D0040020B8040020B4030020B0030020A1
:1035B000C4040020C004002080B487B000AF274BB3
:1035C0001B68002B03D0264B01221A6040E0244BDD
:1035D00000221A60234B1B68FB60FB68B3FA83F37D
:1035E000FB72FB7AC3F11F037B611F497A691346A3
:1035F0009B0013449B000B441B68002B0BD14FF026
:10360000500383F31188BFF36F8FBFF34F8F7B603D
:1036100000BF00BFFDE77A6913469B0013449B007F
:10362000114A13443B613B695B685A683B695A60C5
:103630003B695A683B6908339A4204D13B695B682D
:103640005A683B695A603B695B68DB68074A1360EC
:1036500000BF1C37BD4680BC704700BFD8040020A7
:10366000C4040020B8040020B4030020B0030020EC
:1036700080B582B000AF786000F052F8064B1B684E
:10368000012BF9D9054B4FF080521A60BFF34F8FD1
:10369000BFF36F8FF0E700BFB403002004ED00E03C
:1036A00080B582B000AF00237B600CE07A681346DF
:1036B0009B0013449B00124A13441846FFF738FB43
:1036C0007B6801337B607B68062BEFD90D48FFF7E1
:1036D0002FFB0D48FFF72CFB0C48FFF729FB0C488C
:1036E000FFF726FB0B48FFF723FB0B4B054A1A603D
:1036F0000A4B054A1A6000BF0837BD4680BD00BFAF
:10370000B403002040040020540400207004002072
:10371000840400209C040020680400206C04002025
:1037200080B582B000AF19E000F0F0F9104BDB6813
:10373000DB687B607B6804331846FFF77FFB0D4B2B
:103740001B68013B0B4A13600B4B1B68013B0A4A89
:10375000136000F00BFA786800F010F8064B1B6855
:10376000002BE1D100BF00BF0837BD4680BD00BFC0
:1037700084040020B00400209804002080B584B0A8
:1037800000AF78607B6893F85130002B08D17B68DC
:103790001B6B184600F04AFB786800F047FB19E005
:1037A0007B6893F85130012B03D1786800F03EFB21
:1037B00010E07B6893F85130022B0BD04FF0500390
:1037C00083F31188BFF36F8FBFF34F8FFB6000BF90
:1037D00000BFFDE700BF1037BD4680BD80B483B099
:1037E00000AF0C4B1B681B68002B04D10A4B4FF039
:1037F000FF321A6008E0074B1B68DB68DB687B6000
:103800007B685B68044A136000BF0C37BD4680BC10
:10381000704700BF68040020D004002080B483B04B
:1038200000AF0B4B1B68002B02D101237B6008E02B
:10383000084B1B68002B02D102237B6001E00023B0
:103840007B607B6818460C37BD4680BC704700BF64
:10385000BC040020D804002080B584B000AF78609C
:103860003960294B1B68FB60284B1B6804331846E2
:10387000FFF7E4FA0346002B0BD1244B1B68DB6AED
:10388000012202FA03F3DA43214B1B681340204A5A
:1038900013607B68B3F1FF3F0AD13B68002B07D070
:1038A0001A4B1B68043319461A48FFF76CFA26E0D6
:1038B000FA687B681344BB60144B1B68BA685A6093
:1038C000BA68FB689A4209D2134B1A680F4B1B68FF
:1038D000043319461046FFF779FA10E00F4B1A68C7
:1038E0000A4B1B68043319461046FFF76FFA0C4B5E
:1038F0001B68BA689A4202D2094ABB68136000BFCB
:103900001037BD4680BD00BFB4040020B0030020C6
:10391000B80400209C0400206C04002068040020EF
:10392000D004002080B485B000AFF860B9607A6040
:10393000FB68043BFB60FB684FF080721A60FB6819
:10394000043BFB60BB6823F00102FB681A60FB6864
:10395000043BFB60084AFB681A60FB68143BFB6091
:103960007A68FB681A60FB68203BFB60FB681846BE
:103970001437BD4680BC70477D39000880B485B0DF
:1039800000AF00237B60124B1B68B3F1FF3F0BD0ED
:103990004FF0500383F31188BFF36F8FBFF34F8F46
:1039A000FB6000BF00BFFDE74FF0500383F31188B9
:1039B000BFF36F8FBFF34F8FBB6000BF00BF7B684B
:1039C000002BFCD000BF00BF1437BD4680BC704741
:1039D0000C000020000000000000000000000000BB
:1039E000074B19680868B0E8F00F80F30988BFF347
:1039F0006F8F4FF0000080F311884EF00D0E70476E
:103A0000B003002000BF00BF06480068006880F3D4
:103A1000088862B661B6BFF34F8FBFF36F8F00DFC8
:103A200000BF00BF08ED00E080B584B000AF324BAE
:103A3000FB60FB681B78DBB27B60FB68FF221A70BF
:103A4000FB681B78DBB2FB70FB78DBB203F0500342
:103A5000DAB22A4B1A702A4B07221A6009E0284B67
:103A60001B68013B264A1360FB78DBB25B00DBB2CC
:103A7000FB70FB78DBB203F08003802BEFD0204B90
:103A80001B68C3F10703042B0BD04FF0500383F3E3
:103A90001188BFF36F8FBFF34F8FBB6000BF00BFB4
:103AA000FDE7174B1B681B02154A1360144B1B687C
:103AB00003F4E063124A13607B68DAB2FB681A70A1
:103AC000104B1B680F4A43F4700313600D4B1B68C7
:103AD0000C4A43F07043136000F0B8F80A4B002220
:103AE0001A60FFF791FFFFF767FDFFF747FF00231D
:103AF00018461037BD4680BD00E400E0DC0400201D
:103B0000E004002020ED00E00C00002080B483B031
:103B100000AF4FF0500383F31188BFF36F8FBFF3F3
:103B20004F8F7B6000BF0F4B1B6801330D4A136042
:103B30000C4B1B68012B10D10B4B1B68DBB2002B0D
:103B40000BD04FF0500383F31188BFF36F8FBFF397
:103B50004F8F3B6000BF00BFFDE700BF0C37BD4685
:103B600080BC70470C00002004ED00E080B483B0FE
:103B700000AF124B1B68002B0BD14FF0500383F3A7
:103B80001188BFF36F8FBFF34F8F7B6000BF00BF03
:103B9000FDE70A4B1B68013B084A1360074B1B6893
:103BA000002B05D100233B603B6883F3118800BFE5
:103BB00000BF0C37BD4680BC704700BF0C00002022
:103BC000EFF30980BFF36F8F0D4B1A6820E9F00FF8
:103BD00010602DE908404FF0500080F31188FFF786
:103BE000EBFC4FF0000080F31188BDE80840196835
:103BF0000868B0E8F00F80F30988BFF36F8F704753
:103C0000B003002000BF00BF80B582B000AF4FF00E
:103C1000500383F31188BFF36F8FBFF34F8F7B6027
:103C200000BFFFF70FFC0346002B03D0064B4FF0FD
:103C300080521A6000233B603B6883F3118800BF09
:103C400000BF0837BD4680BD04ED00E080B400AF82
:103C50000A4B00221A600A4B00221A60094B1B68AB
:103C6000094AA2FB03239B09084A013B1360034B4B
:103C700007221A6000BFBD4680BC704710E000E01C
:103C800018E000E000000020D34D621014E000E0D6
:103C900080B58AB000AF78600023FB61FFF726FB98
:103CA0005C4B1B68002B01D100F024F95A4B1A68B9
:103CB0007B681340002B40F095807B68002B1ED062
:103CC00008227B6813447B607B6803F00703002BAA
:103CD00015D07B6823F0070308337B607B6803F013
:103CE0000703002B0BD04FF0500383F31188BFF371
:103CF0006F8FBFF34F8F7B6100BF00BFFDE77B6815
:103D0000002B6FD0454B1B687A689A426AD8444BA7
:103D10003B62434B1B687B6204E07B6A3B627B6ACD
:103D20001B687B627B6A5B687A689A4203D97B6A0C
:103D30001B68002BF1D1374B1B687A6A9A4251D02D
:103D40003B6A1B6808221344FB617B6A1A683B6A62
:103D50001A607B6A5A687B68D21A08235B009A4211
:103D600020D97A6A7B681344BB61BB6903F00703FF
:103D7000002B0BD04FF0500383F31188BFF36F8FEC
:103D8000BFF34F8F3B6100BF00BFFDE77B6A5A68FE
:103D90007B68D21ABB695A607B6A7A685A60B869D4
:103DA00000F00AF91D4B1A687B6A5B68D31A1B4A3C
:103DB00013601A4B1A681B4B1B689A4203D2174BAD
:103DC0001B68184A13607B6A5A68134B1B681A43B6
:103DD0007B6A5A607B6A00221A60134B1B680133AE
:103DE000114A1360FFF790FAFB6903F00703002BF9
:103DF0000BD04FF0500383F31188BFF36F8FBFF3E5
:103E00004F8FFB6000BF00BFFDE7FB6918462837F6
:103E1000BD4680BDEC10002000110020F0100020F5
:103E2000E4100020F4100020F810002080B586B0C7
:103E300000AF78607B687B617B68002B4FD00823E4
:103E40005B427A6913447B617B693B613B695A68D9
:103E5000254B1B681340002B0BD14FF0500383F30D
:103E60001188BFF36F8FBFF34F8FFB6000BF00BFA0
:103E7000FDE73B691B68002B0BD04FF0500383F329
:103E80001188BFF36F8FBFF34F8FBB6000BF00BFC0
:103E9000FDE73B695A68144B1B681340002B1ED08A
:103EA0003B691B68002B1AD13B695A680E4B1B6893
:103EB000DB431A403B695A60FFF718FA3B695A68BE
:103EC0000A4B1B681344094A1360386900F074F800
:103ED000074B1B680133064A1360FFF715FA00BF52
:103EE0001837BD4680BD00BF00110020F010002033
:103EF000FC10002080B485B000AF4FF44063BB607D
:103F0000274BFB60FB6803F00703002B0CD0FB681A
:103F10000733FB60FB6823F00703FB60BA68FB68AC
:103F2000D31A1F4A1344BB60FB687B601D4A7B6841
:103F300013601C4B00225A607B68BA681344FB6014
:103F40000822FB689B1AFB60FB6823F00703FB60F9
:103F5000FB68154A1360144B1B6800225A60124B11
:103F60001B6800221A607B683B603B68FA68D21AC3
:103F70003B685A600C4B1A683B681A603B685B6888
:103F80000A4A13603B685B68094A1360094B4FF0AB
:103F900000421A6000BF1437BD4680BC704700BFA6
:103FA000E4040020E4100020EC100020F4100020B5
:103FB000F01000200011002080B485B000AF7860C0
:103FC000274BFB6002E0FB681B68FB60FB681B681B
:103FD0007A689A42F7D8FB68BB60FB685B68BA688E
:103FE00013447A689A4208D1FB685A687B685B6818
:103FF0001A44FB685A60FB687B607B68BB607B6827
:104000005B68BA681A44FB681B689A4218D1FB685F
:104010001A68144B1B689A420DD07B685A68FB687B
:104020001B685B681A447B685A60FB681B681A68E7
:104030007B681A6008E00B4B1A687B681A6003E023
:10404000FB681A687B681A60FA687B689A4202D03B
:10405000FB687A681A6000BF1437BD4680BC7047A1
:10406000E4100020EC1000200CB430B5184B0C1EEE
:104070001D689DB008DA8B234FF0FF302B601DB018
:10408000BDE8304002B070474FF40273ADF8143011
:104090004FF000031B930CBF234604F1FF3304933E
:1040A00007934FF6FF7302900690ADF8163028463E
:1040B00021AB209A02A9019300F0A0F9431CBCBFD8
:1040C0008B232B60002CDAD00022029B1A70D6E7DB
:1040D0001000002003460244934200D1704703F8C9
:1040E000011BF9E7014B1868704700BF1000002062
:1040F00070B500260C4D0D4C641BA410A64209D1CE
:1041000000F076FC00260A4D0A4C641BA410A6425F
:1041100005D170BD55F8043B98470136EEE755F8D8
:10412000043B98470136F2E7144B0008144B000893
:10413000144B0008184B0008704770470A4491421E
:1041400000F1FF3300D1704710B511F8014B9142D7
:1041500003F8014FF9D110BD38B50546002940D00C
:1041600051F8043C0C1F002BB8BFE41800F0DEF837
:104170001C4A136833B9636014602846BDE83840B0
:1041800000F0DAB8A34208D9206821188B4201BF99
:1041900019685B6809182160EDE71A465B680BB186
:1041A000A342FAD911685018A0420BD120680144EB
:1041B000501883421160E0D118685B6808441060B1
:1041C0005360DAE702D90C232B60D6E72068211868
:1041D0008B4201BF19685B680918216063605460F5
:1041E000CBE738BD4812002070B50F4E0C46316841
:1041F000054611B900F0A8FB30602146284600F0C2
:10420000A3FB431C03D14FF0FF34204670BDC41CF8
:1042100024F00304A042F8D0211A284600F094FBB1
:104220000130F2D1EFE700BF441200202DE9F8433E
:10423000CD1C25F0030508350C2D38BF0C25002DAD
:10424000064601DBA94204D90C2333600020BDE8F7
:10425000F883DFF8D48000F069F8D8F800301C4605
:1042600044BB29463046FFF7BFFF431C044658D1E4
:10427000D8F800402746002F43D1002C4BD02368AC
:104280003946304604EB030900F05EFB814542D11C
:10429000216830466D1A2946FFF7A6FF01303AD053
:1042A00023682B442360D8F800305A6862BBC8F8F2
:1042B00000700FE02268521B20D40B2A17D9611915
:1042C000A342256018BF5960636808BFC8F8001092
:1042D00062514B60304600F02FF804F10B00231DB3
:1042E00020F00700C21A1CBF1B1AA350AFE7626878
:1042F000A3420CBFC8F800205A60EBE7234664686D
:10430000AEE73C467F68B6E71A465B68A342FBD13E
:1043100000235360DEE70C233046336000F00CF8D6
:1043200094E70560D6E700BF481200200148FFF778
:1043300003BF00BF401200200148FFF7FEBE00BFD0
:10434000401200202DE9F0471F468E688246BE428B
:104350000C4690460B682DD8B1F90C2012F4906FE2
:1043600026D06569096905EB4505A3EB010905EB55
:10437000D5757B1C4B446D109D4238BF1D465305BF
:1043800027D52946FFF752FF064660B34A46216902
:10439000FFF7D4FEA38923F4906343F08003A38145
:1043A00026614E4426603E466561A5EB0905A56081
:1043B000BE4200D93E4632464146206800F0AAFA85
:1043C0000020A3689B1BA360236833442360BDE8DF
:1043D000F0872A4600F0D6FA06460028E0D150467B
:1043E0002169FFF7B9FE0C23CAF80030A3894FF00A
:1043F000FF3043F04003A381E9E700002DE9F04FCF
:1044000098468B8907461B060D4614469DB010D56D
:104410000B6973B94021FFF709FF2860286130B9A3
:104420000C233B604FF0FF301DB0BDE8F08F402300
:104430006B610023099320238DF8293030234FF03E
:104440000109CDF80C80DFF898818DF82A302346D9
:104450009A4613F8012B0AB1252AF9D1BAEB040BBD
:104460000BD05B46224629463846FFF76BFF0130EA
:1044700000F0A780099A5A4409929AF80030002B5C
:1044800000F09F8000234FF0FF32CDE905230AF1B1
:10449000010A049307938DF853301A93544605226A
:1044A00014F8011B4E4800F05FFA049AD8B9D00600
:1044B00044BF20238DF85330110744BF2B238DF8C0
:1044C00053309AF800302A2B15D0544600204FF074
:1044D0000A0C079A214611F8013B303B092B4BD9B6
:1044E000B0B1079214E0A0EB080309FA03F31343F9
:1044F000A2460493D2E7039B191D1B680391002B6E
:10450000BBBF5B4242F0020207930793B8BF04921D
:1045100023782E2B0AD163782A2B32D1039B0234C5
:104520001A1D1B68039243EAE3730593DFF8B4A0F6
:1045300003225046217800F017FA38B14022049B3C
:10454000A0EB0A00824013430134049314F8011BCA
:10455000062225488DF8281000F006FA002836D0EB
:10456000224B1BBB039B073323F007030833039342
:10457000099B334409936AE70C4601200CFB023285
:10458000A8E700234FF00A0C194601340593204692
:1045900010F8012B303A092A03D9002BC6D0059117
:1045A000C4E7044601230CFB0121F0E703AB0093B1
:1045B0002A4638460E4B04A9AFF30080421C06463B
:1045C000D6D1AB895B063FF52DAF09982CE703AB3D
:1045D00000932A463846064B04A900F07DF8EDE723
:1045E000D64A0008DC4A0008E04A00080000000043
:1045F000454300082DE9F047164698468A680B693E
:1046000007469342B8BF1346336091F843200C46E7
:10461000DDF820900AB1013333602368990642BF68
:10462000336802333360256815F0060506D104F1BE
:10463000190AE36832689B1AAB422BDC94F84330CA
:104640002268003B18BF0123920630D44146384609
:1046500004F14302C847013023D02368226903F0E4
:104660000603042B14BF002533684FF0000608BF73
:10467000E56804F11A0408BFED1A54F8123C08BFAB
:1046800025EAE5759342C4BF9B1AED18B5421AD1CD
:10469000002008E00123524641463846C847013011
:1046A00003D14FF0FF30BDE8F0870135C1E730207E
:1046B000E11881F843005A1C94F845102244023353
:1046C00082F84310C2E70123224641463846C847D4
:1046D0000130E6D00136D9E72DE9FF470F7E91463C
:1046E000782F80460C469A460C9E01F1430207D86B
:1046F000622F0AD8002F00F0D180582F00F0B88028
:1047000004F1420684F842703AE0A7F16303152BE6
:10471000F6D801A151F823F0714700088547000839
:104720000147000801470008014700080147000849
:1047300085470008014700080147000801470008B5
:104740000147000883480008AF4700083D480008BB
:104750000147000801470008A54800080147000874
:10476000AF47000801470008014700084548000816
:1047700033681A1D1B68326004F1420684F8423027
:1047800001239CE033682068191D3160060601D5BD
:104790001D6803E04506FBD5B3F90050002D03DA90
:1047A0002D236D4284F843300A23584811E02168D4
:1047B0003368080653F8045B02D4490648BFADB21B
:1047C0006F2F336014BF0A2308235048002184F858
:1047D00043106668002EA66005DB21682E4321F099
:1047E000040121604BD01646B5FBF3F103FB1157D2
:1047F000C75D06F8017D2F46BB420D46F4D9082B54
:104800000BD12368DF0708D5236961689942DEBFB1
:10481000302306F8013C06F1FF36921B22614B461D
:1048200021464046CDF800A003AAFFF7E3FE013081
:104830004AD14FF0FF3004B0BDE8F087236843F061
:10484000200323607827324884F845702368316854
:104850001F0651F8045B02D45F0648BFADB2316059
:10486000D90744BF43F0200323601DB11023ADE7F7
:104870002648E9E7236823F020032360F6E716467D
:10488000BDE733682568181D616930602E061B6816
:1048900001D5196002E06806FBD519800023164691
:1048A0002361BCE7336800211A1D32601E6862680C
:1048B000304600F059F808B1801B606063682361DE
:1048C000002384F84330AAE732464946404623692C
:1048D000D0470130ADD023689B0713D4E068039B19
:1048E0009842B8BF1846A6E70123324649464046DB
:1048F000D04701309DD00135E36803995B1AAB4284
:10490000F2DCEBE7002504F11906F5E7E74A0008B9
:10491000F84A0008884210B501EB020402D984422B
:10492000234607D8431EA14208D011F8012B03F8F3
:10493000012FF8E7014602448A4200D110BD13F866
:10494000014D02F8014DF7E738B50023054D044647
:1049500008462B60FCF754FA431C02D12B6803B1C4
:10496000236038BD3C120020034610B5C9B2024492
:104970009342184601D1002003E0047801338C42B1
:10498000F6D110BD2DE9F041074614460D4621B978
:104990001146BDE8F041FFF749BC2AB9FFF7DCFB3F
:1049A00025462846BDE8F08100F01AF88442064604
:1049B00002D8B4EB500FF4D821463846FFF736FC46
:1049C000804608B94546ECE7B4422246294628BF4E
:1049D0003246FFF7B3FB29463846FFF7BDFBF1E748
:1049E00051F8043C181F002BBCBF0B58C01870476F
:1049F000F8B500BFF8BC08BC9E467047F8B500BFCC
:084A0000F8BC08BC9E4670479B
:104A080064656661756C745461736B00084A0008CC
:104A1800290B0008000000000000000080000000D2
:104A28000000000000000000626D735461736B00A9
:104A3800304A0008490B0008000000000000000090
:104A4800800000000000000000000000646562753E
:104A5800675461736B000000544A0008850B000816
:104A6800FEFF0000000000008000000000000000C1
:104A780000000000424D533A20553A202575206D1C
:104A8800562C20493A202564206D412C20534F4351
:104A98003A20257525250D0A0000000049444C459B
:104AA80000000000000000000000000001020304F4
:104AB80006070809000000000102030402030405B8
:104AC800060708090A0B0C0D0E0F10100102232D02
:104AD800302B2000686C4C006566674546470030FF
:104AE800313233343536373839414243444546004C
:104AF800303132333435363738396162636465664C
:044B080000000000A9
:084B0C0044B6FF7F0100000028
:044B1400350100085F
:044B1800110100087F
:104B1C0000127A001000000001000000AAAAAAAA44
:104B2C001400002000000000041100206C11002073
:104B3C00D411002000000000000000000000000064
:104B4C000000000000000000000000000000000059
:104B5C000000000000000000000000000000000049
:104B6C000000000000000000000000000000000039
:0400000508000E7968
:00000001FF
