:020000040800F2
:1000000000500020FD270008E1250008E925000830
:10001000F1250008F925000801260008000000006D
:100020000000000000000000000000006153000814
:1000300009260008000000004155000815260008A8
:1000400045280008452800084528000845280008DC
:1000500045280008452800084528000845280008CC
:1000600045280008452800084528000845280008BC
:1000700045280008452800084528000845280008AC
:10008000452800084528000845280008452800089C
:10009000452800084528000845280008452800088C
:1000A000452800084528000845280008452800087C
:1000B000452800084528000845280008452800086C
:1000C000452800084528000845280008452800085C
:1000D0004528000831260008452600085926000852
:1000E00045280008452800084528000800000000B1
:1000F0000000000000000000000000000000000000
:0C01000000000000000000005FF808F1A3
:1001100010B5054C237833B9044B13B10448AFF341
:1001200000800123237010BDD801002000000000D2
:10013000CC86000808B5034B1BB103490348AFF355
:10014000008008BD00000000DC010020CC86000813
:10015000034613F8012B002AFBD1181A0138704707
:1001600081F0004102E000BF83F0004330B54FEA68
:1001700041044FEA430594EA050F08BF90EA020FD5
:100180001FBF54EA000C55EA020C7FEA645C7FEA68
:10019000655C00F0E2804FEA5454D4EB5555B8BF8B
:1001A0006D420CDD2C4480EA020281EA030382EAFC
:1001B000000083EA010180EA020281EA0303362D8E
:1001C00088BF30BD11F0004F4FEA01314FF4801C61
:1001D0004CEA113102D0404261EB410113F0004F73
:1001E0004FEA03334CEA133302D0524263EB43032A
:1001F00094EA050F00F0A780A4F10104D5F1200EC8
:100200000DDB02FA0EFC22FA05F2801841F1000122
:1002100003FA0EF2801843FA05F359410EE0A5F1F6
:1002200020050EF1200E012A03FA0EFC28BF4CF027
:10023000020C43FA05F3C01851EBE37101F00045DD
:1002400007D54FF0000EDCF1000C7EEB00006EEBEA
:100250000101B1F5801F1BD3B1F5001F0CD3490874
:100260005FEA30004FEA3C0C04F101044FEA4452CB
:1002700012F5800F80F09A80BCF1004F08BF5FEA52
:10028000500C50F1000041EB045141EA050130BD32
:100290005FEA4C0C404141EB0101013C28BFB1F544
:1002A000801FE9D291F0000F04BF01460020B1FA8F
:1002B00081F308BF2033A3F10B03B3F120020CDA62
:1002C0000C3208DD02F1140CC2F10C0201FA0CF040
:1002D00021FA02F10CE002F11402D8BFC2F1200CA5
:1002E00001FA02F120FA0CFCDCBF41EA0C0190405B
:1002F000E41AA2BF01EB0451294330BD6FEA0404A4
:100300001F3C1CDA0C340EDC04F11404C4F120028E
:1003100020FA04F001FA02F340EA030021FA04F3A0
:1003200045EA030130BDC4F10C04C4F1200220FAF7
:1003300002F001FA04F340EA0300294630BD21FA35
:1003400004F0294630BD94F0000F83F4801306BFFB
:1003500081F480110134013D4EE77FEA645C18BFEF
:100360007FEA655C29D094EA050F08BF90EA020F86
:1003700005D054EA000C04BF1946104630BD91EA7E
:10038000030F1EBF0021002030BD5FEA545C05D181
:100390004000494128BF41F0004130BD14F58004C0
:1003A0003CBF01F5801130BD01F0004545F0FE4134
:1003B00041F470014FF0000030BD7FEA645C1ABF69
:1003C000194610467FEA655C1CBF0B46024650EAA0
:1003D000013406BF52EA033591EA030F41F40021CC
:1003E00030BD00BF90F0000F04BF0021704730B552
:1003F0004FF4806404F132044FF000054FF0000127
:1004000050E700BF90F0000F04BF0021704730B5E7
:100410004FF4806404F1320410F0004548BF4042BC
:100420004FF000013EE700BF42004FEAE2014FEA11
:1004300031014FEA02701FBF12F07F4393F07F4FEC
:1004400081F06051704732F07F4208BF704793F0EF
:100450007F4F04BF41F40021704730B54FF4607402
:1004600001F0004521F000411CE700BF50EA010205
:1004700008BF704730B54FF000050AE050EA0102AE
:1004800008BF704730B511F0004502D5404261EB1E
:1004900041014FF4806404F132045FEA915C3FF45F
:1004A000D8AE4FF003025FEADC0C18BF03325FEAFC
:1004B000DC0C18BF033202EBDC02C2F1200300FAAD
:1004C00003FC20FA02F001FA03FE40EA0E0021FAD2
:1004D00002F11444BDE600BF70B54FF0FF0C4CF4C0
:1004E000E06C1CEA11541DBF1CEA135594EA0C0F72
:1004F00095EA0C0F00F0DEF82C4481EA030621EAAD
:100500004C5123EA4C5350EA013518BF52EA0335E7
:1005100041F4801143F4801338D0A0FB02CE4FF099
:100520000005E1FB02E506F00042E0FB03E54FF0C9
:100530000006E1FB03569CF0000F18BF4EF0010EC1
:10054000A4F1FF04B6F5007F64F5407404D25FEABD
:100550004E0E6D4146EB060642EAC62141EA555170
:100560004FEAC52040EA5E504FEACE2EB4F1FD0CB2
:1005700088BFBCF5E06F1ED8BEF1004F08BF5FEA30
:10058000500E50F1000041EB045170BD06F00046E2
:1005900046EA010140EA020081EA0301B4EB5C048F
:1005A000C2BFD4EB0C0541EA045170BD41F4801187
:1005B0004FF0000E013C00F3AB8014F1360FDEBFAC
:1005C000002001F0004170BDC4F10004203C35DA88
:1005D0000C341BDC04F11404C4F1200500FA05F30B
:1005E00020FA04F001FA05F240EA020001F00042AC
:1005F00021F0004110EBD37021FA04F642EB060122
:100600005EEA430E08BF20EAD37070BDC4F10C044B
:10061000C4F1200500FA04F320FA05F001FA04F20F
:1006200040EA020001F0004110EBD37041F10001FB
:100630005EEA430E08BF20EAD37070BDC4F1200506
:1006400000FA05F24EEA020E20FA04F301FA05F26E
:1006500043EA020321FA04F001F0004121FA04F216
:1006600020EA020000EBD3705EEA430E08BF20EAE6
:10067000D37070BD94F0000F0FD101F00046400020
:1006800041EB010111F4801F08BF013CF7D041EAA2
:10069000060195F0000F18BF704703F000465200A6
:1006A00043EB030313F4801F08BF013DF7D043EA77
:1006B0000603704794EA0C0F0CEA135518BF95EA2D
:1006C0000C0F0CD050EA410618BF52EA4306D1D1B4
:1006D00081EA030101F000414FF0000070BD50EAD3
:1006E000410606BF1046194652EA430619D094EA5D
:1006F0000C0F02D150EA013613D195EA0C0F05D147
:1007000052EA03361CBF104619460AD181EA03019A
:1007100001F0004141F0FE4141F470014FF0000052
:1007200070BD41F0FE4141F4780170BD70B54FF0ED
:10073000FF0C4CF4E06C1CEA11541DBF1CEA13556D
:1007400094EA0C0F95EA0C0F00F0A7F8A4EB05044F
:1007500081EA030E52EA03354FEA013100F0888046
:100760004FEA03334FF0805545EA131343EA12630F
:100770004FEA022245EA111545EA10654FEA0026C4
:100780000EF000419D4208BF964244F1FD0404F57D
:10079000407402D25B084FEA3202B61A65EB0305D9
:1007A0005B084FEA32024FF480104FF4002CB6EB96
:1007B000020E75EB030E22BFB61A754640EA0C0016
:1007C0005B084FEA3202B6EB020E75EB030E22BF56
:1007D000B61A754640EA5C005B084FEA3202B6EB97
:1007E000020E75EB030E22BFB61A754640EA9C0056
:1007F0005B084FEA3202B6EB020E75EB030E22BF26
:10080000B61A754640EADC0055EA060E18D04FEAE3
:10081000051545EA16754FEA06164FEAC30343EA83
:1008200052734FEAC2025FEA1C1CC0D111F4801F50
:100830000BD141EA00014FF000004FF0004CB6E749
:1008400011F4801F04BF01430020B4F1FD0C88BFE8
:10085000BCF5E06F3FF6AFAEB5EB030C04BFB6EBF3
:10086000020C5FEA500C50F1000041EB045170BDE6
:100870000EF0004E4EEA113114EB5C04C2BFD4EB13
:100880000C0541EA045170BD41F480114FF0000E97
:10089000013C90E645EA060E8DE60CEA135594EA13
:1008A0000C0F08BF95EA0C0F3FF43BAF94EA0C0F16
:1008B0000AD150EA01347FF434AF95EA0C0F7FF48B
:1008C00025AF104619462CE795EA0C0F06D152EADF
:1008D00003353FF4FDAE1046194622E750EA4106C3
:1008E00018BF52EA43067FF4C5AE50EA41047FF4D4
:1008F0000DAF52EA43057FF4EBAE12E74FF0FF3C39
:1009000006E000BF4FF0010C02E000BF4FF0010C09
:100910004DF804CD4FEA410C7FEA6C5C4FEA430C82
:1009200018BF7FEA6C5C1BD001B050EA410C0CBFD1
:1009300052EA430C91EA030F02BF90EA020F002033
:10094000704710F1000F91EA030F58BF994208BF9A
:1009500090422CBFD8176FEAE37040F00100704757
:100960004FEA410C7FEA6C5C02D150EA013C07D1AE
:100970004FEA430C7FEA6C5CD6D152EA033CD3D0F9
:100980005DF8040B704700BF8446104662468C46F3
:100990001946634600E000BF01B5FFF7B7FF002826
:1009A00048BF10F1000F01BD4DF808EDFFF7F4FF4F
:1009B0000CBF012000205DF808FB00BF4DF808EDDA
:1009C000FFF7EAFF34BF012000205DF808FB00BFFD
:1009D0004DF808EDFFF7E0FF94BF012000205DF81F
:1009E00008FB00BF4DF808EDFFF7CEFF94BF0120D4
:1009F00000205DF808FB00BF4DF808EDFFF7C4FFCD
:100A000034BF012000205DF808FB00BF4FEA410C15
:100A10007FEA6C5C02D150EA013C0AD14FEA430CF8
:100A20007FEA6C5C02D152EA033C02D14FF0000035
:100A300070474FF0010070474FEA410212F5001273
:100A400015D211D56FF47873B3EB625212D94FEA15
:100A5000C12343F0004343EA505311F0004F23FAFF
:100A600002F018BF404270474FF00000704750EA54
:100A7000013005D111F0004008BF6FF00040704711
:100A80004FF00000704700BF80F0004002E000BF60
:100A900081F0004142001FBF5FEA410392EA030F69
:100AA0007FEA226C7FEA236C6AD04FEA1262D2EBB3
:100AB0001363C1BFD218414048404140B8BF5B42B8
:100AC000192B88BF704710F0004F40F4000020F051
:100AD0007F4018BF404211F0004F41F4000121F067
:100AE0007F4118BF494292EA030F3FD0A2F10102B1
:100AF00041FA03FC10EB0C00C3F1200301FA03F1EF
:100B000000F0004302D5494260EB4000B0F5000F11
:100B100013D3B0F1807F06D340084FEA310102F1D0
:100B20000102FE2A51D2B1F1004F40EBC25008BF82
:100B300020F0010040EA03007047490040EB00004C
:100B4000013A28BFB0F5000FEDD2B0FA80FCACF14D
:100B5000080CB2EB0C0200FA0CF0AABF00EBC2507A
:100B600052421843BCBFD0401843704792F0000F68
:100B700081F4000106BF80F400000132013BB5E7BB
:100B80004FEA41037FEA226C18BF7FEA236C21D031
:100B900092EA030F04D092F0000F08BF0846704796
:100BA00090EA010F1CBF0020704712F07F4F04D164
:100BB000400028BF40F00040704712F100723CBF77
:100BC00000F50000704700F0004343F0FE4040F4A1
:100BD000000070477FEA226216BF08467FEA23635F
:100BE0000146420206BF5FEA412390EA010F40F44A
:100BF000800070474FF0000304E000BF10F0004396
:100C000048BF40425FEA000C08BF704743F096437C
:100C100001464FF000001CE050EA010208BF704797
:100C20004FF000030AE000BF50EA010208BF70471E
:100C300011F0004302D5404261EB41015FEA010C33
:100C400002BF84460146002043F0B64308BFA3F12B
:100C50008053A3F50003BCFA8CF2083AA3EBC2530D
:100C600010DB01FA02FC634400FA02FCC2F120022C
:100C7000BCF1004F20FA02F243EB020008BF20F063
:100C80000100704702F1200201FA02FCC2F12002C9
:100C900050EA4C0021FA02F243EB020008BF20EABE
:100CA000DC7070474FF0FF0C1CEAD0521EBF1CEAEC
:100CB000D15392EA0C0F93EA0C0F6FD01A4480EADA
:100CC000010C400218BF5FEA41211ED04FF00063C3
:100CD00043EA501043EA5111A0FB01310CF00040EF
:100CE000B1F5000F3EBF490041EAD3715B0040EA15
:100CF000010062F17F02FD2A1DD8B3F1004F40EBE5
:100D0000C25008BF20F00100704790F0000F0CF0B7
:100D1000004C08BF49024CEA502040EA51207F3A7B
:100D2000C2BFD2F1FF0340EAC250704740F4000056
:100D30004FF00003013A5DDC12F1190FDCBF00F047
:100D400000407047C2F10002410021FA02F1C2F1F5
:100D5000200200FA02FC5FEA310040F1000053EA91
:100D60004C0308BF20EADC70704792F0000F00F0DF
:100D7000004C02BF400010F4000F013AF9D040EAE5
:100D80000C0093F0000F01F0004C02BF490011F479
:100D9000000F013BF9D041EA0C018FE70CEAD15377
:100DA00092EA0C0F18BF93EA0C0F0AD030F0004CF7
:100DB00018BF31F0004CD8D180EA010000F00040AB
:100DC000704790F0000F17BF90F0004F084691F069
:100DD000000F91F0004F14D092EA0C0F01D14202A3
:100DE0000FD193EA0C0F03D14B0218BF084608D16C
:100DF00080EA010000F0004040F0FE4040F40000B6
:100E0000704740F0FE4040F4400070474FF0FF0C48
:100E10001CEAD0521EBF1CEAD15392EA0C0F93EA8F
:100E20000C0F69D0A2EB030280EA010C49024FEAE1
:100E3000402037D04FF0805343EA111143EA10139A
:100E40000CF000408B4238BF5B0042F17D024FF452
:100E5000000C8B4224BF5B1A40EA0C00B3EB510F2D
:100E600024BFA3EB510340EA5C00B3EB910F24BF16
:100E7000A3EB910340EA9C00B3EBD10F24BFA3EB9B
:100E8000D10340EADC001B0118BF5FEA1C1CE0D163
:100E9000FD2A3FF650AF8B4240EBC25008BF20F016
:100EA000010070470CF0004C4CEA50207F32C2BF6A
:100EB000D2F1FF0340EAC250704740F400004FF007
:100EC0000003013A37E792F0000F00F0004C02BF38
:100ED000400010F4000F013AF9D040EA0C0093F002
:100EE000000F01F0004C02BF490011F4000F013B5C
:100EF000F9D041EA0C0195E70CEAD15392EA0C0FC4
:100F000008D142027FF47DAF93EA0C0F7FF470AFFB
:100F1000084676E793EA0C0F04D14B023FF44CAF3E
:100F200008466EE730F0004C18BF31F0004CCAD1D3
:100F300030F000427FF45CAF31F000437FF43CAF0F
:100F40005FE700BF4FF0FF3C06E000BF4FF0010C31
:100F500002E000BF4FF0010C4DF804CD4FEA400213
:100F60004FEA41037FEA226C18BF7FEA236C11D05D
:100F700001B052EA530C18BF90EA010F58BFB2EB10
:100F8000030088BFC81738BF6FEAE17018BF40F090
:100F9000010070477FEA226C02D15FEA402C05D144
:100FA0007FEA236CE4D15FEA412CE1D05DF8040BC9
:100FB000704700BF844608466146FFE70FB5FFF75C
:100FC000C9FF002848BF10F1000F0FBD4DF808ED14
:100FD000FFF7F4FF0CBF012000205DF808FB00BF05
:100FE0004DF808EDFFF7EAFF34BF012000205DF85F
:100FF00008FB00BF4DF808EDFFF7E0FF94BF0120AC
:1010000000205DF808FB00BF4DF808EDFFF7D2FFA8
:1010100094BF012000205DF808FB00BF4DF808EDEB
:10102000FFF7C8FF34BF012000205DF808FB00BFB8
:1010300042000ED2B2F1FE4F0BD34FF09E03B3EB42
:10104000126209D44FEA002343F0004323FA02F06E
:1010500070474FF00000704712F1610F01D142025A
:1010600002D14FF0FF3070474FF00000704700BFD3
:1010700080B586B000AF0346FB710D2200212548E4
:1010800005F04EFA0023FB75224BA5221A70214B66
:1010900040225A701F4AFB7993701E4B0822DA7067
:1010A00000233B6109E01B4A3B6913441A78FB7D2E
:1010B0001344FB753B6901333B613B690A2BF2DD4D
:1010C000144AFB7D1373144800F07AFE0023FB6082
:1010D0000AE0104AFB6813441B7819460F4800F0D9
:1010E0006FFEFB680133FB60FB680C2BF1DD0C48E5
:1010F00000F066FE64230D2206490A4802F000FC57
:101100000346002B0CBF01230023DBB2184618371F
:10111000BD4680BDF8010020E8860008FC86000876
:1011200004870008E806002080B588B000AF0346B9
:10113000FB719C220021594805F0F2F99C22002104
:10114000574805F0EDF9FA7913465B0013449B000C
:101150001344FB60FB689AB2C8235049514802F01F
:101160005AFC0346002B04D04F4800F029FE002310
:1011700090E04E4800F024FE0023FB611BE0474A4C
:10118000FB6913441B781946494800F019FEFB69B6
:10119000591C484BA3FB01239A0813465B001344D8
:1011A0009B001344CA1A002A02D1434800F008FEEB
:1011B000FB690133FB61FA69FB689A42DFD30023C4
:1011C000BB6162E0BA6913465B0013449B001344A1
:1011D000334A9818BA6913465B0013449B001344C2
:1011E0002E4A13440D22194605F027FA0023FB75F9
:1011F00000233B6110E02A49BA6913465B0013449F
:101200009B001344CA183B6913441A78FB7D1344AE
:10121000FB753B6901333B613B690B2BEBD92049E3
:10122000BA6913465B0013449B0013440B440C3310
:101230001B78FA7D9A4214D0B969204800F0C0FDAD
:10124000F97D1748BA6913465B0013449B001344A9
:1012500003440C331B781A46194800F0B1FD0023F3
:1012600018E0FB7D002B0DD10D49BA6913465B00D8
:1012700013449B0013440B441B78202B02D11148CC
:1012800000F09EFDBB690133BB61FB79BA699A42EC
:1012900098D3012318462037BD4680BDA402002004
:1012A00008020020E8060020088700081C870008C4
:1012B000FC8600084FECC44E048700082C87000809
:1012C0004C8700086C87000880B500AF9020FFF7BE
:1012D000CFFE0346002B00F081800120FFF724FFA2
:1012E0000346002B75D0404B1B7A1B023E4A527AB4
:1012F0001343A3F5EA43303B1846FFF77FFC034650
:101300003A491846FFF782FD034639491846FFF768
:101310005DFE0346002B04D0364800F051FD00234B
:1013200060E0314B9B7A1B022F4AD27A1343184656
:10133000FFF764FC03462D491846FFF767FD034697
:101340002D491846FFF76AFE0346002B04D02B48B0
:1013500000F036FD002345E0234B1B791B02224A97
:10136000527913431846FFF749FC03461F491846B4
:10137000FFF74CFD03461A46214B1A621A4B1B7AA3
:101380001B02194A527A13431846FFF737FC0346EB
:101390001C491846FFF77CFB034614491846FFF723
:1013A00035FD03461A46164B5A620F4B9B7A1B02B9
:1013B0000D4AD27A13431846FFF720FC03460B4927
:1013C0001846FFF723FD03461A460D4B9A62012388
:1013D00008E00D4800F0F4FC002303E00B4800F0A7
:1013E000EFFC0023184680BD0802002000002041C9
:1013F00000803BC5888700080000C842AC87000811
:10140000440300200060EA46CC870008EC8700080F
:1014100080B500AF9120FFF72BFE0346002B4ED086
:101420000120FFF781FE0346002B43D0274800F040
:10143000C7FC274B1B791B02254A527913431846D8
:10144000FFF7DCFB034623491846FFF7DFFC0346A2
:101450001A46214BDA621E4B9A791F4B83F83420CF
:101460001B4BDB791B021A4A127A13431846FFF70B
:10147000C5FB034617491846FFF7C8FC03461A4642
:10148000154B1A63124B5A7A134B83F83520124BC3
:10149000DB6A114A126B11461846FFF7F9FA034648
:1014A0001846FFF7C5FD0346DAB20B4B83F836202A
:1014B000012308E0094800F083FC002303E008480A
:1014C00000F07EFC0023184680BD00BF0C88000899
:1014D0000802002000007A44440300203C880008F1
:1014E0006888000880B500AF9220FFF7C1FD034671
:1014F000002B20D00120FFF717FE0346002B15D04C
:10150000104800F05DFC104B1B79A3F128020E4B34
:101510009B79283B1344DA0F13445B101846FFF7FE
:101520006DFB0346094A9363012308E0084800F075
:1015300047FC002303E0074800F042FC0023184664
:1015400080BD00BF948800080802002044030020EA
:10155000C4880008EC88000880B582B000AF9320F2
:10156000FFF786FD0346002B7ED00120FFF7DCFD50
:101570000346002B73D0404800F022FC3F4B1B7900
:10158000022B10D0022B13DC002B02D0012B05D034
:101590000EE03B4B002283F83C2009E0384B01224F
:1015A00083F83C2004E0364B022283F83C2000BF45
:1015B000324B5B79002B14BF01230023DAB2304B8E
:1015C00083F83D202D4B9B79002B14BF0123002372
:1015D000DAB22B4B83F83E20284BDA79284B83F87C
:1015E0003F20264B1B7A1A06244B5B7A1B041A43B6
:1015F000224B9B7A1B021343204AD27A134318468C
:10160000FFF7F8FA03467B601D4A7B6813641C4BA6
:1016100093F83C3019461B4800F0D2FB184B93F866
:101620003D301946184800F0CBFB154B93F83E307F
:101630001946164800F0C4FB114B93F83F30194689
:10164000134800F0BDFB0E4B1B6C1846FEF7ECFE7A
:1016500002460B460F4800F0B3FB012308E00E489A
:1016600000F0AEFB002303E00C4800F0A9FB0023D0
:1016700018460837BD4680BD1489000808020020BE
:10168000440300204C8900087489000890890008F0
:10169000B0890008C4890008EC8900081C8A000889
:1016A00080B500AF324800F08BFB9420FFF7E0FCE0
:1016B0000346002B55D00120FFF736FD0346002BD3
:1016C0004AD02C4800F07CFB2B4B1A792B4B83F82B
:1016D0004420294B5A79294B83F84520264B9B7986
:1016E000002B14BF01230023DAB2244B83F84620D9
:1016F000214BDB79002B14BF01230023DAB21F4BEF
:1017000083F847201C4B9A7A1C4B83F848201B4BCC
:1017100093F8443019461A4800F052FB174B93F8DF
:1017200045301946174800F04BFB144B93F84630F0
:101730001946154800F044FB104B93F84730194602
:10174000124800F03DFB0D4B93F848301946104805
:1017500000F036FB012308E00E4800F031FB0023C7
:1017600003E00D4800F02CFB0023184680BD00BFAD
:101770004C8A0008688A0008080200204403002000
:10178000908A0008AC8A0008D88A0008F48A000809
:10179000148B0008388B0008588B000890B583B074
:1017A00000AF4E4800F00CFB4D4B93F84430002B3B
:1017B00004D04B4B93F84430102B08D9484B93F886
:1017C00044301946474800F0FBFA002381E0952099
:1017D000FFF74EFC0346002B7AD00023FB71404BF1
:1017E00093F844300233404A82FB0312DB17D31ACA
:1017F0003B713B791846FFF797FC0346002B62D0FC
:101800003A4800F0DDFA0023BB7157E000237B71FA
:101810004CE0334B93F84430FA799A424AD2BA7981
:101820007B795B00591D324813465B0013449B00D3
:10183000134403440B441B781BB21B0219B2BA7940
:101840007B79033358002A4C13465B0013449B00FA
:101850001344234403441B781BB20B431BB27B800D
:10186000FB795A1CFA711C467B881846FFF7C2F9AF
:1018700002461B4904F112039B000B445A60FC7999
:101880007B881846FFF7B6F903461A491846FFF752
:10189000BDFA03461846FEF7C7FD02460B46214631
:1018A000154800F08DFA7B7901337B717B79022B2F
:1018B000AFD900E000BFBB790133BB71BA793B7986
:1018C0009A42A3D304E00D4800F07AFA002300E026
:1018D000012318460C37BD4690BD00BF788B000829
:1018E00044030020948B000856555555AC8B0008D6
:1018F0000802002000007A44D48B0008F88B00080E
:1019000080B582B000AF244B93F84530002B04D053
:10191000214B93F84530042B08D91F4B93F84530E1
:1019200019461E4800F04CFA002331E09620FFF7DC
:101930009FFB0346002B27D00120FFF7F5FB034652
:10194000002B1CD0164800F03BFA0023FB710EE080
:10195000FB790533134AD25CFB79283AD1B20E4A9F
:1019600013440A4683F80C21FB790133FB710A4BBF
:1019700093F84530FA799A42EAD3012308E00A48FD
:1019800000F01EFA002303E0084800F019FA0023D3
:1019900018460837BD4680BD440300201C8C000853
:1019A000448C000808020020748C00089C8C0008FD
:1019B00080B582B000AF3C4B93F84430002B04D08C
:1019C000394B93F84430102B08D9374B93F84430F7
:1019D0001946364800F0F4F9002361E09720FFF73C
:1019E00047FB0346002B57D00120FFF79DFB034622
:1019F000002B4CD02E4800F0E3F90023FB710023AC
:101A0000BB7100237B7134E07B790433294AD35CBA
:101A1000FB7000233B7124E0234B93F84430FA79A8
:101A20009A4222D2FA783B7942FA03F3DBB203F00E
:101A30000103BB70FB795A1CFA711946BB78002B65
:101A400014BF01230023DAB2174B0B4483F81C2187
:101A5000BB78002B02D0BB790133BB713B790133DA
:101A60003B713B79072BD7D900E000BF7B7901336D
:101A70007B717B79052BC7D9BB79002B14BF012360
:101A80000023DAB2084B83F84C21012308E00A480E
:101A900000F096F9002303E0084800F091F90023D4
:101AA00018460837BD4680BD44030020948B0008CB
:101AB000C48C000808020020F48C00081C8D00086B
:101AC00080B5BAB000AF354A3B461146E022184611
:101AD00004F0B3FD9820FFF7CBFA0346002B54D057
:101AE0000120FFF721FB0346002B49D02C4800F0D2
:101AF00067F92C4800F064F9002387F8E73039E0F3
:101B000097F8E7300433284AD35C87F8E5300023A0
:101B100087F8E63025E097F8E52097F8E63042FAB6
:101B200003F303F00103002B16D097F8E72097F892
:101B3000E630D20013449B00E8333B4453F8E83CC2
:101B4000C7F8E030D7F8E0301B78002B04D0D7F886
:101B5000E010164800F034F997F8E630013387F8C2
:101B6000E63097F8E630072BD5D997F8E730013300
:101B700087F8E73097F8E730062BC1D9012308E052
:101B80000B4800F01DF9002303E00A4800F018F9A3
:101B900000231846E837BD4680BD00BF54920008B8
:101BA000448D0008708D000808020020888D000810
:101BB000908D0008B48D000880B500AF5920FFF764
:101BC00057FA0346002B67D00120FFF7ADFA034612
:101BD000002B5CD0334800F0F3F8334B1B791B0229
:101BE000314A527913431846FFF708F803462F4A43
:101BF00013602D4B9B791B022B4AD2791343184655
:101C0000FEF7FCFF0346294A9360274B1B7A1B0211
:101C1000254A527A13431846FEF7F0FF0346234A3B
:101C20005360214B9B7A1B021F4AD27A13431846FA
:101C3000FEF7E4FF03461D4AD3601C4B1B681846A1
:101C4000FEF7F2FB02460B46194800F0B9F8174BB5
:101C50009B681846FEF7E8FB02460B46154800F065
:101C6000AFF8124B5B681846FEF7DEFB02460B46E8
:101C7000114800F0A5F80D4BDB681846FEF7D4FBC1
:101C800002460B460D4800F09BF8012308E00C4883
:101C900000F096F8002303E00A4800F091F80023D2
:101CA000184680BD34930008080200204403002039
:101CB0006093000888930008B0930008D893000848
:101CC000009400082494000880B500AF5A20FFF764
:101CD000CFF90346002B3FD00120FFF725FA03463A
:101CE000002B34D01F4800F06BF81F4B1B791B02F0
:101CF0001D4A527913431846FEF780FF03461B4ADC
:101D00001361194B9B791B02174AD279134318466A
:101D1000FEF774FF0346154A9361134B1B7A1B02AF
:101D2000114A527A13431846FEF768FF03460F4ADA
:101D300053610D4B9B7A1B020B4AD27A1343184610
:101D4000FEF75CFF0346094AD361012308E0084817
:101D500000F036F8002303E0064800F031F80023D5
:101D6000184680BD48940008080200204403002063
:101D7000749400089894000880B500AF024800F001
:101D80001FF800BF80BD00BF7095000880B400AF91
:101D9000034B032283F83C2000BFBD4680BC704744
:101DA0004403002080B483B000AF7860034A7B68AE
:101DB000136000BF0C37BD4680BC7047F4010020A3
:101DC0000FB480B5A2B000AF07F194033B60381D9B
:101DD0003B68D7F89020802104F094FBC7F884007A
:101DE000D7F88430002B12DBD7F884307F2B05D94D
:101DF000002387F883307F23C7F88430D7F88430F6
:101E00009AB2391D6423054801F07AFD00E000BF55
:101E10008837BD46BDE8804004B0704730070020D9
:101E200080B485B000AFF860B9607A60FB68064A9C
:101E30001A60BB68054A1A607B6880221A6000BF7E
:101E40001437BD4680BC704794040020E80400208D
:101E5000B0B58EB000AF00F0F7FC00F03DF800F038
:101E6000FFF800F07FF800F0A7F800F0CFF8154871
:101E7000FFF798FF144B07F11C041D460FCD0FC44C
:101E800095E8070084E8070007F11C0300211846C5
:101E900002F0B0FB03460D4A13600D4B3C461D4655
:101EA0000FCD0FC495E8070084E807003B460021EA
:101EB000184602F09FFB0346064A136002F093FBAC
:101EC00000BFFDE7791D000894950008C0070020B9
:101ED000B8950008C407002080B590B000AF07F1A6
:101EE000180328220021184604F01AFB3B1D00228B
:101EF0001A605A609A60DA601A610123BB614FF47C
:101F00008033FB6100233B620123BB6202237B63BE
:101F10004FF48033BB634FF4E013FB6307F1180306
:101F2000184601F08DF80346002B01D000F032FA7C
:101F30000F237B600223BB600023FB604FF48063B0
:101F40003B6100237B613B1D0221184601F0FAFA38
:101F50000346002B01D000F01DFA00BF4037BD46FC
:101F600080BD000080B500AF114B124A1A60104BC3
:101F70004FF416525A600E4B00229A600C4B00220E
:101F8000DA600B4B00221A61094B0C225A61084B94
:101F900000229A61064B0022DA61054801F060FCDC
:101FA0000346002B01D000F0F5F900BF80BD00BF53
:101FB000E80600200038014080B500AF114B124AFE
:101FC0001A60104B4FF4E1325A600E4B00229A60B7
:101FD0000C4B0022DA600B4B00221A61094B0C22D9
:101FE0005A61084B00229A61064B0022DA610548CB
:101FF00001F036FC0346002B01D000F0CBF900BF06
:1020000080BD00BF300700200044004080B500AF15
:10201000114B124A1A60104B4FF4E1325A600E4BCA
:1020200000229A600C4B0022DA600B4B00221A61EE
:10203000094B0C225A61084B00229A61064B002280
:10204000DA61054801F00CFC0346002B01D000F0DA
:10205000A1F900BF80BD00BF780700200048004004
:1020600080B588B000AF07F1100300221A605A60F3
:102070009A60DA60244B9B69234A43F01003936112
:10208000214B9B6903F01003FB60FB681E4B9B69AF
:102090001D4A43F0200393611B4B9B6903F020030F
:1020A000BB60BB68184B9B69174A43F004039361FC
:1020B000154B9B6903F004037B607B68124B9B69A3
:1020C000114A43F0080393610F4B9B6903F0080327
:1020D0003B603B6800224FF400510C4800F07EFF4B
:1020E0004FF400533B6101237B610023BB6102235A
:1020F000FB6107F110031946044800F0EBFD00BF37
:102100002037BD4680BD00BF0010024000100140D6
:1021100080B582B000AF78604FF47A7002F0B6FA02
:10212000FAE7000080B582B000AF78600D22002190
:10213000904804F0F5F99048FFF728FE8F4B1B7884
:102140000A2B00F20C8101A252F823F07921000839
:10215000E7210008032200081F2200083B22000894
:1021600057220008732200088F220008AB220008C3
:10217000E32200081B230008FFF7A6F80346002B04
:1021800010D07F48FFF71CFE7B4B012283F84D21C6
:102190007C4B00221A70794B1B780133DAB2774BF3
:1021A0001A70DEE07848FFF70BFE744B00221A70BD
:1021B000744B1B78092B06D8724B1B780133DAB2AB
:1021C000704B1A70CDE06C4B002283F84D216D4BA3
:1021D00000221A706D4B1B68002B00F0C2806B4B05
:1021E0001B689847BDE0FFF713F90346002B04D0A6
:1021F000624B1B780133DBB200E000235F4A1370AF
:10220000B4E0FFF76FF90346002B04D05B4B1B785B
:102210000133DBB200E00023584A1370A6E0FFF759
:102220009BF90346002B04D0544B1B780133DBB2DF
:1022300000E00023514A137098E0FFF731FA03469B
:10224000002B04D04D4B1B780133DBB200E00023A0
:102250004A4A13708AE0FFF7A1FA0346002B04D024
:10226000464B1B780133DBB200E00023434A137076
:102270007CE0FFF745FB0346002B04D03F4B1B7867
:102280000133DBB200E000233C4A13706EE0FFF73D
:102290008FFB0346002B04D0384B1B780133DBB295
:1022A00000E00023354A137060E0FFF709FC0346A5
:1022B000002B04D0314B1B780133DBB200E000234C
:1022C0002E4A1370324B1B78002B02D02B4B00226E
:1022D0001A702E4B1B68002B45D02C4B1B6898475F
:1022E00041E02B4B1B7883F00103DBB2002B0CD0B9
:1022F000FFF762FC0346002B04D0204B1B78013310
:10230000DBB200E000231D4A1370204B1B68002B3A
:102310002BD01E4B1B68984727E01D4B1B7883F082
:102320000103DBB2002B0CD0FFF7CEFC0346002BE1
:1023300004D0124B1B780133DBB200E000230F4ABC
:1023400013700E4B00221A70104B1B68002B02D02A
:102350000E4B1B6898470E4B01221A7006E000BF17
:1023600004E000BF02E000BF00E000BF962002F0E2
:102370008DF9E3E6F801002044030020410300202A
:10238000D495000840030020F8950008F4010020CF
:102390004203002080B500AF72B600BF0648FFF7C9
:1023A0000FFD4FF40051054800F030FE4FF4FA7075
:1023B00000F0ACFA00BFF4E71896000800100140E6
:1023C00080B584B000AF184B9B69174A43F00103F6
:1023D0009361154B9B6903F00103BB60BB68124B13
:1023E000DB69114A43F08053D3610F4BDB6903F083
:1023F00080537B607B6800220F216FF0010000F0AA
:1024000080FB0A4B5B68FB60FB6823F0E063FB60CA
:10241000FB6843F00073FB60044AFB68536000BF35
:102420001037BD4680BD00BF0010024000000140D3
:1024300080B58CB000AF786007F1200300221A60ED
:102440005A609A60DA607B681B685F4A93423AD1AF
:102450005E4B9B695D4A43F4804393615B4B9B6990
:1024600003F48043FB61FB69584B9B69574A43F077
:1024700004039361554B9B6903F00403BB61BB6983
:102480004FF400733B6202237B620323FB6207F17C
:10249000200319464E4800F01DFC4FF480633B6258
:1024A00000237B620023BB6207F1200319464848E2
:1024B00000F010FC00220521252000F022FB252041
:1024C00000F03BFB7CE07B681B68424A934238D1BA
:1024D0003E4BDB693D4A43F40033D3613B4BDB6940
:1024E00003F400337B617B69384B9B69374A43F0C7
:1024F00004039361354B9B6903F004033B613B6923
:1025000004233B6202237B620323FB6207F1200367
:1025100019462F4800F0DEFB08233B6200237B6254
:102520000023BB6207F120031946294800F0D2FBC3
:1025300000220521262000F0E4FA262000F0FDFA12
:102540003EE07B681B68244A934239D11F4BDB690C
:102550001E4A43F48023D3611C4BDB6903F48023C0
:10256000FB60FB68194B9B69184A43F008039361B1
:10257000164B9B6903F00803BB60BB684FF4806394
:102580003B6202237B620323FB6207F120031946AF
:10259000124800F09FFB4FF400633B6200237B6214
:1025A0000023BB6207F1200319460C4800F092FBA0
:1025B00000220521272000F0A4FA272000F0BDFA10
:1025C00000BF3037BD4680BD0038014000100240DA
:1025D000000801400044004000480040000C014059
:1025E00080B400AF00BFFDE780B400AF00BFFDE7DF
:1025F00080B400AF00BFFDE780B400AF00BFFDE7CF
:1026000080B400AF00BFFDE780B400AF00BFBD469F
:1026100080BC704780B500AF00F05CF902F0C0FDEF
:102620000346012B01D002F0AFFF00BF80BD0000C8
:1026300080B500AF024801F085FA00BF80BD00BF41
:10264000E806002080B500AF024801F07BFA00BF29
:1026500080BD00BF3007002080B500AF024801F008
:1026600071FA00BF80BD00BF7807002080B400AFC2
:1026700001231846BD4680BC704780B582B000AFCC
:102680007860396003F09EFF034616221A604FF00F
:10269000FF3318460837BD4680BD80B582B000AF15
:1026A00078604FF0FF317868FFF7E7FF00BFFDE784
:1026B00080B586B000AFF860B9607A6000237B61B6
:1026C0000AE0AFF300800146BB685A1CBA60CAB288
:1026D0001A707B6901337B617A697B689A42F0DB0F
:1026E0007B6818461837BD4680BD80B586B000AF00
:1026F000F860B9607A6000237B6109E0BB685A1C0E
:10270000BA601B781846AFF300807B6901337B61A8
:102710007A697B689A42F1DB7B6818461837BD46B8
:1027200080BD80B483B000AF78604FF0FF331846AF
:102730000C37BD4680BC704780B483B000AF786072
:1027400039603B684FF400525A60002318460C373A
:10275000BD4680BC704780B483B000AF7860012371
:1027600018460C37BD4680BC704780B485B000AFBA
:10277000F860B9607A60002318461437BD4680BC03
:102780007047000080B586B000AF7860144A154BE2
:10279000D31A7B617B693B61134B1B68002B02D111
:1027A000114B124A1A60104B1A687B6813443A693D
:1027B0009A4207D203F006FF03460C221A604FF03C
:1027C000FF3309E0084B1B68FB60074B1A687B6806
:1027D0001344054A1360FB6818461837BD4680BD90
:1027E0000050002000040000C807002070160020E0
:1027F00080B400AF00BFBD4680BC7047FFF7F8FF54
:102800000B480C490C4A002302E0D458C45004334E
:10281000C4188C42F9D3094A094C002301E0136023
:102820000432A242FBD303F0D3FEFFF711FB704743
:1028300000000020D8010020E4990008D801002001
:1028400070160020FEE7000080B500AF084B1B6843
:10285000074A43F010031360032000F047F90F20EC
:1028600000F008F8FFF7ACFD0023184680BD00BF5C
:102870000020024080B582B000AF7860124B1A6829
:10288000124B1B7819464FF47A73B3FBF1F3B2FB8A
:10289000F3F3184600F05FF90346002B01D0012343
:1028A0000EE07B680F2B0AD8002279684FF0FF30CA
:1028B00000F027F9064A7B681360002300E001233B
:1028C00018460837BD4680BD0000002008000020E3
:1028D0000400002080B400AF054B1B781A46054B5E
:1028E0001B681344034A136000BFBD4680BC704799
:1028F00008000020CC07002080B400AF024B1B680A
:102900001846BD4680BC7047CC07002080B584B017
:1029100000AF7860FFF7F0FFB8607B68FB60FB6892
:10292000B3F1FF3F05D00A4B1B781A46FB681344EE
:10293000FB6000BFFFF7E0FF0246BB68D31AFA68EE
:102940009A42F7D800BF00BF1037BD4680BD00BF18
:102950000800002080B485B000AF78607B6803F089
:102960000703FB600C4BDB68BB60BA684FF6FF03E4
:102970001340BB60FB681A02BB68134343F0BF639C
:1029800043F40033BB60044ABB68D36000BF143714
:10299000BD4680BC704700BF00ED00E080B400AFD2
:1029A000044BDB681B0A03F007031846BD4680BCD6
:1029B000704700BF00ED00E080B483B000AF034675
:1029C000FB7197F90730002B0BDBFB7903F01F023B
:1029D000064997F907305B09012000FA02F241F835
:1029E000232000BF0C37BD4680BC704700E100E0EB
:1029F00080B483B000AF03463960FB7197F90730AC
:102A0000002B0ADB3B68DAB20C4997F90730120158
:102A1000D2B20B4483F800230AE03B68DAB20849DB
:102A2000FB7903F00F03043B1201D2B20B441A7678
:102A300000BF0C37BD4680BC704700BF00E100E01E
:102A400000ED00E080B489B000AFF860B9607A6052
:102A5000FB6803F00703FB61FB69C3F10703042B69
:102A600028BF0423BB61FB690433062B02D9FB6931
:102A7000033B00E000237B614FF0FF32BB6902FAA9
:102A800003F3DA43BB681A407B699A404FF0FF3189
:102A90007B6901FA03F3D9437B680B401343184663
:102AA0002437BD4680BC704780B582B000AF7860E7
:102AB0007B68013BB3F1807F01D301230FE00A4A19
:102AC0007B68013B53600F214FF0FF30FFF790FF11
:102AD000054B00229A60044B07221A600023184617
:102AE0000837BD4680BD00BF10E000E080B582B071
:102AF00000AF78607868FFF72DFF00BF0837BD464C
:102B000080BD80B586B000AF0346B9607A60FB73C4
:102B100000237B61FFF742FF78617A68B9687869C2
:102B2000FFF790FF024697F90F3011461846FFF75E
:102B30005FFF00BF1837BD4680BD80B582B000AFD3
:102B40000346FB7197F907301846FFF735FF00BFC2
:102B50000837BD4680BD80B582B000AF7860786828
:102B6000FFF7A2FF034618460837BD4680BD80B474
:102B700085B000AF78600023FB737B6893F8213049
:102B8000DBB2022B08D07B6804229A637B680022A8
:102B900083F82020012320E07B681B681A687B688B
:102BA0001B6822F00E021A607B681B681A687B683B
:102BB0001B6822F001021A607B681A6C7B68DB6B71
:102BC000012101FA02F25A607B68012283F8212078
:102BD0007B68002283F82020FB7B18461437BD4613
:102BE00080BC704780B584B000AF78600023FB7371
:102BF0007B6893F82130DBB2022B05D07B6804227E
:102C00009A630123FB7351E07B681B681A687B6839
:102C10001B6822F00E021A607B681B681A687B68CA
:102C20001B6822F001021A607B681B68224A9342EB
:102C300029D07B681B68214A934222D07B681B689D
:102C40001F4A93421AD07B681B681E4A934212D0D7
:102C50007B681B681C4A93420AD07B681B681B4A2E
:102C6000934202D14FF480130EE04FF080730BE0DB
:102C70004FF4803308E04FF4805305E04FF4807345
:102C800002E0102300E00123114A53607B68012217
:102C900083F821207B68002283F820207B685B6B0F
:102CA000002B03D07B685B6B78689847FB7B1846EA
:102CB0001037BD4680BD00BF080002401C00024026
:102CC0003000024044000240580002406C000240C4
:102CD0000000024080B48BB000AF78603960002300
:102CE0007B6200233B6269E101227B6A02FA03F303
:102CF000FB613B681B68FA691340BB61BA69FB69F9
:102D00009A4240F058813B685B689A4A93425ED091
:102D1000984A934275D8984A934258D0964A93421B
:102D20006FD8964A934252D0944A934269D8944AB3
:102D300093424CD0924A934263D8924A934246D0EF
:102D4000904A93425DD8122B2AD8122B59D801A24F
:102D500052F823F0CF2D0008A92D0008BB2D000844
:102D6000FD2D0008032E0008032E0008032E000886
:102D7000032E0008032E0008032E0008032E00086F
:102D8000032E0008032E0008032E0008032E00085F
:102D9000032E0008032E0008B12D0008C52D0008E1
:102DA000794A934213D02CE03B68DB683B6229E010
:102DB0003B68DB6804333B6224E03B68DB68083334
:102DC0003B621FE03B68DB680C333B621AE03B6808
:102DD0009B68002B02D104233B6213E03B689B6895
:102DE000012B05D108233B627B68FA691A6109E06F
:102DF00008233B627B68FA695A6103E000233B6267
:102E000000E000BFBB69FF2B01D87B6801E07B6855
:102E100004337B61BB69FF2B02D87B6A9B0002E015
:102E20007B6A083B9B003B617B691A680F213B6909
:102E300001FA03F3DB431A40396A3B6901FA03F3F1
:102E40001A437B691A603B685B6803F08053002B70
:102E500000F0B1804D4B9B694C4A43F001039361F4
:102E60004A4B9B6903F00103BB60BB68484A7B6A1D
:102E70009B08023352F82330FB607B6A03F00303A4
:102E80009B000F2202FA03F3DB43FA681340FB6056
:102E90007B68404A934213D07B683F4A93420DD0EF
:102EA0007B683E4A934207D07B683D4A934201D1FA
:102EB000032306E0042304E0022302E0012300E0F0
:102EC00000237A6A02F0030292009340FA681343E7
:102ED000FB602F497B6A9B080233FA6841F8232084
:102EE0003B685B6803F48013002B06D02D4B9A6877
:102EF0002C49BB6913438B6006E02A4B9A68BB6977
:102F0000DB43284913408B603B685B6803F4001384
:102F1000002B06D0234BDA682249BB691343CB60F0
:102F200006E0204BDA68BB69DB431E491340CB60E7
:102F30003B685B6803F40033002B06D0194B5A68DA
:102F40001849BB6913434B6006E0164B5A68BB69CE
:102F5000DB43144913404B603B685B6803F48033E8
:102F6000002B21D00F4B1A680E49BB6913430B602D
:102F700021E000BF000032100000311000002210DC
:102F8000000021100000121000001110001002407B
:102F90000000014000080140000C01400010014009
:102FA00000140140000401400B4B1A68BB69DB436D
:102FB000094913400B607B6A01337B623B681A68E6
:102FC0007B6A22FA03F3002B7FF48EAE00BF00BFB2
:102FD0002C37BD4680BC70470004014080B483B0EC
:102FE00000AF78600B467B8013467B707B78002BAC
:102FF00003D07A887B681A6103E07B881A047B68B7
:103000001A6100BF0C37BD4680BC704780B485B0E4
:1030100000AF78600B467B807B68DB68FB607A885A
:10302000FB6813401A04FB68D9437B880B401A43A2
:103030007B681A6100BF1437BD4680BC7047000032
:1030400080B586B000AF78607B68002B01D101238A
:1030500072E27B681B6803F00103002B00F087809D
:10306000924B5B6803F00C03042B0CD08F4B5B6816
:1030700003F00C03082B12D18C4B5B6803F48033F4
:10308000B3F5803F0BD1894B1B6803F40033002B51
:103090006CD07B685B68002B68D101234CE27B68B5
:1030A0005B68B3F5803F06D1804B1B687F4A43F4D1
:1030B000803313602EE07B685B68002B0CD17B4B68
:1030C0001B687A4A23F480331360784B1B68774A75
:1030D00023F4802313601DE07B685B68B3F5A02FA9
:1030E0000CD1724B1B68714A43F4802313606F4B01
:1030F0001B686E4A43F4803313600BE06B4B1B6814
:103100006A4A23F480331360684B1B68674A23F4D0
:10311000802313607B685B68002B13D0FFF7ECFB08
:10312000386108E0FFF7E8FB02463B69D31A642BDD
:1031300001D9032300E25D4B1B6803F40033002B2D
:10314000F0D014E0FFF7D8FB386108E0FFF7D4FBBC
:1031500002463B69D31A642B01D90323ECE1534B9C
:103160001B6803F40033002BF0D100E000BF7B6844
:103170001B6803F00203002B63D04C4B5B6803F029
:103180000C03002B0BD0494B5B6803F00C03082B9E
:103190001CD1464B5B6803F48033002B16D1434BA4
:1031A0001B6803F00203002B05D07B681B69012B11
:1031B00001D00123C0E13D4B1B6823F0F8027B687E
:1031C0005B69DB00394913430B603AE07B681B699C
:1031D000002B20D0364B01221A60FFF78DFB38619F
:1031E00008E0FFF789FB02463B69D31A022B01D99D
:1031F0000323A1E12D4B1B6803F00203002BF0D049
:103200002A4B1B6823F0F8027B685B69DB002749C7
:1032100013430B6015E0264B00221A60FFF76CFB8E
:10322000386108E0FFF768FB02463B69D31A022BBE
:1032300001D9032380E11D4B1B6803F00203002B1F
:10324000F0D17B681B6803F00803002B3AD07B6841
:103250009B69002B19D0174B01221A60FFF74CFB1A
:10326000386108E0FFF748FB02463B69D31A022B9E
:1032700001D9032360E10D4B5B6A03F00203002BCD
:10328000F0D0012000F0CEFA1CE00A4B00221A60B8
:10329000FFF732FB38610FE0FFF72EFB02463B6978
:1032A000D31A022B08D9032346E100BF00100240C5
:1032B0000000424280044242924B5B6A03F00203E8
:1032C000002BE9D17B681B6803F00403002B00F09E
:1032D000A6800023FB758B4BDB6903F08053002B2A
:1032E0000DD1884BDB69874A43F08053D361854B0E
:1032F000DB6903F08053BB60BB680123FB75824B25
:103300001B6803F48073002B18D17F4B1B687E4A27
:1033100043F480731360FFF7EFFA386108E0FFF7BA
:10332000EBFA02463B69D31A642B01D9032303E16C
:10333000754B1B6803F48073002BF0D07B68DB684F
:10334000012B06D16F4B1B6A6E4A43F001031362D7
:103350002DE07B68DB68002B0CD16A4B1B6A694A45
:1033600023F001031362674B1B6A664A23F00403D0
:1033700013621CE07B68DB68052B0CD1614B1B6A78
:10338000604A43F0040313625E4B1B6A5D4A43F0DC
:10339000010313620BE05B4B1B6A5A4A23F00103E3
:1033A0001362584B1B6A574A23F0040313627B686D
:1033B000DB68002B15D0FFF79FFA38610AE0FFF7B2
:1033C0009BFA02463B69D31A41F28832934201D9F3
:1033D0000323B1E04B4B1B6A03F00203002BEED03A
:1033E00014E0FFF789FA38610AE0FFF785FA024630
:1033F0003B69D31A41F28832934201D903239BE0FF
:10340000404B1B6A03F00203002BEED1FB7D012B26
:1034100005D13C4BDB693B4A23F08053D3617B6889
:10342000DB69002B00F08780364B5B6803F00C03F0
:10343000082B61D07B68DB69022B46D1334B00221D
:103440001A60FFF759FA386108E0FFF755FA0246AB
:103450003B69D31A022B01D903236DE0294B1B686A
:1034600003F00073002BF0D17B681B6AB3F5803F3B
:1034700008D1244B5B6823F400327B689B682149A8
:1034800013434B601F4B5B6823F474127B68196A0B
:103490007B685B6A0B431B4913434B601B4B012248
:1034A0001A60FFF729FA386108E0FFF725FA0246AB
:1034B0003B69D31A022B01D903233DE0114B1B6852
:1034C00003F00073002BF0D035E0104B00221A609F
:1034D000FFF712FA386108E0FFF70EFA02463B697F
:1034E000D31A022B01D9032326E0064B1B6803F0F5
:1034F0000073002BF0D11EE07B68DB69012B07D144
:10350000012319E0001002400070004060004242B8
:103510000B4B5B68FB60FB6803F480327B681B6AC3
:103520009A4206D1FB6803F470127B685B6A9A4288
:1035300001D0012300E0002318461837BD4680BDA6
:103540000010024080B584B000AF786039607B68BD
:10355000002B01D10123D0E06A4B1B6803F0070365
:103560003A689A4210D9674B1B6823F007026549F5
:103570003B6813430B60634B1B6803F007033A6817
:103580009A4201D00123B8E07B681B6803F0020374
:10359000002B20D07B681B6803F00403002B05D0B0
:1035A000594B5B68584A43F4E06353607B681B687F
:1035B00003F00803002B05D0534B5B68524A43F4D9
:1035C00060535360504B5B6823F0F0027B689B684C
:1035D0004D4913434B607B681B6803F00103002BCC
:1035E00040D07B685B68012B07D1474B1B6803F415
:1035F0000033002B15D101237FE07B685B68022B31
:1036000007D1414B1B6803F00073002B09D1012344
:1036100073E03D4B1B6803F00203002B01D1012333
:103620006BE0394B5B6823F003027B685B683649CB
:1036300013434B60FFF760F9F8600AE0FFF75CF9AD
:103640000246FB68D31A41F28832934201D9032320
:1036500053E02D4B5B6803F00C027B685B689B00BA
:103660009A42EBD1274B1B6803F007033A689A4252
:1036700010D2244B1B6823F0070222493B681343F6
:103680000B60204B1B6803F007033A689A4201D095
:10369000012332E07B681B6803F00403002B08D091
:1036A000194B5B6823F4E0627B68DB6816491343BF
:1036B0004B607B681B6803F00803002B09D0124B9A
:1036C0005B6823F460527B681B69DB000E4913437F
:1036D0004B6000F021F802460B4B5B681B0903F0BE
:1036E0000F030A49CB5C22FA03F3094A1360094B22
:1036F0001B681846FFF7BEF8002318461037BD4672
:1037000080BD00BF00200240001002403896000833
:10371000000000200400002080B487B000AF002328
:10372000FB600023BB6000237B6100237B600023E0
:103730003B611E4B5B68FB60FB6803F00C03042BD2
:1037400002D0082B03D027E0194B3B6127E0FB6830
:103750009B0C03F00F03174AD35C7B60FB6803F4F8
:103760008033002B10D0114B5B685B0C03F001031E
:10377000114AD35CBB607B680D4A03FB02F2BB6855
:10378000B2FBF3F37B6104E07B680C4A02FB03F3BA
:103790007B617B693B6102E0054B3B6100BF3B699C
:1037A00018461C37BD4680BC704700BF0010024061
:1037B00000127A00509600086096000800093D004B
:1037C00080B400AF024B1B681846BD4680BC7047F2
:1037D0000000002080B500AFFFF7F2FF0246054B66
:1037E0005B681B0A03F007030349CB5C22FA03F36F
:1037F000184680BD001002404896000880B500AF12
:10380000FFF7DEFF0246054B5B68DB0A03F00703A8
:103810000349CB5C22FA03F3184680BD0010024036
:103820004896000880B485B000AF78600A4B1B68EA
:103830000A4AA2FB03235B0A7A6802FB03F3FB60DC
:1038400000BFFB685A1EFA60002BF9D100BF00BF11
:103850001437BD4680BC704700000020D34D621075
:1038600080B582B000AF78607B68002B01D1012366
:1038700042E07B6893F84130DBB2002B06D17B68D5
:10388000002283F840207868FEF7D2FD7B6824226E
:1038900083F841207B681B68DA687B681B6822F428
:1038A0000052DA60786800F0F9FD7B681B681A69DD
:1038B0007B681B6822F490421A617B681B685A6916
:1038C0007B681B6822F02A025A617B681B68DA68F1
:1038D0007B681B6842F40052DA607B6800225A64FD
:1038E0007B68202283F841207B68202283F84220D5
:1038F0007B6800225A63002318460837BD4680BD06
:1039000080B58AB002AFF860B9603B601346FB80B7
:1039100000237B61FB6893F84130DBB2202B75D12B
:10392000BB68002B02D0FB88002B01D101236EE085
:10393000FB6800225A64FB68212283F84120FEF7CD
:10394000DBFF7861FB68FA889A84FB68FA88DA847E
:10395000FB689B68B3F5805F08D1FB681B69002B8F
:1039600004D10023FB61BB68BB6103E0BB68FB6162
:103970000023BB612EE03B6800937B69002280211D
:10398000F86800F097FB0346002B05D0FB68202267
:1039900083F8412003233AE0FB69002B0BD1BB697C
:1039A0001B881A46FB681B68C2F308025A60BB6991
:1039B0000233BB6107E0FB691A78FB681B685A6039
:1039C000FB690133FB61FB68DB8C9BB2013B9AB264
:1039D000FB68DA84FB68DB8C9BB2002BCBD13B68A5
:1039E00000937B6900224021F86800F063FB0346E6
:1039F000002B05D0FB68202283F84120032306E03A
:103A0000FB68202283F84120002300E002231846AF
:103A10002037BD4680BD80B58AB002AFF860B9607E
:103A20003B601346FB8000237B61FB6893F84230C8
:103A3000DBB2202B40F08180BB68002B02D0FB88DA
:103A4000002B01D1012379E0FB6800225A64FB6856
:103A5000222283F84220FB6800221A63FEF74CFF03
:103A60007861FB68FA889A85FB68FA88DA85FB68D2
:103A70009B68B3F5805F08D1FB681B69002B04D1FC
:103A80000023FB61BB68BB6103E0BB68FB610023F3
:103A9000BB6147E03B6800937B6900222021F86806
:103AA00000F008FB0346002B05D0FB68202283F8BA
:103AB0004220032342E0FB69002B0CD1FB681B680A
:103AC0005B689BB2C3F308039AB2BB691A80BB69F7
:103AD0000233BB611FE0FB689B68B3F5805F07D0D2
:103AE000FB689B68002B0AD1FB681B69002B06D181
:103AF000FB681B685B68DAB2FB691A7008E0FB6858
:103B00001B685B68DBB203F07F03DAB2FB691A70F3
:103B1000FB690133FB61FB68DB8D9BB2013B9AB211
:103B2000FB68DA85FB68DB8D9BB2002BB2D1FB68AA
:103B3000202283F84220002300E002231846203789
:103B4000BD4680BD80B5BAB000AF78607B681B68A9
:103B50001B68C7F8E4307B681B68DB68C7F8E03097
:103B60007B681B685B69C7F8DC300023C7F8D83076
:103B70000023C7F8D430D7F8E43003F00F03C7F8B8
:103B8000D830D7F8D830002B0FD1D7F8E43003F075
:103B90002003002B09D0D7F8E03003F02003002BDE
:103BA00003D0786800F0BCFB5BE2D7F8D830002B7C
:103BB00000F0DE80D7F8DC3003F00103002B06D1E3
:103BC000D7F8E03003F49073002B00F0D180D7F8E1
:103BD000E43003F00103002B0BD0D7F8E03003F4FE
:103BE0008073002B05D07B685B6C43F001027B681F
:103BF0005A64D7F8E43003F00403002B0BD0D7F855
:103C0000DC3003F00103002B05D07B685B6C43F0D4
:103C100002027B685A64D7F8E43003F00203002BF9
:103C20000BD0D7F8DC3003F00103002B05D07B6804
:103C30005B6C43F004027B685A64D7F8E43003F00D
:103C40000803002B11D0D7F8E03003F02003002B3D
:103C500005D1D7F8DC3003F00103002B05D07B68D9
:103C60005B6C43F008027B685A647B685B6C002BDA
:103C700000F0F281D7F8E43003F02003002B08D0E5
:103C8000D7F8E03003F02003002B02D0786800F072
:103C900047FB7B681B685B6903F04003002B14BF84
:103CA00001230023DBB2C7F8D4307B685B6C03F0E0
:103CB0000803002B03D1D7F8D430002B4FD07868FD
:103CC00000F051FA7B681B685B6903F04003002B2E
:103CD00041D07B681B681433C7F89C30D7F89C3000
:103CE00053E8003FC7F89830D7F8983023F04003E6
:103CF000C7F8D0307B681B681433D7F8D020C7F8DA
:103D0000A820C7F8A430D7F8A410D7F8A82041E815
:103D10000023C7F8A030D7F8A030002BD9D17B689A
:103D2000DB6B002B13D07B68DB6B7E4A5A637B68AE
:103D3000DB6B1846FEF756FF0346002B16D07B6858
:103D4000DB6B5B6B7A68D26B104698470EE0786845
:103D500000F09CF90AE0786800F098F906E07868CD
:103D600000F094F97B6800225A6475E100BF73E1AA
:103D70007B681B6B012B40F04F81D7F8E43003F0D8
:103D80001003002B00F04881D7F8E03003F0100357
:103D9000002B00F041810023BB607B681B681B681F
:103DA000BB607B681B685B68BB60BB687B681B682B
:103DB0005B6903F04003002B00F0B6807B68DB6B8F
:103DC0001B685B68A7F8BE30B7F8BE30002B00F068
:103DD00045817B689B8DB7F8BE209A4280F03E817A
:103DE0007B68B7F8BE20DA857B68DB6B9B69202B8C
:103DF00000F088807B681B680C33C7F88830D7F8E0
:103E0000883053E8003FC7F88430D7F8843023F473
:103E10008073C7F8B8307B681B680C33D7F8B820BC
:103E2000C7F89420C7F89030D7F89010D7F89420AE
:103E300041E80023C7F88C30D7F88C30002BD9D15B
:103E40007B681B6814337B677B6F53E8003F3B67DD
:103E50003B6F23F00103C7F8B4307B681B68143351
:103E6000D7F8B420C7F88020FB67F96FD7F8802017
:103E700041E80023BB67BB6F002BE1D17B681B6867
:103E800014333B663B6E53E8003FFB65FB6D23F04C
:103E90004003C7F8B0307B681B681433D7F8B020F4
:103EA000FA66BB66B96EFA6E41E800237B667B6EEC
:103EB000002BE3D17B68202283F842207B6800221C
:103EC0001A637B681B680C33FB64FB6C53E8003F90
:103ED000BB64BB6C23F01003C7F8AC307B681B6875
:103EE0000C33D7F8AC20BA657B65796DBA6D41E8C3
:103EF00000233B653B6D002BE3D17B68DB6B1846F1
:103F0000FEF735FE7B6802225A637B689A8D7B68D8
:103F1000DB8D9BB2D31A9BB21946786800F0BFF8CC
:103F20009CE000BF2B4200087B689A8D7B68DB8D8C
:103F30009BB2D31AA7F8CE307B68DB8D9BB2002BE7
:103F400000F08E80B7F8CE30002B00F089807B68BF
:103F50001B680C33BB63BB6B53E8003F7B637B6B1D
:103F600023F49073C7F8C8307B681B680C33D7F80C
:103F7000C8207A643B64396C7A6C41E80023FB63A7
:103F8000FB6B002BE3D17B681B6814337B627B6A7D
:103F900053E8003F3B623B6A23F00103C7F8C4309B
:103FA0007B681B681433D7F8C4203A63FB62F96A54
:103FB0003A6B41E80023BB62BB6A002BE3D17B680C
:103FC000202283F842207B6800221A637B681B68EA
:103FD0000C333B613B6953E8003FFB60FB6823F017
:103FE0001003C7F8C0307B681B680C33D7F8C020BB
:103FF000FA61BB61B969FA6941E800237B617B69B9
:10400000002BE3D17B6802225A63B7F8CE30194601
:10401000786800F044F823E0D7F8E43003F0800338
:10402000002B09D0D7F8E03003F08003002B03D039
:10403000786800F00EF914E0D7F8E43003F040039C
:10404000002B0ED0D7F8E03003F04003002B08D04F
:10405000786800F04DF904E000BF02E000BF00E026
:1040600000BFE837BD4680BD80B483B000AF786044
:1040700000BF0C37BD4680BC704780B483B000AF32
:10408000786000BF0C37BD4680BC704780B483B0F9
:1040900000AF786000BF0C37BD4680BC704780B46D
:1040A00083B000AF78600B467B8000BF0C37BD4605
:1040B00080BC704780B586B000AFF860B9603B60E7
:1040C0001346FB713BE03B6AB3F1FF3F37D0FEF78D
:1040D00013FC02463B68D31A3A6A9A4202D33B6AFF
:1040E000002B01D103233AE0FB681B68DB6803F077
:1040F0000403002B23D0BB68802B20D0BB68402B4F
:104100001DD0FB681B681B6803F00803082B16D141
:1041100000237B61FB681B681B687B61FB681B6875
:104120005B687B617B69F86800F01DF8FB6808221A
:104130005A64FB68002283F8402001230FE0FB68EB
:104140001B681A68BB681340BA689A420CBF012307
:104150000023DBB21A46FB799A42B4D000231846FA
:104160001837BD4680BD80B495B000AF78607B68DD
:104170001B680C337B637B6B53E8003F3B633B6BFB
:1041800023F49073FB647B681B680C33FA6C3A640D
:10419000FB63F96B3A6C41E80023BB63BB6B002BFC
:1041A000E5D17B681B6814333B623B6A53E8003FF0
:1041B000FB61FB6923F00103BB647B681B6814335C
:1041C000BA6CFA62BB62B96AFA6A41E800237B62A0
:1041D0007B6A002BE5D17B681B6B012B19D17B68B7
:1041E0001B680C33FB60FB6853E8003FBB60BB6897
:1041F00023F010037B647B681B680C337A6CBA6114
:104200007B617969BA6941E800233B613B69002B16
:10421000E5D17B68202283F842207B6800221A6364
:1042200000BF5437BD4680BC704780B584B000AF36
:1042300078607B685B6AFB60FB680022DA85FB685C
:104240000022DA84F868FFF721FF00BF1037BD466F
:1042500080BD80B485B000AF78607B6893F8413052
:10426000DBB2212B3ED17B689B68B3F5805F14D114
:104270007B681B69002B10D17B681B6AFB60FB68A5
:104280001B881A467B681B68C2F308025A607B6869
:104290001B6A9A1C7B681A6208E07B681B6A591CBF
:1042A0007A6811621A787B681B685A607B68DB8CBD
:1042B0009BB2013B9BB27A681946D184002B0FD187
:1042C0007B681B68DA687B681B6822F08002DA6012
:1042D0007B681B68DA687B681B6842F04002DA6022
:1042E000002300E0022318461437BD4680BC704707
:1042F00080B582B000AF78607B681B68DA687B6845
:104300001B6822F04002DA607B68202283F841209B
:104310007868FFF7A9FE002318460837BD4680BD20
:1043200080B58CB000AF78607B6893F84230DBB228
:10433000222B40F0AE807B689B68B3F5805F17D17D
:104340007B681B69002B13D10023FB627B689B6A8F
:10435000BB627B681B685B689BB2C3F308039AB2BD
:10436000BB6A1A807B689B6A9A1C7B689A6226E00B
:104370007B689B6AFB620023BB627B689B68B3F52A
:10438000805F07D07B689B68002B0AD17B681B6924
:10439000002B06D17B681B685B68DAB2FB6A1A7077
:1043A00008E07B681B685B68DBB203F07F03DAB26E
:1043B000FB6A1A707B689B6A5A1C7B689A627B68EE
:1043C000DB8D9BB2013B9BB27A681946D185002BED
:1043D0005DD17B681B68DA687B681B6822F020026D
:1043E000DA607B681B68DA687B681B6822F480727D
:1043F000DA607B681B685A697B681B6822F00102DF
:104400005A617B68202283F842207B6800225A632D
:104410007B681B6B012B35D17B6800221A637B689C
:104420001B680C337B617B6953E8003F3B613B6950
:1044300023F010037B627B681B680C337A6A3A6254
:10444000FB61F9693A6A41E80023BB61BB69002B53
:10445000E5D17B681B681B6803F01003102B0AD1A1
:104460000023FB607B681B681B68FB607B681B6824
:104470005B68FB60FB687B689B8D19467868FFF77B
:104480000EFE02E07868FFF7F8FD002302E000234B
:1044900000E0022318463037BD4680BD80B584B0A9
:1044A00000AF78607B681B681B6923F440517B6810
:1044B000DA687B681B680A431A617B689A687B68C4
:1044C0001B691A437B685B691343BB607B681B688D
:1044D000DB6823F4B05323F00C037A681268B968E0
:1044E0000B43D3607B681B685B6923F440717B6876
:1044F0009A697B681B680A435A617B681B682C4A6F
:10450000934203D1FFF77AF9F86002E0FFF762F90E
:10451000F860FA6813469B0013449A001A447B68BB
:104520005B689B00B2FBF3F3224AA2FB03235B0907
:104530001901FA6813469B0013449A001A447B68D9
:104540005B689B00B2FBF3F21A4BA3FB02035B090F
:10455000642000FB03F3D31A1B013233154AA2FB7C
:1045600003235B0903F0F0031944FA6813469B0028
:1045700013449A001A447B685B689B00B2FBF3F219
:104580000C4BA3FB02035B09642000FB03F3D31A6B
:104590001B013233074AA2FB03235B0903F00F021E
:1045A0007B681B680A449A6000BF1037BD4680BD17
:1045B000003801401F85EB5180B485B000AF034641
:1045C000FB800023FB60B7F90630842B05D0B7F9D8
:1045D0000620FB6813440333FB60FB68184614375E
:1045E000BD4680BC704780B500AF00F0DFFA002305
:1045F000184680BDF0B589B004AF786039607B683B
:104600005B69002B20D07B689B69002B1CD07B68EA
:104610005C687B681D687B681E697B68B3F908303D
:104620001846FFF7C9FF01467B685B697A689269A3
:104630000292019300913B6832462946204600F0E1
:10464000E8F80346FB601CE07B685C687B681D68DB
:104650007B681B699EB27B68B3F908301846FFF788
:10466000ABFF024607F10C03019300923B68324610
:104670002946204600F02DF90346012B01D00023E6
:1046800000E0FB6818461437BD46F0BD80B584B025
:1046900000AF78607B68FB60FB68002B01D0FB6893
:1046A00000E00123184600F04BFA002318461037AB
:1046B000BD4680BD80B483B000AF78607B6803F1F5
:1046C00008027B685A607B684FF0FF329A607B6813
:1046D00003F108027B68DA607B6803F108027B68FB
:1046E0001A617B6800221A6000BF0C37BD4680BC8F
:1046F000704780B483B000AF78607B6800221A6195
:1047000000BF0C37BD4680BC704780B485B000AF99
:10471000786039607B685B68FB603B68FA685A6068
:10472000FB689A683B689A60FB689B683A685A60C5
:10473000FB683A689A603B687A681A617B681B6814
:104740005A1C7B681A6000BF1437BD4680BC704796
:1047500080B485B000AF786039603B681B68BB608F
:10476000BB68B3F1FF3F03D17B681B69FB600CE0C2
:104770007B680833FB6002E0FB685B68FB60FB68FA
:104780005B681B68BA689A42F6D2FB685A683B6855
:104790005A603B685B683A689A603B68FA689A605E
:1047A000FB683A685A603B687A681A617B681B68E4
:1047B0005A1C7B681A6000BF1437BD4680BC704726
:1047C00080B485B000AF78607B681B69FB607B6854
:1047D0005B687A6892689A607B689B687A685268BE
:1047E0005A60FB685B687A689A4203D17B689A6872
:1047F000FB685A607B6800221A61FB681B685A1EBE
:10480000FB681A60FB681B6818461437BD4680BCFD
:10481000704780B58EB004AFF860B9607A603B60D5
:104820007B6B002B0BD14FF0500383F31188BFF348
:104830006F8FBFF34F8F3B6200BF00BFFDE7BB6BC5
:10484000002B0BD14FF0500383F31188BFF36F8F10
:10485000BFF34F8FFB6100BF00BFFDE754233B61F7
:104860003B69542B0BD04FF0500383F31188BFF3F7
:104870006F8FBFF34F8FBB6100BF00BFFDE73B6988
:10488000BB6B002B1ED07B6B002B1BD0BB6B7B62EA
:104890007B6A7A6B1A637B6A022283F851200023B9
:1048A00003937B6A029307F1140301933B6B00931C
:1048B0003B687A68B968F86800F050F8786A00F0E8
:1048C000D5F801E000237B617B6918462837BD4697
:1048D00080BD80B58CB004AFF860B9603B60134612
:1048E000FB80FB889B00184600F092FE78617B6994
:1048F000002B0ED0542000F08BFEF861FB69002BDA
:1049000003D0FB697A691A6305E0786900F04EFF0D
:1049100001E00023FB61FB69002B17D0FB6900223B
:1049200083F85120FA8800230393FB690293FB6A02
:104930000193BB6A00933B68B968F86800F00EF811
:10494000F86900F093F80123BB6102E04FF0FF33F8
:10495000BB61BB6918462037BD4680BD80B588B0B5
:1049600000AFF860B9607A603B603B6B1A6B7B68A4
:1049700003F18043013B9B001344BB61BB6923F0FF
:104980000703BB61BB6903F00703002B0BD04FF09B
:10499000500383F31188BFF36F8FBFF34F8F7B6199
:1049A00000BF00BFFDE7BB68002B1FD00023FB61E9
:1049B00012E0BA68FB69134419783A6BFB69134437
:1049C00034330A461A70BA68FB6913441B78002B0B
:1049D00006D0FB690133FB61FB690F2BE9D900E0CD
:1049E00000BF3B6B002283F8432003E03B6B0022B7
:1049F00083F83420BB6A062B01D90623BB623B6BCC
:104A0000BA6ADA623B6BBA6A5A643B6B00229A64F8
:104A10003B6B04331846FFF76CFE3B6B18331846AC
:104A2000FFF767FE3B6B3A6B1A61BB6AC3F1070283
:104A30003B6B9A613B6B3A6B5A623B6B0022DA64C8
:104A40003B6B002283F850203A68F968B86900F09F
:104A50002BFC02463B6B1A60FB6A002B02D0FB6A00
:104A60003A6B1A6000BF2037BD4680BD80B582B06A
:104A700000AF786000F00AFD2A4B1B680133294A19
:104A80001360294B1B68002B09D1274A7B681360F0
:104A9000244B1B68012B10D100F0C4FA0DE0234B0E
:104AA0001B68002B09D1204B1B68DA6A7B68DB6A24
:104AB0009A4202D81C4A7B6813601D4B1B68013365
:104AC0001B4A13607B68DB6A01229A40194B1B6802
:104AD0001343184A13607B68DA6A13469B00134439
:104AE0009B00154A1A447B68043319461046FFF7A9
:104AF0000CFE00F0FBFC0D4B1B68002B0ED00A4B8C
:104B00001B68DA6A7B68DB6A9A4207D20B4B4FF06C
:104B100080521A60BFF34F8FBFF36F8F00BF08370B
:104B2000BD4680BDD0080020D0070020DC08002052
:104B3000EC080020D8080020D407002004ED00E095
:104B400080B584B000AF78600023FB607B68002BE9
:104B500018D0144B1B68002B0BD04FF0500383F37D
:104B60001188BFF36F8FBFF34F8FBB6000BF00BFD3
:104B7000FDE700F07DF80021786800F02FFB00F0E1
:104B800085F8F860FB68002B07D1074B4FF0805287
:104B90001A60BFF34F8FBFF36F8F00BF1037BD4652
:104BA00080BD00BFF808002004ED00E080B58AB0A9
:104BB00004AF0023BB6000237B603A46391D07F138
:104BC00008031846FDF72CF939687B68BA68029229
:104BD00001930023009300230A461F491F48FFF753
:104BE00018FE03461E4A13601D4B1B68002B02D0A3
:104BF00001237B6101E000237B617B69012B16D1DE
:104C00004FF0500383F31188BFF36F8FBFF34F8FC3
:104C10003B6100BF134B4FF0FF321A60124B012271
:104C20001A60124B00221A6000F0BEFB0FE07B6995
:104C3000B3F1FF3F0BD14FF0500383F31188BFF363
:104C40006F8FBFF34F8FFB6000BF00BFFDE700BF5A
:104C50001837BD4680BD00BF30960008F54F0008EC
:104C6000F4080020F0080020DC080020D408002010
:104C700080B400AF044B1B680133034A136000BFCC
:104C8000BD4680BC704700BFF808002080B584B0E6
:104C900000AF0023FB600023BB60424B1B68002B6E
:104CA0000BD14FF0500383F31188BFF36F8FBFF325
:104CB0004F8F3B6000BF00BFFDE700F0E7FB394BC3
:104CC0001B68013B374A1360364B1B68002B61D1D0
:104CD000354B1B68002B5DD02EE0344BDB68DB6866
:104CE000FB60FB6818331846FFF76AFDFB68043366
:104CF0001846FFF765FDFB68DB6A01229A402C4BE2
:104D00001B6813432A4A1360FB68DA6A13469B0048
:104D100013449B00274A1A44FB6804331946104683
:104D2000FFF7F3FCFB68DA6A234B1B68DB6A9A42E5
:104D300002D3224B01221A601C4B1B68002BCCD1E2
:104D4000FB68002B01D000F00BFA1D4B1B687B6049
:104D50007B68002B10D000F037F80346002B02D000
:104D6000164B01221A607B68013B7B607B68002B3D
:104D7000F1D1134B00221A60104B1B68002B09D095
:104D80000123BB600F4B4FF080521A60BFF34F8F6F
:104D9000BFF36F8F00F0AAFBBB6818461037BD4603
:104DA00080BD00BFF8080020D00800209008002037
:104DB000D8080020D4070020D0070020E4080020F5
:104DC000E008002004ED00E080B586B000AF0023CD
:104DD0007B614F4B1B68002B40F08F804D4B1B6855
:104DE00001333B614B4A3B6913603B69002B21D186
:104DF000494B1B681B68002B0BD04FF0500383F30B
:104E00001188BFF36F8FBFF34F8F3B6000BF00BFB0
:104E1000FDE7414B1B68FB60404B1B683E4A13603B
:104E20003E4AFB6813603E4B1B6801333C4A1360EB
:104E300000F096F93B4B1B683A699A4248D3364BCF
:104E40001B681B68002B04D1364B4FF0FF321A60F1
:104E50003EE0314B1B68DB68DB68BB60BB685B68AE
:104E60007B603A697B689A4203D22E4A7B68136062
:104E70002EE0BB6804331846FFF7A2FCBB689B6AB0
:104E8000002B04D0BB6818331846FFF799FCBB68A9
:104E9000DB6A01229A40244B1B681343224A1360A9
:104EA000BB68DA6A13469B0013449B001F4A1A44EE
:104EB000BB68043319461046FFF727FCBB68DA6A63
:104EC0001B4B1B68DB6A9A42B9D301237B61B6E7AF
:104ED000174B1B68DA6A154913469B0013449B0065
:104EE0000B441B68012B01D901237B61114B1B680B
:104EF000002B07D001237B6104E00F4B1B680133BB
:104F00000D4A13607B6918461837BD4680BD00BF47
:104F1000F8080020D4080020880800208C08002011
:104F2000E8080020F0080020D8080020D40700205E
:104F3000D0070020E4080020E008002080B487B0FB
:104F400000AF274B1B68002B03D0264B01221A60B1
:104F500040E0244B00221A60234B1B68FB60FB6877
:104F6000B3FA83F3FB72FB7AC3F11F037B611F4922
:104F70007A6913469B0013449B000B441B68002B6B
:104F80000BD14FF0500383F31188BFF36F8FBFF342
:104F90004F8F7B6000BF00BFFDE77A6913469B001F
:104FA00013449B00114A13443B613B695B685A6898
:104FB0003B695A603B695A683B6908339A4204D19D
:104FC0003B695B685A683B695A603B695B68DB68B0
:104FD000074A136000BF1C37BD4680BC704700BF46
:104FE000F8080020E4080020D8080020D40700209A
:104FF000D007002080B582B000AF786000F052F892
:10500000064B1B68012BF9D9054B4FF080521A60F3
:10501000BFF34F8FBFF36F8FF0E700BFD4070020BF
:1050200004ED00E080B582B000AF00237B600CE0AF
:105030007A6813469B0013449B00124A1344184697
:10504000FFF738FB7B6801337B607B68062BEFD969
:105050000D48FFF72FFB0D48FFF72CFB0C48FFF71F
:1050600029FB0C48FFF726FB0B48FFF723FB0B4BF4
:10507000054A1A600A4B054A1A6000BF0837BD4648
:1050800080BD00BFD4070020600800207408002005
:1050900090080020A4080020BC08002088080020F8
:1050A0008C08002080B582B000AF19E000F0EEF966
:1050B000104BDB68DB687B607B6804331846FFF7C6
:1050C0007FFB0D4B1B68013B0B4A13600B4B1B68AE
:1050D000013B0A4A136000F009FA786800F010F802
:1050E000064B1B68002BE1D100BF00BF0837BD464F
:1050F00080BD00BFA4080020D0080020B808002010
:1051000080B584B000AF78607B6893F85130002B95
:1051100008D17B681B6B184600F048FB786800F0EC
:1051200045FB19E07B6893F85130012B03D1786877
:1051300000F03CFB10E07B6893F85130022B0BD061
:105140004FF0500383F31188BFF36F8FBFF34F8F7E
:10515000FB6000BF00BFFDE700BF1037BD4680BD4C
:1051600080B483B000AF0C4B1B681B68002B04D1CC
:105170000A4B4FF0FF321A6008E0074B1B68DB68F0
:10518000DB687B607B685B68044A136000BF0C3798
:10519000BD4680BC704700BF88080020F008002092
:1051A00080B483B000AF0B4B1B68002B02D10123EE
:1051B0007B6008E0084B1B68002B02D102237B6058
:1051C00001E000237B607B6818460C37BD4680BC3D
:1051D000704700BFDC080020F808002080B584B0CC
:1051E00000AF78603960294B1B68FB60284B1B6857
:1051F00004331846FFF7E4FA0346002B0BD1244B87
:105200001B68DB6A012202FA03F3DA43214B1B68B5
:105210001340204A13607B68B3F1FF3F0AD13B681B
:10522000002B07D01A4B1B68043319461A48FFF7A6
:105230006CFA26E0FA687B681344BB60144B1B6869
:10524000BA685A60BA68FB689A4209D2134B1A6866
:105250000F4B1B68043319461046FFF779FA10E02C
:105260000F4B1A680A4B1B68043319461046FFF7A8
:105270006FFA0C4B1B68BA689A4202D2094ABB68A3
:10528000136000BF1037BD4680BD00BFD4080020AA
:10529000D0070020D8080020BC0800208C0800207F
:1052A00088080020F008002080B485B000AFF860C6
:1052B000B9607A60FB68043BFB60FB684FF080726A
:1052C0001A60FB68043BFB60BB6823F00102FB68CB
:1052D0001A60FB68043BFB60084AFB681A60FB68C5
:1052E000143BFB607A68FB681A60FB68203BFB603C
:1052F000FB6818461437BD4680BC70470153000850
:1053000080B485B000AF00237B60124B1B68B3F103
:10531000FF3F0BD04FF0500383F31188BFF36F8F23
:10532000BFF34F8FFB6000BF00BFFDE74FF050039E
:1053300083F31188BFF36F8FBFF34F8FBB6000BF44
:1053400000BF7B68002BFCD000BF00BF1437BD46F8
:1053500080BC70470C00002000000000000000002E
:10536000074B19680868B0E8F00F80F30988BFF3AD
:105370006F8F4FF0000080F311884EF00D0E7047D4
:10538000D007002000BF00BF06480068006880F317
:10539000088862B661B6BFF34F8FBFF36F8F00DF2F
:1053A00000BF00BF08ED00E080B584B000AF324B15
:1053B000FB60FB681B78DBB27B60FB68FF221A7026
:1053C000FB681B78DBB2FB70FB78DBB203F05003A9
:1053D000DAB22A4B1A702A4B07221A6009E0284BCE
:1053E0001B68013B264A1360FB78DBB25B00DBB233
:1053F000FB70FB78DBB203F08003802BEFD0204BF7
:105400001B68C3F10703042B0BD04FF0500383F349
:105410001188BFF36F8FBFF34F8FBB6000BF00BF1A
:10542000FDE7174B1B681B02154A1360144B1B68E2
:1054300003F4E063124A13607B68DAB2FB681A7007
:10544000104B1B680F4A43F4700313600D4B1B682D
:105450000C4A43F07043136000F0B8F80A4B002286
:105460001A60FFF791FFFFF769FDFFF749FF00237F
:1054700018461037BD4680BD00E400E0FC0800205F
:105480000009002020ED00E00C00002080B483B073
:1054900000AF4FF0500383F31188BFF36F8FBFF35A
:1054A0004F8F7B6000BF0F4B1B6801330D4A1360A9
:1054B0000C4B1B68012B10D10B4B1B68DBB2002B74
:1054C0000BD04FF0500383F31188BFF36F8FBFF3FE
:1054D0004F8F3B6000BF00BFFDE700BF0C37BD46EC
:1054E00080BC70470C00002004ED00E080B483B065
:1054F00000AF124B1B68002B0BD14FF0500383F30E
:105500001188BFF36F8FBFF34F8F7B6000BF00BF69
:10551000FDE70A4B1B68013B084A1360074B1B68F9
:10552000002B05D100233B603B6883F3118800BF4B
:1055300000BF0C37BD4680BC704700BF0C00002088
:10554000EFF30980BFF36F8F0D4B1A6820E9F00F5E
:1055500010602DE908404FF0500080F31188FFF7EC
:10556000EDFC4FF0000080F31188BDE80840196899
:105570000868B0E8F00F80F30988BFF36F8F7047B9
:10558000D007002000BF00BF80B582B000AF4FF051
:10559000500383F31188BFF36F8FBFF34F8F7B608E
:1055A00000BFFFF711FC0346002B03D0064B4FF062
:1055B00080521A6000233B603B6883F3118800BF70
:1055C00000BF0837BD4680BD04ED00E080B400AFE9
:1055D0000A4B00221A600A4B00221A60094B1B6812
:1055E000094AA2FB03239B09084A013B1360034BB2
:1055F00007221A6000BFBD4680BC704710E000E083
:1056000018E000E000000020D34D621014E000E03C
:1056100080B58AB000AF78600023FB61FFF728FBFC
:105620005C4B1B68002B01D100F024F95A4B1A681F
:105630007B681340002B40F095807B68002B1ED0C8
:1056400008227B6813447B607B6803F00703002B10
:1056500015D07B6823F0070308337B607B6803F079
:105660000703002B0BD04FF0500383F31188BFF3D7
:105670006F8FBFF34F8F7B6100BF00BFFDE77B687B
:10568000002B6FD0454B1B687A689A426AD8444B0E
:105690003B62434B1B687B6204E07B6A3B627B6A34
:1056A0001B687B627B6A5B687A689A4203D97B6A73
:1056B0001B68002BF1D1374B1B687A6A9A4251D094
:1056C0003B6A1B6808221344FB617B6A1A683B6AC9
:1056D0001A607B6A5A687B68D21A08235B009A4278
:1056E00020D97A6A7B681344BB61BB6903F0070366
:1056F000002B0BD04FF0500383F31188BFF36F8F53
:10570000BFF34F8F3B6100BF00BFFDE77B6A5A6864
:105710007B68D21ABB695A607B6A7A685A60B8693A
:1057200000F00AF91D4B1A687B6A5B68D31A1B4AA2
:1057300013601A4B1A681B4B1B689A4203D2174B13
:105740001B68184A13607B6A5A68134B1B681A431C
:105750007B6A5A607B6A00221A60134B1B68013314
:10576000114A1360FFF792FAFB6903F00703002B5D
:105770000BD04FF0500383F31188BFF36F8FBFF34B
:105780004F8FFB6000BF00BFFDE7FB69184628375D
:10579000BD4680BD0C1500202015002010150020EE
:1057A00004150020141500201815002080B586B0BF
:1057B00000AF78607B687B617B68002B4FD008234B
:1057C0005B427A6913447B617B693B613B695A6840
:1057D000254B1B681340002B0BD14FF0500383F374
:1057E0001188BFF36F8FBFF34F8FFB6000BF00BF07
:1057F000FDE73B691B68002B0BD04FF0500383F390
:105800001188BFF36F8FBFF34F8FBB6000BF00BF26
:10581000FDE73B695A68144B1B681340002B1ED0F0
:105820003B691B68002B1AD13B695A680E4B1B68F9
:10583000DB431A403B695A60FFF71AFA3B695A6822
:105840000A4B1B681344094A1360386900F074F866
:10585000074B1B680133064A1360FFF717FA00BFB6
:105860001837BD4680BD00BF201500201015002050
:105870001C15002080B485B000AF4FF44063BB60BE
:10588000274BFB60FB6803F00703002B0CD0FB6881
:105890000733FB60FB6823F00703FB60BA68FB6813
:1058A000D31A1F4A1344BB60FB687B601D4A7B68A8
:1058B00013601C4B00225A607B68BA681344FB607B
:1058C0000822FB689B1AFB60FB6823F00703FB6060
:1058D000FB68154A1360144B1B6800225A60124B78
:1058E0001B6800221A607B683B603B68FA68D21A2A
:1058F0003B685A600C4B1A683B681A603B685B68EF
:105900000A4A13603B685B68094A1360094B4FF011
:1059100000421A6000BF1437BD4680BC704700BF0C
:1059200004090020041500200C1500201415002087
:10593000101500202015002080B485B000AF7860DD
:10594000274BFB6002E0FB681B68FB60FB681B6881
:105950007A689A42F7D8FB68BB60FB685B68BA68F4
:1059600013447A689A4208D1FB685A687B685B687E
:105970001A44FB685A60FB687B607B68BB607B688D
:105980005B68BA681A44FB681B689A4218D1FB68C6
:105990001A68144B1B689A420DD07B685A68FB68E2
:1059A0001B685B681A447B685A60FB681B681A684E
:1059B0007B681A6008E00B4B1A687B681A6003E08A
:1059C000FB681A687B681A60FA687B689A4202D0A2
:1059D000FB687A681A6000BF1437BD4680BC704708
:1059E000041500200C150020002B2DE9F0471D4662
:1059F000BBBF03F100431D4600232D2388B014468E
:105A0000B8BF1446129A109E1370149BDDF84CA078
:105A100023F02008B8F1460F05D0B8F1450F00D1AA
:105A20000136022300E0032307AA049206AACDE967
:105A300002A2CDE9003622462B4600F095FEB8F1D1
:105A4000470F074619D1119BDB070ED500EB06095E
:105A50000022002320462946FAF7A6FF08B1CDF818
:105A60001C903022079B4B451ED33846079B159A46
:105A7000DB1B136008B0BDE8F087B8F1460F00EB00
:105A80000609E5D10378302B0AD1002200232046F5
:105A90002946FAF789FF18B9C6F10106CAF800606D
:105AA000DAF800309944D3E7591C07911A70D9E706
:105AB000F7B50029B6BF2D232B23494209290270CF
:105AC000437029DD0DF107031D460A27B1FBF7F6E8
:105AD0001A4607FB1614303402F8014C0C46632CAE
