:020000040800F2
:1000000000500020352F0008212E0008232E000864
:10001000252E0008272E0008292E000800000000C9
:1000200000000000000000000000000071710008E6
:100030002B2E000800000000017200082D2E000881
:100040007D2F00087D2F00087D2F00087D2F0008E0
:100050007D2F00087D2F00087D2F00087D2F0008D0
:100060007D2F00087D2F00087D2F00087D2F0008C0
:100070007D2F00087D2F00087D2F00087D2F0008B0
:100080007D2F00087D2F00087D2F00087D2F0008A0
:10009000452E00087D2F00087D2F00087D2F0008C9
:1000A0007D2F00087D2F00087D2F00087D2F000880
:1000B000512E00087D2F00087D2F00087D2F00089D
:1000C0007D2F00087D2F00087D2F00087D2F000860
:1000D0007D2F00085D2E0008692E0008752E00088F
:1000E0007D2F00087D2F00087D2F000800000000F4
:1000F0000000000000000000000000000000000000
:0C01000000000000000000005FF808F1A3
:1001100010B5054C237833B9044B13B10448AFF341
:1001200000800123237010BDE801002000000000C2
:100130007C9F000808B5034B1BB103490348AFF38C
:10014000008008BD00000000EC0100207C9F00083A
:10015000034613F8012B002AFBD1181A0138704707
:1001600081F0004102E000BF83F0004330B54FEA68
:1001700041044FEA430594EA050F08BF90EA020FD5
:100180001FBF54EA000C55EA020C7FEA645C7FEA68
:10019000655C00F0E2804FEA5454D4EB5555B8BF8B
:1001A0006D420CDD2C4480EA020281EA030382EAFC
:1001B000000083EA010180EA020281EA0303362D8E
:1001C00088BF30BD11F0004F4FEA01314FF4801C61
:1001D0004CEA113102D0404261EB410113F0004F73
:1001E0004FEA03334CEA133302D0524263EB43032A
:1001F00094EA050F00F0A780A4F10104D5F1200EC8
:100200000DDB02FA0EFC22FA05F2801841F1000122
:1002100003FA0EF2801843FA05F359410EE0A5F1F6
:1002200020050EF1200E012A03FA0EFC28BF4CF027
:10023000020C43FA05F3C01851EBE37101F00045DD
:1002400007D54FF0000EDCF1000C7EEB00006EEBEA
:100250000101B1F5801F1BD3B1F5001F0CD3490874
:100260005FEA30004FEA3C0C04F101044FEA4452CB
:1002700012F5800F80F09A80BCF1004F08BF5FEA52
:10028000500C50F1000041EB045141EA050130BD32
:100290005FEA4C0C404141EB0101013C28BFB1F544
:1002A000801FE9D291F0000F04BF01460020B1FA8F
:1002B00081F308BF2033A3F10B03B3F120020CDA62
:1002C0000C3208DD02F1140CC2F10C0201FA0CF040
:1002D00021FA02F10CE002F11402D8BFC2F1200CA5
:1002E00001FA02F120FA0CFCDCBF41EA0C0190405B
:1002F000E41AA2BF01EB0451294330BD6FEA0404A4
:100300001F3C1CDA0C340EDC04F11404C4F120028E
:1003100020FA04F001FA02F340EA030021FA04F3A0
:1003200045EA030130BDC4F10C04C4F1200220FAF7
:1003300002F001FA04F340EA0300294630BD21FA35
:1003400004F0294630BD94F0000F83F4801306BFFB
:1003500081F480110134013D4EE77FEA645C18BFEF
:100360007FEA655C29D094EA050F08BF90EA020F86
:1003700005D054EA000C04BF1946104630BD91EA7E
:10038000030F1EBF0021002030BD5FEA545C05D181
:100390004000494128BF41F0004130BD14F58004C0
:1003A0003CBF01F5801130BD01F0004545F0FE4134
:1003B00041F470014FF0000030BD7FEA645C1ABF69
:1003C000194610467FEA655C1CBF0B46024650EAA0
:1003D000013406BF52EA033591EA030F41F40021CC
:1003E00030BD00BF90F0000F04BF0021704730B552
:1003F0004FF4806404F132044FF000054FF0000127
:1004000050E700BF90F0000F04BF0021704730B5E7
:100410004FF4806404F1320410F0004548BF4042BC
:100420004FF000013EE700BF42004FEAE2014FEA11
:1004300031014FEA02701FBF12F07F4393F07F4FEC
:1004400081F06051704732F07F4208BF704793F0EF
:100450007F4F04BF41F40021704730B54FF4607402
:1004600001F0004521F000411CE700BF50EA010205
:1004700008BF704730B54FF000050AE050EA0102AE
:1004800008BF704730B511F0004502D5404261EB1E
:1004900041014FF4806404F132045FEA915C3FF45F
:1004A000D8AE4FF003025FEADC0C18BF03325FEAFC
:1004B000DC0C18BF033202EBDC02C2F1200300FAAD
:1004C00003FC20FA02F001FA03FE40EA0E0021FAD2
:1004D00002F11444BDE600BF70B54FF0FF0C4CF4C0
:1004E000E06C1CEA11541DBF1CEA135594EA0C0F72
:1004F00095EA0C0F00F0DEF82C4481EA030621EAAD
:100500004C5123EA4C5350EA013518BF52EA0335E7
:1005100041F4801143F4801338D0A0FB02CE4FF099
:100520000005E1FB02E506F00042E0FB03E54FF0C9
:100530000006E1FB03569CF0000F18BF4EF0010EC1
:10054000A4F1FF04B6F5007F64F5407404D25FEABD
:100550004E0E6D4146EB060642EAC62141EA555170
:100560004FEAC52040EA5E504FEACE2EB4F1FD0CB2
:1005700088BFBCF5E06F1ED8BEF1004F08BF5FEA30
:10058000500E50F1000041EB045170BD06F00046E2
:1005900046EA010140EA020081EA0301B4EB5C048F
:1005A000C2BFD4EB0C0541EA045170BD41F4801187
:1005B0004FF0000E013C00F3AB8014F1360FDEBFAC
:1005C000002001F0004170BDC4F10004203C35DA88
:1005D0000C341BDC04F11404C4F1200500FA05F30B
:1005E00020FA04F001FA05F240EA020001F00042AC
:1005F00021F0004110EBD37021FA04F642EB060122
:100600005EEA430E08BF20EAD37070BDC4F10C044B
:10061000C4F1200500FA04F320FA05F001FA04F20F
:1006200040EA020001F0004110EBD37041F10001FB
:100630005EEA430E08BF20EAD37070BDC4F1200506
:1006400000FA05F24EEA020E20FA04F301FA05F26E
:1006500043EA020321FA04F001F0004121FA04F216
:1006600020EA020000EBD3705EEA430E08BF20EAE6
:10067000D37070BD94F0000F0FD101F00046400020
:1006800041EB010111F4801F08BF013CF7D041EAA2
:10069000060195F0000F18BF704703F000465200A6
:1006A00043EB030313F4801F08BF013DF7D043EA77
:1006B0000603704794EA0C0F0CEA135518BF95EA2D
:1006C0000C0F0CD050EA410618BF52EA4306D1D1B4
:1006D00081EA030101F000414FF0000070BD50EAD3
:1006E000410606BF1046194652EA430619D094EA5D
:1006F0000C0F02D150EA013613D195EA0C0F05D147
:1007000052EA03361CBF104619460AD181EA03019A
:1007100001F0004141F0FE4141F470014FF0000052
:1007200070BD41F0FE4141F4780170BD70B54FF0ED
:10073000FF0C4CF4E06C1CEA11541DBF1CEA13556D
:1007400094EA0C0F95EA0C0F00F0A7F8A4EB05044F
:1007500081EA030E52EA03354FEA013100F0888046
:100760004FEA03334FF0805545EA131343EA12630F
:100770004FEA022245EA111545EA10654FEA0026C4
:100780000EF000419D4208BF964244F1FD0404F57D
:10079000407402D25B084FEA3202B61A65EB0305D9
:1007A0005B084FEA32024FF480104FF4002CB6EB96
:1007B000020E75EB030E22BFB61A754640EA0C0016
:1007C0005B084FEA3202B6EB020E75EB030E22BF56
:1007D000B61A754640EA5C005B084FEA3202B6EB97
:1007E000020E75EB030E22BFB61A754640EA9C0056
:1007F0005B084FEA3202B6EB020E75EB030E22BF26
:10080000B61A754640EADC0055EA060E18D04FEAE3
:10081000051545EA16754FEA06164FEAC30343EA83
:1008200052734FEAC2025FEA1C1CC0D111F4801F50
:100830000BD141EA00014FF000004FF0004CB6E749
:1008400011F4801F04BF01430020B4F1FD0C88BFE8
:10085000BCF5E06F3FF6AFAEB5EB030C04BFB6EBF3
:10086000020C5FEA500C50F1000041EB045170BDE6
:100870000EF0004E4EEA113114EB5C04C2BFD4EB13
:100880000C0541EA045170BD41F480114FF0000E97
:10089000013C90E645EA060E8DE60CEA135594EA13
:1008A0000C0F08BF95EA0C0F3FF43BAF94EA0C0F16
:1008B0000AD150EA01347FF434AF95EA0C0F7FF48B
:1008C00025AF104619462CE795EA0C0F06D152EADF
:1008D00003353FF4FDAE1046194622E750EA4106C3
:1008E00018BF52EA43067FF4C5AE50EA41047FF4D4
:1008F0000DAF52EA43057FF4EBAE12E74FF0FF3C39
:1009000006E000BF4FF0010C02E000BF4FF0010C09
:100910004DF804CD4FEA410C7FEA6C5C4FEA430C82
:1009200018BF7FEA6C5C1BD001B050EA410C0CBFD1
:1009300052EA430C91EA030F02BF90EA020F002033
:10094000704710F1000F91EA030F58BF994208BF9A
:1009500090422CBFD8176FEAE37040F00100704757
:100960004FEA410C7FEA6C5C02D150EA013C07D1AE
:100970004FEA430C7FEA6C5CD6D152EA033CD3D0F9
:100980005DF8040B704700BF8446104662468C46F3
:100990001946634600E000BF01B5FFF7B7FF002826
:1009A00048BF10F1000F01BD4DF808EDFFF7F4FF4F
:1009B0000CBF012000205DF808FB00BF4DF808EDDA
:1009C000FFF7EAFF34BF012000205DF808FB00BFFD
:1009D0004DF808EDFFF7E0FF94BF012000205DF81F
:1009E00008FB00BF4DF808EDFFF7CEFF94BF0120D4
:1009F00000205DF808FB00BF4DF808EDFFF7C4FFCD
:100A000034BF012000205DF808FB00BF4FEA410C15
:100A10007FEA6C5C02D150EA013C0AD14FEA430CF8
:100A20007FEA6C5C02D152EA033C02D14FF0000035
:100A300070474FF0010070474FEA410212F5001273
:100A400015D211D56FF47873B3EB625212D94FEA15
:100A5000C12343F0004343EA505311F0004F23FAFF
:100A600002F018BF404270474FF00000704750EA54
:100A7000013005D111F0004008BF6FF00040704711
:100A80004FF00000704700BF80F0004002E000BF60
:100A900081F0004142001FBF5FEA410392EA030F69
:100AA0007FEA226C7FEA236C6AD04FEA1262D2EBB3
:100AB0001363C1BFD218414048404140B8BF5B42B8
:100AC000192B88BF704710F0004F40F4000020F051
:100AD0007F4018BF404211F0004F41F4000121F067
:100AE0007F4118BF494292EA030F3FD0A2F10102B1
:100AF00041FA03FC10EB0C00C3F1200301FA03F1EF
:100B000000F0004302D5494260EB4000B0F5000F11
:100B100013D3B0F1807F06D340084FEA310102F1D0
:100B20000102FE2A51D2B1F1004F40EBC25008BF82
:100B300020F0010040EA03007047490040EB00004C
:100B4000013A28BFB0F5000FEDD2B0FA80FCACF14D
:100B5000080CB2EB0C0200FA0CF0AABF00EBC2507A
:100B600052421843BCBFD0401843704792F0000F68
:100B700081F4000106BF80F400000132013BB5E7BB
:100B80004FEA41037FEA226C18BF7FEA236C21D031
:100B900092EA030F04D092F0000F08BF0846704796
:100BA00090EA010F1CBF0020704712F07F4F04D164
:100BB000400028BF40F00040704712F100723CBF77
:100BC00000F50000704700F0004343F0FE4040F4A1
:100BD000000070477FEA226216BF08467FEA23635F
:100BE0000146420206BF5FEA412390EA010F40F44A
:100BF000800070474FF0000304E000BF10F0004396
:100C000048BF40425FEA000C08BF704743F096437C
:100C100001464FF000001CE050EA010208BF704797
:100C20004FF000030AE000BF50EA010208BF70471E
:100C300011F0004302D5404261EB41015FEA010C33
:100C400002BF84460146002043F0B64308BFA3F12B
:100C50008053A3F50003BCFA8CF2083AA3EBC2530D
:100C600010DB01FA02FC634400FA02FCC2F120022C
:100C7000BCF1004F20FA02F243EB020008BF20F063
:100C80000100704702F1200201FA02FCC2F12002C9
:100C900050EA4C0021FA02F243EB020008BF20EABE
:100CA000DC7070474FF0FF0C1CEAD0521EBF1CEAEC
:100CB000D15392EA0C0F93EA0C0F6FD01A4480EADA
:100CC000010C400218BF5FEA41211ED04FF00063C3
:100CD00043EA501043EA5111A0FB01310CF00040EF
:100CE000B1F5000F3EBF490041EAD3715B0040EA15
:100CF000010062F17F02FD2A1DD8B3F1004F40EBE5
:100D0000C25008BF20F00100704790F0000F0CF0B7
:100D1000004C08BF49024CEA502040EA51207F3A7B
:100D2000C2BFD2F1FF0340EAC250704740F4000056
:100D30004FF00003013A5DDC12F1190FDCBF00F047
:100D400000407047C2F10002410021FA02F1C2F1F5
:100D5000200200FA02FC5FEA310040F1000053EA91
:100D60004C0308BF20EADC70704792F0000F00F0DF
:100D7000004C02BF400010F4000F013AF9D040EAE5
:100D80000C0093F0000F01F0004C02BF490011F479
:100D9000000F013BF9D041EA0C018FE70CEAD15377
:100DA00092EA0C0F18BF93EA0C0F0AD030F0004CF7
:100DB00018BF31F0004CD8D180EA010000F00040AB
:100DC000704790F0000F17BF90F0004F084691F069
:100DD000000F91F0004F14D092EA0C0F01D14202A3
:100DE0000FD193EA0C0F03D14B0218BF084608D16C
:100DF00080EA010000F0004040F0FE4040F40000B6
:100E0000704740F0FE4040F4400070474FF0FF0C48
:100E10001CEAD0521EBF1CEAD15392EA0C0F93EA8F
:100E20000C0F69D0A2EB030280EA010C49024FEAE1
:100E3000402037D04FF0805343EA111143EA10139A
:100E40000CF000408B4238BF5B0042F17D024FF452
:100E5000000C8B4224BF5B1A40EA0C00B3EB510F2D
:100E600024BFA3EB510340EA5C00B3EB910F24BF16
:100E7000A3EB910340EA9C00B3EBD10F24BFA3EB9B
:100E8000D10340EADC001B0118BF5FEA1C1CE0D163
:100E9000FD2A3FF650AF8B4240EBC25008BF20F016
:100EA000010070470CF0004C4CEA50207F32C2BF6A
:100EB000D2F1FF0340EAC250704740F400004FF007
:100EC0000003013A37E792F0000F00F0004C02BF38
:100ED000400010F4000F013AF9D040EA0C0093F002
:100EE000000F01F0004C02BF490011F4000F013B5C
:100EF000F9D041EA0C0195E70CEAD15392EA0C0FC4
:100F000008D142027FF47DAF93EA0C0F7FF470AFFB
:100F1000084676E793EA0C0F04D14B023FF44CAF3E
:100F200008466EE730F0004C18BF31F0004CCAD1D3
:100F300030F000427FF45CAF31F000437FF43CAF0F
:100F40005FE700BF4FF0FF3C06E000BF4FF0010C31
:100F500002E000BF4FF0010C4DF804CD4FEA400213
:100F60004FEA41037FEA226C18BF7FEA236C11D05D
:100F700001B052EA530C18BF90EA010F58BFB2EB10
:100F8000030088BFC81738BF6FEAE17018BF40F090
:100F9000010070477FEA226C02D15FEA402C05D144
:100FA0007FEA236CE4D15FEA412CE1D05DF8040BC9
:100FB000704700BF844608466146FFE70FB5FFF75C
:100FC000C9FF002848BF10F1000F0FBD4DF808ED14
:100FD000FFF7F4FF0CBF012000205DF808FB00BF05
:100FE0004DF808EDFFF7EAFF34BF012000205DF85F
:100FF00008FB00BF4DF808EDFFF7E0FF94BF0120AC
:1010000000205DF808FB00BF4DF808EDFFF7D2FFA8
:1010100094BF012000205DF808FB00BF4DF808EDEB
:10102000FFF7C8FF34BF012000205DF808FB00BFB8
:1010300042000ED2B2F1FE4F0BD34FF09E03B3EB42
:10104000126209D44FEA002343F0004323FA02F06E
:1010500070474FF00000704712F1610F01D142025A
:1010600002D14FF0FF3070474FF00000704700BFD3
:1010700010B5074C6089FFF7C1FD0649FFF7C4FFB3
:1010800020B1A0882388C31A5842584110BD00BF20
:10109000D60900200000C041054B02465978814224
:1010A00004D058700221034802F06AB9704700BFAB
:1010B00004020020000C0140044A1178814204D04F
:1010C000107010B99070FFF7E7BF7047040200205E
:1010D000024B187800B19878704700BF04020020D6
:1010E00038B501F08FFF1B4C6368A578C31A632BDA
:1010F00001D8284638BD012D606008D0022D1BD0D4
:101100005DB923784BB101F0E1FC012312E02378B3
:101110002BB90020A070FFF7BFFFA078EAE701F02D
:10112000D5FCFFF7A5FFE0700028F6D02846FFF7B2
:10113000B3FF0223A370F0E72378002BE9D001F07E
:10114000C5FCFFF795FFE0700028E6D1FFF7A4FF8C
:10115000DBE700BF0402002010B50023A5241049DE
:101160000A1F0B604B600B7201F8044C4021517058
:1011700008219070D1701046194612F8014B0133C6
:1011800021440B2BC9B2F8D1017364230D22054908
:10119000054804F0C0F8B0FA80F0400910BD00BF67
:1011A0005F0300205B030020AC060020F8B534226A
:1011B000044600211B4806F0B2FF342200211A48E1
:1011C00006F0ADFF0D22C82362431649174804F00C
:1011D000F0F8034628B9144912489C4203D801206C
:1011E00000E00020F8BD0F4602460D4600F10C0657
:1011F00052F804CBB24245F804CBF9D112780E462E
:101200002A700022154616F801CB013562440C2DD8
:10121000D2B2F8D13D7B0D31954200F10D00E0D105
:101220000133DAE7F302002027030020AC06002098
:10123000F8B59020FFF790FF10B900252846F8BDBB
:101240000120FFF7B3FF05460028F6D0124F3C8976
:1012500064BAA4B2A4F5EA44303C2046FFF7CEFCC1
:101260000E49FFF7D3FD0E49FFF7B0FE0028E4D189
:101270007E8976BAB0B2FFF7C1FC0849FFF7C6FD18
:101280000849FFF7CBFE0028D7D1BA88064B52BADF
:101290001A825C829E82D1E7270300200000204151
:1012A00000803BC50000C8421802002010B5912004
:1012B000FFF752FF08B9002010BD0120FFF776FFAD
:1012C0000028F8D0074C084AA179A3889176B4F891
:1012D00007105BBA49BA647AD3825B1A1183D47659
:1012E0001377E9E7270300201802002008B59220B1
:1012F000FFF732FF08B9002008BD0120FFF756FFB5
:101300000028F8D0054A137992791344503B044AD7
:1013100003EBD3735B105377EEE700BF2703002086
:101320001802002008B59320FFF716FF08B9002027
:1013300008BD0120FFF73AFF0028F8D00D490E4BF9
:101340000A79012A02D0022A00D002B99A774A7992
:10135000003A18BF0122DA778A79003A18BF0122D1
:1013600083F82020CA7983F821204A8952BA5A8406
:10137000DEE700BF270300201802002008B59420F4
:10138000FFF7EAFE08B9002008BD0120FFF70EFFB5
:101390000028F8D00B4A0C4B117983F824105179AE
:1013A00083F825109179003918BF012183F82610A0
:1013B000D179927A003918BF012183F8282083F867
:1013C0002710E1E72703002018020020F8B5284D78
:1013D00095F82430013B0F2B47D89520FFF7BCFE32
:1013E00008B90120F8BD032395F824400234B4FB6A
:1013F000F3F4E4B22046FFF7D9FEB0B3002633463B
:1014000095F824701B4AF1B28C42EAD99F421ED94A
:1014100092F805E092F806C0581CC0B205EB4301F3
:101420004CEA0E2C8742A1F82AC00FD992F807E0A7
:1014300092F808C0991CC9B205EB40004CEA0E2C8A
:101440008F42A0F82AC005D80B4600E003460136BB
:101450000D32D8E792F809C0907A033305EB4101C9
:1014600040EA0C20DBB24885F1E70020BAE700BF74
:10147000180200202703002038B5104C94F82530BE
:10148000013B032B01D9002038BD9620FFF764FEF5
:101490000028F8D00120FFF789FE0028F3D00023B0
:1014A000074994F825508934DAB29542ECD911F8FD
:1014B000012F0133283A04F8012FF5E71802002024
:1014C0002B0300202DE9F8431E4D95F82430013BF5
:1014D0000F2B02D90020BDE8F8839720FFF73CFED0
:1014E0000028F7D00120FFF761FE0028F2D000238A
:1014F00006221C4695F824E0DFF84CC0002604F1D3
:1015000099071CF8018F2F44A64511D948FA06F116
:1015100001F00109C90748BF013306F1010604F1D2
:10152000010448BFDBB2082EE4B207F8019FEBD1FB
:10153000013A12F0FF02E1D1003B18BF012385F808
:10154000CA30C8E7180200202A03002038B59820C6
:10155000FFF702FE08B9002038BD0120FFF726FE84
:101560000028F8D000240025B849B94B0A79C3E90E
:101570003445940740F1248101240025C3E9344512
:10158000140740F12281D3F8D04044F00404C3F89A
:10159000D040940640F12181D3F8D04044F01004AB
:1015A000C3F8D040D40900F02081D3F8D02042F015
:1015B0004002C3F8D0204A79940740F11E81D3F845
:1015C000D04044F48074C3F8D040140740F11D812A
:1015D000D3F8D04044F48064C3F8D040940640F17E
:1015E0001C81D3F8D04044F48054C3F8D040D409CF
:1015F00000F01B81D3F8D02042F48042C3F8D02001
:101600008A79940740F11981D3F8D04044F48034AA
:10161000C3F8D040140740F11D81D3F8D04044F402
:101620008024C3F8D040940640F11C81D3F8D04008
:1016300044F48014C3F8D040D40900F01B81D3F8DF
:10164000D02042F48002C3F8D020CA79940740F138
:101650001981D3F8D04044F08074C3F8D040140707
:1016600040F11881D3F8D02042F08062C3F8D02036
:101670000A7AD40742BFD3F8D04044F08054C3F86C
:10168000D040950742BFD3F8D04044F00054C3F88F
:10169000D040540742BFD3F8D04044F08044C3F850
:1016A000D040150742BFD3F8D04044F00044C3F8FF
:1016B000D040D40642BFD3F8D44044F00104C3F86C
:1016C000D440950642BFD3F8D44044F00204C3F896
:1016D000D440540642BFD3F8D44044F00404C3F8C5
:1016E000D440D2091EBFD3F8D42042F00802C3F878
:1016F000D4204A7AD50742BFD3F8D44044F010042E
:10170000C3F8D440940742BFD3F8D44044F0200437
:10171000C3F8D440550742BFD3F8D44044F0400446
:10172000C3F8D440140742BFD3F8D44044F0800437
:10173000C3F8D440D50642BFD3F8D44044F48074F3
:10174000C3F8D440940642BFD3F8D44044F40074A4
:10175000C3F8D440550642BFD3F8D44044F4806463
:10176000C3F8D440D2091EBFD3F8D42042F400629B
:10177000C3F8D4208B7ADC0741BF3549D1F8D42097
:1017800042F48052C1F8D420990741BF3049D1F8C2
:10179000D42042F40052C1F8D4205A0741BF2C494A
:1017A000D1F8D42042F48042C1F8D4201B0741BFB5
:1017B000274AD2F8D43043F40043C2F8D430CBE601
:1017C000D5077FF5DDAE0224D7E655077FF5E1AEFC
:1017D000D3F8D04044F00804D9E6D5067FF5E2AE50
:1017E000D3F8D04044F02004DAE692093FF4E3AEA7
:1017F000D3F8D02042F08002DBE6D5077FF5E5AED6
:10180000D3F8D04044F40074DDE655077FF5E6AE2A
:10181000D3F8D04044F40064DEE6D5067FF5E7AEA9
:10182000D3F8D04044F40054DFE692093FF4E8AE28
:10183000D3F8D02042F40042E0E6D5077FF5EAAEC7
:10184000D3F8D04044F40034E2E600BF2703002080
:101850001802002055077FF5E6AED3F8D04044F4D7
:101860000024DEE6D5067FF5E7AED3F8D04044F499
:101870000014DFE692093FF4E8AED3F8D02042F43A
:101880000002E0E6D5077FF5EAAED3F8D04044F099
:101890000074E2E655077FF5EBAED3F8D02042F0B6
:1018A0000062E3E608B55920FFF756FC08B90020AE
:1018B00008BD0120FFF77AFC0028F8D0074A084B42
:1018C000918849BA1980D18849BA99801189528979
:1018D00049BA52BA5980DA80EAE700BF27030020EC
:1018E0001802002008B55A20FFF736FC08B900207E
:1018F00008BD0120FFF75AFC0028F8D0074A084B22
:10190000918849BA1981D18849BA99811189528936
:1019100049BA52BA5981DA81EAE700BF27030020A9
:1019200018020020704700000322014B9A7770478D
:1019300018020020014B1860704700BF68030020A8
:10194000012208B5034B1A7001F05CFB024B1860D2
:1019500008BD00BF150200200C020020012208B5BE
:10196000054B1A70054B064A1B889BB2138001F089
:1019700049FB044B186008BD14020020100200202F
:10198000120200200C020020034B0360034B0B608B
:1019900080231360704700BF6C0500206C0300209B
:1019A00070B5642686B00096044615468DF80F1073
:1019B000012301790DF10F02006801F0B9FE58B959
:1019C000009602232179206805AA01F08BFF18B93F
:1019D000BDF814305BBA2B8006B070BD1FB5130A7A
:1019E0008DF80D30642300938DF80C108DF80E20C7
:1019F0000179032303AA006801F09AFE05B05DF89F
:101A000004FB000070B50446027143610160049854
:101A100011491D46FFF7FAF92946A0600646FFF76F
:101A200041F901460D48FFF7F1F9FFF701FB85B2D7
:101A30000B4930462582FFF735F92A46E06005213B
:101A40002046FFF7CBFF2046BDE8704043F69F12CB
:101A50000021FFF7C3BF00BF00FEFF46ACC5273D16
:101A60000000A04137B50D460DF106020221FFF737
:101A700097FF044660B9BDF80600C008FFF7BEF83E
:101A80004FF08141FFF70EF90349FFF7BFF92860D6
:101A9000204603B030BD00BF00007A4473B5044651
:101AA000028A0E460521FFF799FF042120460DF119
:101AB0000602FFF775FF054638B9BDF90600FFF7C6
:101AC0009DF8A168FFF7EEF83060284602B070BDBF
:101AD00073B50446028A0E460521FFF77FFF0321F6
:101AE00020460DF10602FFF75BFF054638B9BDF849
:101AF0000600FFF783F8E168FFF7D4F83060284666
:101B000002B070BD80B51A4D1A4F1B4E388AFFF7D0
:101B100075F81A4C1A4B19682378C3B9FFF77EFA87
:101B200058B101220321284601F02AFC0122154860
:101B3000114601F025FC0123237030464FF400517B
:101B400001F023FC4FF4FA7004F0F9FEDEE7FFF732
:101B500047FA0028F1D000220321284601F010FCAA
:101B600000220121074801F00BFC0023E4E700BF3D
:101B7000000801401802002000100140C0050020AC
:101B800000000020000C01400D22002180B54248D9
:101B900006F0C5FA4148FFF7C7FE414C414D237896
:101BA0000A2B1BD8DFE803F006353D404346494C7D
:101BB0004F5D6900FFF73CFB3B4F064690B10122A9
:101BC0004FF40041284601F0DBFB0122334B83F840
:101BD000CB2000233B70237813442370322004F081
:101BE000AEFEDCE702464FF40041284601F0C8FB98
:101BF0003B782670092B02D801333B70EEE7274B68
:101C00003E7083F8CB60294B1B68002BE6D09847C9
:101C1000E4E7FFF74BFB10B120780130C0B2207031
:101C2000DCE7FFF763FBF6E7FFF77CFBF3E7FFF783
:101C3000A5FBF0E7FFF7CAFBEDE7FFF71DFCEAE7BE
:101C4000FFF740FCE7E7FFF781FC10B12078013097
:101C5000C0B2174B20701B78002BD4D00023237008
:101C6000D1E7134B1B78002BCDD1FFF71BFE10B132
:101C700020780130C0B22070C5E70D4E33780BB923
:101C8000FFF730FE00232370084B1B6803B1984711
:101C900001233370A2E700BF5B030020180200207D
:101CA000F102002000100140F20200206803002031
:101CB000F002002008B5FFF713FA642004F03FFE9D
:101CC000F9E7000042F2107508B50A4C00F088FEF2
:101CD00001F098F9D4F80C32C01AA84205D900F0E6
:101CE00051FE01F08FF9C4F80C020A2004F027FE1F
:101CF000ECE700BF940700200368054A934201D136
:101D000000F018BE034A934201D1FFF727BE704787
:101D100000440040003801400268034B9A4201D160
:101D2000FFF70EBE704700BF0038014008B50A4AF1
:101D30000368934203D1BDE8084000F03DBE074A66
:101D4000934208D14FF48041054801F01EFB002268
:101D5000044B83F8CB2008BD00440040003801400C
:101D6000001001401802002008B572B6642004F08B
:101D7000E6FDFBE730B595B0142200210CA806F073
:101D8000CEF91422102500210DEB020006F0C7F950
:101D90002A46002101A806F0C2F902244FF480333C
:101DA0000122CDE91143CDE90A234FF4E0130AA83B
:101DB0000E92139302F022FD08B1FFF7D5FF0F2317
:101DC000CDE905344FF480630790CDE90830214612
:101DD00005A802F0D5FE0028EFD1049001A80195D6
:101DE00002F08AFF0028E8D115B030BD80B5A2B05E
:101DF00001F0EAF8FFF7BEFF102200211BA806F051
:101E00008EF9964B4FF460419A69954842F0100262
:101E10009A619A69002402F010020292029A9A6969
:101E2000012642F020029A619A69022502F02002FE
:101E30000392039A9A6942F004029A619A6902F045
:101E400004020492049A9A6942F008029A619B691A
:101E5000002203F008030593059B01F091FA00228C
:101E60000321804801F08CFA002223217E4801F0F2
:101E700087FA4FF460437A481BA9CDE91B36CDE9B8
:101E80001D4501F0A3F9032376481BA9CDE91B36B4
:101E9000CDE91D4501F09AF9232373481BA9CDE92B
:101EA0001B36CDE91D4501F091F94FF401436D4812
:101EB0001BA9CDE91B341D9401F088F918236A4849
:101EC0001BA9CDE91B340C261D9401F07FF94FF4BA
:101ED000165366486649C0E90244C0E90013C0E9E8
:101EE00005640461C46103F0E7F908B1FFF73CFF42
:101EF0004FF4E1345F4D604BC5E90200C5E90406CB
:101F0000C5E906002846C5E9003403F0D5F90346C3
:101F10000028EBD159485A4AC0E90233C0E90024ED
:101F2000C0E90436C0E9063303F0C6F90028DDD164
:101F3000544C554A554BC4E90200C4E900234FF400
:101F40008043C4E90600C4E904302062204601F061
:101F500047FB06460028C9D1014610221BA806F0FF
:101F6000DEF84FF080434A4FCDE91466C7E90036EA
:101F70004FF6FF733846C7E90336BE60BE6103F013
:101F800001F80028B2D14FF4805338461BA91B93A7
:101F900003F02EF80028A9D1CDE9140014A9384681
:101FA00003F0C0F807460028A0D13A48FFF7C2FC6A
:101FB0002846394D00F084F821468022374B3848B6
:101FC0000095FFF71FFD21468222344B35480095CE
:101FD000FFF718FD2146344C8822304B33480095DA
:101FE00006ADFFF70FFD0FCC0FC594E8070085E89D
:101FF0000700394606A804F07AFC2D4B04F10C06C4
:102000000DAD18600FCE0FC596E8070085E80700F4
:1020100039460DA804F06BFC264B04F1280614ADDC
:1020200018600FCE0FC596E8070085E8070039460F
:1020300014A804F05CFC204B1BAD443418600FCC9A
:102040000FC594E8070085E8070039461BA804F08F
:102050004EFC1A4B186004F045FCFEE700100240ED
:102060000010014000080140000C0140AC060020B7
:102070000038014064060020004400401C06002097
:10208000004800403C07002000540040A0860100AA
:10209000F40600202519000800004040CDCCCC3DBE
:1020A000F4050020DC050020989F0008C4050020EE
:1020B0001806002014060020100600200C06002040
:1020C00038B558B30025164B164C1B782060237189
:1020D00084F80A52A4F80652A4F8085200F092FFBD
:1020E0004FF480722946C4F80C02601D06F017F800
:1020F0004FF48072294604F2051006F010F82068AB
:1021000090F84230202B01D003F0AAF9BDE8384006
:102110000549012251F8050C03F03DBC012038BDF2
:102120000400002094070020990700200246014483
:102130004FF6FF7030B5094D8A4200D130BD0824FA
:1021400012F8013B584040F300032B4083EA500350
:1021500098B2631E13F0FF04F5D1EDE701A0FFFF75
:10216000032938B504460D460ED9023989B2FFF766
:10217000DDFF611911F8012C11F8023C43EA02233A
:102180001B1A5842584138BD0020FCE770B50C4678
:102190000646FFF7CBFF1B4D33193055000A587028
:1021A0002868023403F0D4F9A4B2012000F030FF13
:1021B000332C224634BF6423C8233146286803F0F9
:1021C000AAF8044650B14FF480410F4801F0DDF801
:1021D000286803F045F90724204670BD01464FF4F6
:1021E0008072A5F8060285F80A02681D05F097FFBF
:1021F000012000F00DFF2946012251F8050B03F0E4
:10220000CAFBE9E79407002000100140074B60F08B
:102210007F001A7983F8060183F8071103F205108D
:10222000032183F80521FFF7B1BF00BF9407002009
:102230004E2813B51AD9A0F58073082B01D90024B4
:1022400011E06FF480731844072800F29C81DFE8E6
:1022500010F09D01A001A301D20108000800A60111
:10226000BF0140F20114204602B010BD4E28E6D84E
:1022700001A353F820F000BFB5230008BB230008DA
:10228000C1230008C7230008CD230008D32300087A
:10229000D9230008DF230008E5230008EB2300080A
:1022A000F3230008F9230008FF230008072400088F
:1022B0000F240008152400081D2400082524000808
:1022C0002D240008352400084D2400084D24000862
:1022D0004D2400084D2400084D2400084D2400081A
:1022E00065240008652400087D2400087D2400087A
:1022F0007D2400087D2400087D2400087D2400083A
:102300003D24000845240008952400089B2400086B
:10231000A1240008A7240008AD240008B324000865
:10232000B9240008BF2400083F2200083F2200080B
:102330003F2200083F220008C5240008C9240008E5
:10234000CD240008D1240008D5240008D924000891
:10235000DD240008E1240008E5240008E924000841
:10236000ED240008F1240008F5240008FB240008EF
:10237000FF240008072500080D2500082B2500086C
:10238000352500083F250008452500084B25000895
:1023900051250008572500085D2500086325000821
:1023A0006D25000871250008772500087B250008A9
:1023B0007F250008914B1C8A55E7904B5C8A52E7B9
:1023C0008E4B9C8A4FE78D4BDC8A4CE78B4B1C8BEA
:1023D00049E78A4B9C7E46E7884BDC7E43E7874B88
:1023E0001C7F40E7854B5C7F3DE7844B93F8CB40F7
:1023F00039E7824B9C7F36E7804BDC7F33E77F4BAE
:1024000093F820402FE77D4B93F821402BE77B4B3F
:102410005C8C28E7794B93F8244024E7774B93F8BA
:10242000254020E7754B93F826401CE7734B93F843
:10243000274018E7714B93F8284014E76F4B93F847
:10244000CA4010E76D4BB3F8D0400CE76B4B143823
:1024500093F82420C0B282427FF6F1AE03EB400332
:102460005C8D00E7654B1A3893F82520C0B2824294
:102470007FF6E5AE034493F88A40F4E65F4B1C38E0
:1024800093F82420C0B282427FF6D9AE034493F879
:102490009A40E8E6594B1C88E5E6584B5C88E2E632
:1024A000564B9C88DFE6554BDC88DCE6534B1C8999
:1024B000D9E6524B5C89D6E6504B9C89D3E64F4B0C
:1024C000DC89D0E64E4BE6E74D4BE7E74C4BE8E7BF
:1024D0004B4BE9E74A4BEAE7494BEBE7484BECE764
:1024E000474B68E7464B69E7454B6AE7444B6BE768
:1024F000434B6CE7424B5C8BB5E6414BE0E7FEF7A4
:10250000E7FD0446AFE63F4B1C78ACE63E4801A928
:10251000FFF7A8FA00287FF492AE3C490198FEF735
:10252000C1FBFEF785FD84B29DE6374801A9FFF7A0
:10253000B5FAEFE7344801A9FFF7CAFAEAE73448E9
:1025400001A9E5E7324801A9F1E7314801A9F3E71C
:10255000304801A9DCE72F4801A9E8E72D4801A987
:10256000EAE701212C4800F005FFCAE70221F9E75C
:1025700001212A48F7E72021FBE70221F9E7284B50
:1025800028491868CBE7284B1C796CE6274B5C7808
:1025900069E6264B9C7866E6244BDC7863E6174BAD
:1025A00093F8CB00164B5B8B0BB140F00200204B35
:1025B00002211B785B4203F0040340EA030417483E
:1025C00000F0D8FE00283FF44EAE44F00800AAE721
:1025D0000A4B93F8CB00D3E934231A43084B80F01D
:1025E00001045B8B18BF44F00204002B7FF43BAE68
:1025F00044F0040097E7022435E600BF18020020EB
:10260000D609002004020020F4050020000020412B
:10261000DC050020C405002000080140000C01403A
:10262000000000200000C8429407002004000020A1
:10263000C005002008B503463F2B08463CD016D8FD
:10264000312B33D00CD82B2B03D8232B39D8052092
:1026500005E0302BFBD100F0A9FA90BB062008BDA5
:102660003C2B26D03D2BF2D100F098FAF5E74E2B0B
:1026700029D06FF4807213449AB2082AE7D8082B45
:10268000E5D801A252F823F0E7260008F326000857
:10269000FD2600084F2600084F2600084F26000898
:1026A0004F2600084F260008E126000800F08BFAAC
:1026B000D3E700F06BFAD0E7081E18BF0120FEF741
:1026C000FBFC0020CBE7A1F59663B3F5487FC5D8A6
:1026D000FEF790FA0C49FEF799FB0C4B1860F0E7F7
:1026E0000128BBD1EDE7431E042BB7D8084B587027
:1026F000E7E70228B2D8064B9870E2E7431E012BA9
:10270000ACD8034BD870DCE70000C84200000020C2
:102710000400002008292DE9F0413AD18588B0F85D
:1027200002806DBAADB26B1E98FA98F87C2B1FFA36
:1027300088F806D903210846FFF768FD0620BDE8A2
:10274000F081154C002722796E0084F805210322C0
:1027500084F8076184F8062108EB070080B2FFF7D0
:1027600067FD0137030A84F80831BBB2AB4284F835
:10277000090104F10204EFD30336322DB6B202D9B7
:10278000022000F045FC3146BDE8F0410348FFF768
:10279000FDBC0320D3E700BF940700209908002068
:1027A000082938B505461CD18188408849BA40BA05
:1027B00089B280B2FFF73EFF044660B1052808D019
:1027C00006280CBF032104210620FFF71FFD204629
:1027D00038BD0221F8E72846BDE838400621FFF75A
:1027E000D5BC0324F3E7000008292DE9F041044695
:1027F0004FD98688478876BAB6B2721E7A2A83790C
:1028000002D8B3EB460F07D003211020FFF7FEFCE0
:1028100006252846BDE8F0810933994239D14FF0A9
:1028200000087FBABFB2E179237A07EB080043EAD8
:10283000012180B2FFF7FEFE054658B1052807D0FA
:1028400006280CBF032104211020FFF7DFFCE0E77E
:102850000221F9E708F101081FFA88F39E4204F10A
:102860000204E0D80C480621027980F8087180F84B
:102870000521102280F806213A0A80F8072180F805
:10288000095180F80A61BDE8F04100F20510FFF738
:102890007DBC0325BDE700BF94070020F8B50126E5
:1028A000204D032904460F462E7008D81E484FF4C9
:1028B000804100F06AFD002303202B70F8BD1B4B04
:1028C00002781B799A4202D000202870F6E7FFF7C1
:1028D00047FC10B928700220F0E76078062808D07D
:1028E000102816D0032805D00121FFF78FFC042003
:1028F000E4E702260E4B1B791E42F5D00628394626
:1029000009D0102820460AD0FFF704FF00232B70BF
:10291000D4E70426EEE72046FFF742FFF6E7FFF78D
:1029200063FFF3E7900700200010014094070020A8
:102930000400002038B5124C256885421FD100F0F4
:1029400061FBB4F80632C4F80C02FE2B13D82A68D7
:10295000591C526823445A710123A4F80612B4F892
:1029600006122068053184F80A3221440122BDE8AC
:10297000384003F010B80023A4F80632EFE738BD62
:102980009407002038B500230A4C2546A4F80632E7
:1029900084F80A3200F036FBC4F80C0255F8050B37
:1029A00002F05EFD294620680122BDE8384002F0B1
:1029B000F2BF00BF9407002008B5074B1B68834295
:1029C00008D14FF48041054800F0DFFCBDE8084025
:1029D000FFF7D8BF08BD00BF9407002000100140DA
:1029E00038B51B4C94F80A52B4F80612EDB171B127
:1029F000032902D9601DFFF751FF00214FF48072B7
:102A00001448A4F8061284F80A1205F088FB20681E
:102A100090F84230202B1AD1B4F80632BBB9BDE889
:102A2000384001220B4902F0B6BF0029EFD000F078
:102A3000E9FAD4F80C32C01A3228E8D94FF480727F
:102A40002946A4F8065284F80A52601DDDE738BD15
:102A500094070020990700204FF6FF70002330B53F
:102A6000084C094D14F8012B5040082240F3000196
:102A7000294081EA5000013A80B2F7D10133062B98
:102A8000F0D130BDA409002001A0FFFF00220D4BB2
:102A900010B51A609A8001229C1E03F8022C0623AE
:102AA00061716370E070FFF7D7FFA071000AE071F9
:102AB000642308222146044802F02DFCB0FA80F07D
:102AC000400910BDA60900201C06002070B52B4C43
:102AD00000212A22204605F022FB01250022284B56
:102AE0009E1E1A609A8003F8025C032373701323FE
:102AF0007371FFF7B1FF030AB071F3710822642309
:102B00003146204802F007FC08B1002070BD4FF4A8
:102B1000FA732A2221461B4802F04BFC0028F4D10C
:102B2000A288194B52BA1A80E288284652BA5A80B3
:102B3000228952BA9A80628952BADA80A28952BA3C
:102B40001A81E28952BA5A81228A52BA9A81228B18
:102B500052BA5A82628B52BA9A82A28B52BADA82E3
:102B6000E28B52BA1A82628C52BADA81E28C52BA81
:102B70001A83228D52BA5A83C8E700BFAC090020DD
:102B8000A60900201C060020D609002001280146C5
:102B900002D81220FFF77ABF0020704701280146B3
:102BA00002D81120FFF772BF0020704740F6B832FC
:102BB000A0F516739BB29342014602D80120FFF79D
:102BC00065BF00207047B0F5FA7F014602D80220A9
:102BD000FFF75CBF00207047114B07B59A690F21C2
:102BE00042F001029A619A696FF0010002F001025D
:102BF0000092009ADA6942F08052DA61DB690022C1
:102C000003F080530193019B00F026FA054A5368B4
:102C100023F0E06343F00073536003B05DF804FBFE
:102C2000001002400000014010B5044686B010229A
:102C3000002102A805F073FA2268114B9A421CD1B8
:102C4000104CC022A369104843F00803A361A36994
:102C500002A903F008030093009B1223CDE902238D
:102C60000323059300F0B2FAE36943F40013E36130
:102C7000E36903F400130193019B06B010BD00BF8C
:102C80000054004000100240000C0140036807B5EA
:102C9000B3F1804F15D103F50433DA69052142F011
:102CA0000102DA61DB69002203F0010301931C20B9
:102CB000019B00F0D1F91C2003B05DF804EB00F09B
:102CC000FBB903B05DF804FB30B504468BB01022AD
:102CD000002106A805F023FA23684B4A934231D11C
:102CE0004A4B4FF400709A6906A942F480429A61F7
:102CF0009A69002402F480420092009A9A6942F094
:102D000004029A619B6903F004030193019B02236F
:102D1000CDE9060303233E48099300F057FA4FF428
:102D200080633B4806A9CDE90634089400F04EFACA
:102D300025202246052100F08FF9252000F0BCF95E
:102D40000BB030BD334A93422CD1304B0421DA69A9
:102D5000032542F40032DA61DA692D4802F40032C8
:102D60000292029A9A69002442F004029A619B69D5
:102D7000099503F004030393039B0223CDE9061393
:102D800006A900F023FA0823214806A9CDE9063454
:102D9000089400F01BFA26202246294600F05CF930
:102DA0002620CBE71C4A9342CAD1184B1B48DA694C
:102DB00006A942F48022DA61DA69002402F4802252
:102DC0000492049A9A6942F008029A619B694FF44E
:102DD000806203F008030593059B0223CDE90623D7
:102DE0000323099300F0F2F94FF400630B4806A99E
:102DF000CDE90634089400F0E9F9272022460521A0
:102E000000F02AF9272099E700380140001002401D
:102E1000000801400044004000480040000C014010
:102E2000FEE7FEE7FEE7FEE7FEE7704708B500F0C5
:102E3000DDF804F049F9012803D0BDE8084004F0AA
:102E400001BA08BD014800F00DBF00BF503300209B
:102E5000014801F0D0BF00BFF4060020014802F095
:102E600037BC00BFAC060020014802F031BC00BFF7
:102E700064060020014802F02BBC00BF1C060020A5
:102E80000120704708B505F09DF9162303604FF047
:102E9000FF3008BD08B505F095F916230360FEE77D
:102EA00070B50D4614460E46731B9C4201DC20464D
:102EB00070BDAFF3008006F8010BF5E770B50D4665
:102EC00014460E46731B9C4201DC204670BD16F86A
:102ED000010BAFF30080F5E74FF0FF3070474FF480
:102EE000005300204B60704701207047002070475E
:102EF0000B4A0346116810B509B90A4911601068F8
:102F000009490A4C0344091B8B4206D905F05AF9BA
:102F10000C2303604FF0FF3010BD1360FCE700BFCF
:102F2000F409002078370020005000200004000041
:102F300070470000FFF7FCFF0B480C490C4A0023C8
:102F400002E0D458C4500433C4188C42F9D3094A5F
:102F5000094C002301E013600432A242FBD305F0C8
:102F600037F9FEF743FF704700000020E40100201E
:102F7000E4A30008E801002074370020FEE7000009
:102F800038B50E4B05461A784FF47A73B3FBF2F35B
:102F90000B4A1068B0FBF3F000F09CF8044658B9F7
:102FA0000F2D09D8024629464FF0FF3000F054F8A3
:102FB0002046044B1D6038BD0120FCE710000020B6
:102FC0000C00002014000020074A08B513680320F5
:102FD00043F01003136000F02DF80F20FFF7D0FF2F
:102FE000FFF7FAFD002008BD00200240034A044B11
:102FF00011681B780B441360704700BFF80900206C
:1030000010000020014B1868704700BFF80900202D
:1030100038B50446FFF7F6FF0546631C1EBF044B98
:103020001B78E418FFF7EEFF431BA342FAD338BD29
:103030001000002007490302CA6803F4E06322F489
:10304000E0621204120C134343F0BF6343F40033F5
:10305000CB60704700ED00E0154B30B5DC68C4F381
:103060000224C4F10703251D042B28BF0423062DC9
:103070004FF0FF3594BF0024033C05FA03F321EA27
:103080000303A54022EA0502A340002843EA020305
:10309000ACBF00F16040074A4FEA0313DBB2ABBF9D
:1030A00000F5614000F00F0080F80033135430BD8C
:1030B00000ED00E014ED00E0002807DB01234109EA
:1030C000034A00F01F00834042F82130704700BFE0
:1030D00000E100E00138B0F1807F0BD24FF0E02337
:1030E000F021054A586182F82310002007229861D8
:1030F0001A6170470120704700ED00E090F8212030
:103100000346022A06D0042282630120002283F8AB
:10311000202070470268C06B116821F00E01116019
:10312000116821F00101116001211A6C01FA02F20B
:103130004260002083F82110E8E7000008B590F80D
:103140002130022B03D004238363012008BD0368D0
:103150001A6822F00E021A601A6822F001021A6040
:10316000174A93421FD0143293421ED01432934216
:103170001DD0143293421DD0143293421DD014320C
:10318000934214BF4FF080734FF480130D4A536085
:10319000012380F82130002380F82030436B03B1F5
:1031A00098470020D2E70123F0E71023EEE74FF421
:1031B0008073EBE74FF48053E8E74FF48033E5E7A3
:1031C0000800024000000240806B70472DE9F74F75
:1031D00000244FF00F0E2646DFF884C1614B00F14A
:1031E00004080A6832FA06F502D103B0BDE8F08F90
:1031F000012505FA06F702EA070537EA020276D149
:103200004A68032A07D8013A022A00F28380DFE8DD
:1032100002F091969C00122A00F0948069D8112A3D
:1032200000F08A80FF2D94BF8146C1464FEA860296
:10323000D9F8007088BF203A0EFA02FA27EA0A0786
:1032400004FA02F21743C9F80070D1F8049019F09B
:10325000805F4CD0DCF8182026F0030742F0010212
:10326000CCF81820DCF8182007F1804702F00102A2
:10327000019207F5803706F0030A019A4FEA8A0A9D
:10328000BA680EFA0AFB22EA0B0B374A904260D06A
:1032900002F5806290425ED002F5806290425CD07E
:1032A00002F58062904214BF0422032202FA0AF25D
:1032B00042EA0B02BA609A6819F4801F14BF2A43CD
:1032C000AA439A60DA6819F4001F14BF2A43AA437C
:1032D000DA605A6819F4003F14BF2A43AA435A60BF
:1032E0001A6819F4803F14BF2A43AA431A600136B2
:1032F00077E7DFF878904A450CD014D8A9F5801903
:103300004A4507D009F570294A4503D0A9F5801927
:103310004A4587D18A68D2B1012A4FF008040CBF10
:10332000076147617EE7DFF848904A45F2D009F52A
:103330008039EDE7CC6875E7CC68043472E7CC6877
:1033400008346FE7CC680C346CE700246AE7042487
:1033500068E70022AAE70122A8E70222A6E700BF49
:10336000001002400004014000080140000022104B
:10337000000031108368194214BF012000207047FB
:103380000AB1016170470904FBE7C36801EA03025F
:1033900021EA030141EA024101617047016800220C
:1033A0004B6913F4806310D06FF480634B6120236A
:1033B000026380F83D3080F83E20036C80F83C20AA
:1033C00043F00403036401207047184670472DE959
:1033D000F84606460F4691461D464FEA114A3368A5
:1033E000BAF1010F0CBF5C699C6927EA0404A4B21E
:1033F000B4FA84F46409A14501D0002025E06A1CD8
:10340000EED0FFF7FFFD089BC01AA84201D8002D9F
:10341000E5D13368BAF1010F0CBF5B699B6927EAFC
:1034200003039BB2B3FA83F35B099945D7D1002319
:1034300020220120336386F83D2086F83E30326C2E
:1034400086F83C3042F020023264BDE8F8862DE96F
:10345000F04104460F46164698462568686927EAF3
:10346000000080B2C0B16B695A0517D52B682022C5
:1034700043F400732B606FF480636B61002323635C
:1034800084F83D2084F83E30236C43F00403236429
:103490000023012084F83C30BDE8F081731CDDD0AE
:1034A000FFF7B0FDA0EB0800B04201D8002ED4D148
:1034B00023685A6927EA020292B2002ACDD000237B
:1034C0002022236384F83D2084F83E30236C13438C
:1034D000DDE770B504460D46164623685B691B069A
:1034E00001D500201EE02046FFF758FFC8B96A1C2E
:1034F000F3D0FFF787FD801BA84201D8002DECD147
:1035000023685B6913F08003E7D12022236384F8EA
:103510003D2084F83E30226C84F83C3042F020029A
:103520002264012070BD70B504460D46164623681E
:103530005B695B0701D500201EE02046FFF72EFFE8
:10354000C8B96A1CF3D0FFF75DFD801BA84201D803
:10355000002DECD123685B6913F00403E7D120222E
:10356000236384F83D2084F83E30226C84F83C309C
:1035700042F020022264012070BD70B504460D4661
:10358000164621684B6913F0400301D0002011E07A
:103590004A69D2060FD56FF010024A6120222363D8
:1035A00084F83D2084F83E30236C236400230120FE
:1035B00084F83C3070BDFFF725FD801BA84201D880
:1035C000002DDED123685B6913F04003D9D120229E
:1035D000236384F83D2084F83E30236C1343E4E7F2
:1035E00070B5044608B9012070BD90F83D3003F075
:1035F000FF021BB980F83C20FFF716FB242384F858
:103600003D3023681A6822F001021A601A6842F4F9
:1036100000421A601A6822F400421A6001F04CFB62
:103620003F4B65689D4294BF3E4B3F4B98428CBFD9
:1036300000230123002BD6D1394E3C4BB542B0FBC1
:10364000F3F388BF4FF496762268516821F03F016A
:1036500041EA030182BF73434FF47A76B3FBF6F37A
:103660005160116A013321F03F010B431362D169AC
:10367000431E2B4821F44F41854221F0FF0132D8EF
:103680006D00B3FBF5F340F6FC700133034242D00A
:10369000C3F30B031943D1611168D4E9073021F05A
:1036A000C00103430B4313609168D4E9030321F481
:1036B0000341034321F0FF010B439360D168D4E938
:1036C000053021F0FF0103430B43D3601368002052
:1036D00043F0010313602023206484F83D3020630D
:1036E00084F83E0080E7A06850B905EB4505B3FBC0
:1036F000F5F30133C3F30B037BB143F40043C9E794
:1037000019206843B3FBF0F30133C3F30B0323B178
:1037100043F44043BEE70423BCE70123BAE700BFFC
:10372000A08601007F841E00FF083D0040420F007C
:103730002DE9F043044685B098460D4691460C9F0E
:10374000FFF760FC94F83D300646202B04D002259C
:10375000284605B0BDE8F0830090192301222046D9
:103760005C49FFF734FE0028F1D194F83C30012B7E
:10377000EDD00123216884F83C300B68DA075EBF86
:103780000B6843F001030B600B6823F400630B60CC
:10379000212384F83D30102384F83E300023236435
:1037A000A4F82A80638DC4F8249023854A4BE362F1
:1037B000E36A082B04D0012B02D013F5803F04D11B
:1037C0000B6843F480730B6002E0236B122BF7D07D
:1037D00000223B464FF0011120460096FFF7F7FD0F
:1037E000226840B11368DB0501D40125B0E74FF42E
:1037F00000732364F9E72369B3F5804F21D105F005
:10380000FE05156133463A4620463449FFF71FFE50
:1038100005460028E9D1236803905A6903929B6901
:103820000393039B238DF3B921680A6842F4007265
:103830000A60202284F83C3084F83D2084F83E3031
:1038400086E7EB1103F0060343F0F0031361204613
:1038500033463A462249FFF7FAFD0028C5D12368CE
:10386000EDB21D61CEE7324639462046FFF731FE04
:1038700040B1236C042BB8D12268136843F4007361
:103880001360B2E7636A20681A4612F8011B0161EF
:103890006262628D013A92B26285228DD0F814C0C4
:1038A000511E89B21CF0040F21850AD049B1597804
:1038B000023301616362638D023A013B9BB263850F
:1038C0002285324639462046FFF72DFE0028A9D032
:1038D000CFE700BF020010000000FFFF0200010060
:1038E000080001002DE9F04398460023044689B002
:1038F00002930E469146109FFFF784FB94F83D30EB
:103900000546202B04D00226304609B0BDE8F083DE
:1039100000901923012220468F49FFF758FD002807
:10392000F1D194F83C30012BEDD00123216884F8CB
:103930003C300B68DB075EBF0B6843F001030B6094
:103940000B6823F400630B60222384F83D301023BE
:1039500084F83E3000232364A4F82A80638DC4F8E1
:10396000249023857D4BE362E36A0A68082B42F4C6
:1039700080620A6004D0012B02D013F5803F04D18D
:103980000B6843F480730B6002E0236B112BF7D0BC
:103990003B4600224FF0011120460095FFF717FD2E
:1039A000236838B11B68D80544BF4FF40073236403
:1039B0000126A9E72269B2F5804F29D146F0010618
:1039C000F6B21E612B463A4620466549FFF73FFD99
:1039D00006460028ECD1228D2368002A4DD10390A1
:1039E0005A6903929A690392039A1A6842F4007220
:1039F0001A60DFF87081DFF87091238D002B6CD195
:103A0000202284F83C3084F83D2084F83E307BE767
:103A10004FEAE61808F0060848F0F0021A6120465E
:103A20002B463A465149FFF712FD0028C0D12368C2
:103A3000F6B23A461E6120462B464949FFF707FD7C
:103A400002460028B4D1236807905969204607919F
:103A5000996907910799196841F4807119603B468B
:103A60004FF001110095FFF7B2FC226808B113680E
:103A700099E748F0F1031361A4E7012A11D11A680C
:103A800022F480621A6072B6236804905A69049224
:103A90009A690492049A1A6842F400721A6062B633
:103AA000A7E7022A1A680ED142F400621A6072B6C1
:103AB000236805905A6905929A690592059A1A68D1
:103AC00022F48062EAE742F480621A6006905A6942
:103AD00006929B690693069B8BE7032B00F2888076
:103AE000012B16D12A4639462046FFF746FD00280D
:103AF0007FF45EAF23681A69636A1A70636A0133E0
:103B00006362238D013B2385638D013B9BB26385FB
:103B100073E7022B4FF000023B46414620460095DA
:103B200026D1FFF754FC00287FF442AF72B6236819
:103B30001A6842F400721A601A69636A1A70636A3A
:103B400001336362238D013B2385638D013B9BB26F
:103B5000638562B6CEE700BF020010000000FFFFE1
:103B600002000100040001000C0000200800010018
:103B7000FFF72DFC00287FF41BAF2268136823F4A5
:103B80008063136072B646F2A81123681A69636AEB
:103B90001A70626A531C6362238D013B2385638D17
:103BA000013B9BB26385D9F80030B3FBF1F32321CD
:103BB0004B430293029B013B0293029B6BB9202271
:103BC000236384F83D2084F83E30226C42F02002CA
:103BD000226462B684F83C30EAE6236859694907F2
:103BE000E8D5196841F4007119601B695370A6E7A4
:103BF0002A4639462046FFF7C0FC00287FF4D8AE9D
:103C000023681A69636A1A70628D616A013A92B216
:103C10004B1C628522686362238D5069013B9BB215
:103C2000400723857FF5E9AE032B02BF136823F419
:103C30008063136013694B7060E700BF10B590F8A4
:103C400090220446012A0AD00122417380F8902272
:103C5000006802F07AF8002084F8900210BD02207B
:103C6000FCE700002DE9F04F044685B0006802F043
:103C700072F810F4004500F04F842825C64E2068E5
:103C8000B0F844301F0402D405B0BDE8F08FB0F89E
:103C9000443013F00F0799B240F0C08011F01001CA
:103CA00026D103889BB2334043F400430380B0F82D
:103CB0005030227C9BB203EBC20300EB4303B3F80A
:103CC0000434626AC3F309031A44E3622046626261
:103CD00003F049FC637B002BD1D0A26A2168002A43
:103CE000CDD1637B43F08003A1F84C306273C6E70B
:103CF0000788BBB217F4006721D0B0F8503094F8B1
:103D000050219BB203EBC20300EB4303B3F80C3426
:103D1000B4F85621C3F30903C4F86C3104F52671D5
:103D200002F064FA22682046138823F070031B0512
:103D30001B0D43F08003138003F006FC9FE719047A
:103D40009DD5038823F070031B051B0D43F08003F2
:103D50000380B0F8503094F850219BB203EBC203BB
:103D600000EB4303B3F80C34C3F30903C4F86C311C
:103D70008BB1D4F8641171B1B4F8562102F036FA5F
:103D8000D4F86431D4F86C21394613442046C4F881
:103D9000643103F0DFFB21680A8893B212053FF516
:103DA0006EAF03F44053B3F5405F3FF468AFB1F832
:103DB000502001F20C4092B2835AC3F3090383529C
:103DC000D4F860313E2B1DD95F09DB06835A08BF4A
:103DD00007F1FF379BB243EA87236FEA43436FEA59
:103DE00053439BB283520B8823F4804323F0700328
:103DF0001B041B0C83F4405343F4004343F0800343
:103E00000B803CE70BB9835AE7E75F08DB07835A6F
:103E100048BF01379BB243EA8723E2E730F82730F7
:103E200019041FFA83F840F1F68030F8273005FBBB
:103E3000074123F070031B051B0D43F0800320F89E
:103E4000273091F85C3100F5806EBBB9B0F8503086
:103E500091F850219BB2063303EBC2033EF8139056
:103E6000C9F30909B9F1000F00F0BA804B46B1F867
:103E70005621D1F8641102F0B9F9B1E091F853314B
:103E800091F85021022B40F08980B0F850904FEA11
:103E9000C20B1FFA89F918F4804AD1F86831D94465
:103EA00008F0400C3CD009F102093EF81990C9F322
:103EB0000909994513D90023C1F8683130F8223037
:103EC00023F4804323F070031B041B0C83F4005382
:103ED00043F4004343F0800320F8223005E0A3EBD5
:103EE0000903C1F86831002BE8D0BCF1000F0DD0F8
:103EF00030F8223023F4E04323F070031B041B0C42
:103F000043F4004343F0C00320F82230B9F1000F1E
:103F100066D0282101FB07414B46B1F85821A8E79C
:103F200009F106093EF81990C9F30909994512D912
:103F3000C1F868A130F8223023F4804323F07003E5
:103F40001B041B0C83F4005343F4004343F0800331
:103F500020F8223005E0A3EB0903C1F86831002BFB
:103F6000E8D0BCF1000F0DD130F8223023F4E0434B
:103F700023F070031B041B0C43F4004343F0C00305
:103F800020F82230B9F1000F2AD0282101FB074187
:103F90004B46B1F85A216CE70F8FFFFF30F8223003
:103FA00023F4E04323F070031B041B0C43F4004391
:103FB00043F0C00320F8223091F8503130F823202C
:103FC000DB0012F4804FB0F8502092B254D002328D
:103FD00013443EF81390C9F30909B9F1000F9BD1BE
:103FE00005FB07F16318D3F86C214A44C3F86C2130
:103FF000D3F864214A44C3F86421D3F868211AB184
:10400000D3F86031994541D205FB0743204693F828
:10401000501103F09FFA18F0800F20683FF42FAE84
:1040200030F8273005FB07FC9BB2334043F40043D4
:1040300020F8273004EB0C03DA7C012A56D100214A
:1040400007FB0552A1501A7F92B318F040085A7C22
:1040500036D012BBB0F850201B7C92B21B0100F28C
:10406000044010441A5AC2F309021A521A5A92B260
:1040700042F400421A521BE0063213443EF81390F9
:10408000C9F30909B9F1000FAAD081E701F5A871B8
:104090002068214401F075FEBDE7012A08D1B0F87F
:1040A00050201B7C92B200F204401B0110441952B4
:1040B000282303FB0743197C204603F054FADEE56E
:1040C0003AB9B0F850201B7C92B21B0100F20C40B0
:1040D000C7E7012AECD1B0F850201B7C92B200F265
:1040E0000C401B01104423F80080E1E7197C18F410
:1040F000807E9A6A4FEAC10A00F580691BD1B0F848
:104100005070BFB25744023739F81770C7F3090728
:10411000974202D3C3F828E0CEE7D21B9A625A6ACC
:104120000CF110013A445A62DA6A21443A44DA62E4
:1041300001F027FEA3E5B0F850C018F0400E1FFABA
:104140008CFCD44408F4804800F0F4800CF1020C9C
:1041500039F81CC01FFA88F8CCF3090C94452CBF21
:104160000022A2EB0C029A62002A5BD1282303FBF7
:1041700007435B7C002B41D1B0F8502000F2044C87
:1041800092B20B0194443CF80320C2F309022CF8CC
:1041900003203CF803206FEA42426FEA524292B297
:1041A0002CF80320B0F8502000F20C4092B21044DA
:1041B000C25AC2F30902C252C25A6FEA42426FEABD
:1041C000524292B2C252204603F0CDF9B8F1000F2C
:1041D00000F0F480282303FB07432268197C32F89F
:1041E000213023F4E04323F070031B041B0C43F441
:1041F000404343F0800322F82130DFE0012BE2D17D
:10420000B0F850E000F2044C1FFA8EFEF4440B01AB
:104210002CF80320B0F850C000F20C401FFA8CFCC0
:104220006044CFE7B8F1000F0DD030F8212022F420
:10423000E04222F070021204120C42F4404242F0BA
:10424000800220F821204FF0280808FB074898F842
:104250003420012A40F0B280D8F8242002EB0C0E62
:10426000C8F824E0DA6A6244DA62D8F83030D8F864
:104270002020934235D39B1AC8F83030282303FB03
:10428000074393F811C093B2BCF1000F45D1B0F8C9
:10429000508000F2044C1FFA88F8C44409013CF82D
:1042A00001803E2AC8F309082CF8018025D94FEA7D
:1042B0005218D2063CF8012008BF08F1FF3892B22C
:1042C00042EA88226FEA42426FEA524292B22CF8E6
:1042D0000120282202FB0742128B714601F041FDAA
:1042E0006CE01BB9624688F83430C7E7002288F8D2
:1042F0003420C8F830201A46C0E712B93CF8012033
:10430000E0E74FEA5208D2073CF8012048BF08F125
:10431000010892B242EA8822D8E7BCF1010FD8D155
:10432000B0F850C000F204421FFA8CFC624409014C
:104330005352CEE70CF1060C39F81CC01FFA88F86E
:10434000CCF3090C94458CBF7246A2EB0C029A6226
:10435000002A5DD1282303FB07435B7C002B43D15C
:10436000B0F8502000F2044C92B20B0194443CF897
:104370000320C2F309022CF803203CF803206FEA63
:1043800042426FEA524292B22CF80320B0F8502019
:1043900000F20C4092B21044C25AC2F30902C25257
:1043A000C25A6FEA42426FEA524292B2C252204669
:1043B00003F0D9F8B8F1000F3FF40CAF282303FB4A
:1043C00007432268197C32F8213023F4E04323F0BC
:1043D00040031B041B0C83F0300343F4004343F001
:1043E000800322F821304AE4012BE0D1B0F850E0FC
:1043F00000F2044C1FFA8EFEF4440B012CF803204B
:10440000B0F850C000F20C401FFA8CFC6044CDE7BD
:10441000B8F1000F0DD130F8212022F4E04222F053
:1044200070021204120C42F4404242F0800220F862
:1044300021204FF0280808FB074898F83420012A6B
:10444000BCD1D8F8242002EB0C0EC8F824E0DA6ABC
:104450006244DA62D8F83030D8F82020934232D360
:104460009B1AC8F83030282303FB074393F811C088
:1044700093B2BCF1000F42D1B0F8508000F20C4C66
:104480001FFA88F8C44409013CF801803E2AC8F3A9
:1044900009082CF8018022D94FEA5218D2063CF8BC
:1044A000012008BF08F1FF3892B242EA88226FEA81
:1044B00042426FEA524292B22CF80120282202FBBB
:1044C0000742528B09E71BB9624688F83430CAE7C5
:1044D0000022C8F8302088F834201A46C3E712B901
:1044E0003CF80120E3E74FEA5208D2073CF80120EC
:1044F00048BF08F1010892B242EA8822DBE7BCF12A
:10450000010FDBD1B0F8502000F20C4C92B2944471
:104510000A012CF80230D1E7460512D52268204660
:10452000B2F8443023F480631B041B0CA2F844301F
:1045300003F025F82946204605B0BDE8F04FFFF707
:104540007DBB41040AD52268B2F8443023F480438D
:104550001B041B0CA2F84430FFF796BB820405D560
:104560002268B2F8443023F40053F1E7C30419D5AC
:1045700022682046B2F8403023F004031B041B0CD1
:10458000A2F84030B2F8403023F008031B041B0CA3
:10459000A2F8403003F016F82268B2F8443023F451
:1045A0008053D5E7070548D568462368064619466F
:1045B0001A4603F1200532F8047B954226F8027B67
:1045C000F9D1B3F8402092B242F00102A3F84020A2
:1045D000B3F8402022F001021204120CA3F840208C
:1045E000B3F844205605FBD5B3F8442022F480628A
:1045F0001204120CA3F8442030F8022B21F8042BEB
:104600008D42F9D1B3F84020204692B242F0080220
:10461000A3F84020B3F8442022F400621204120CE4
:10462000A3F84420B3F8402092B242F00402A3F869
:10463000402002F0B7FFFFF727BB82050DD52268A7
:104640002046B2F8443023F400731B041B0CA2F87C
:10465000443002F090FFFFF717BBC3057FF514ABA2
:104660002268B2F8443023F4807371E770B52824CF
:10467000054601F00700444311F0800F14BF04F118
:10468000100104F5A87105EB040615BF01240024F0
:10469000747486F8514114BF49194919022BCB7023
:1046A00008BF0023087008BF0B710A6195F89032AB
:1046B000012B09D00123286885F8903201F07CF99C
:1046C000002085F8900270BD0220FCE770B5282418
:1046D000002601F007014C43051985F8501104F537
:1046E000A8710144C5E95923C5F86C6185F8516189
:1046F000006801F046FB304670BD70B5282501F01A
:1047000007014D4344190026C4E9092301222174FD
:1047100005F11001014484F834202363E6626274D9
:10472000006801F02EFB304670BD38B5037901F00A
:104730000705AB4204462AD311F0800F4FF028033F
:104740001CD001226B4303F11001034401445A744D
:1047500001230D708B7094F890229A4219D0206832
:1047600084F8903201F088FA25B9206804F52671A2
:1047700001F0F5FA002084F8900238BD00224B4386
:1047800003F5A8710344014483F85121E0E70120B7
:10479000F3E70220F1E738B5027901F00F039A42FE
:1047A000044626D3282301F00702534311F0800F5B
:1047B00014BF03F1100103F5A87118444FF0000570
:1047C00015BF012300230919091914BF437480F888
:1047D00051318D700A7094F89032012B0BD0012367
:1047E000206884F8903201F067FA284684F89052E5
:1047F00038BD0120FCE70220FAE700002DE9F34173
:10480000054638B30368DB0710D42B689F075ED4D6
:104810002B68190700F195802B685A0700F1C180B9
:10482000EB69002B40F02C81002029E0904C63685C
:1048300003F00C03042B07D0636803F00C03082B70
:104840000AD16368DE0307D523689C03DDD56B6856
:10485000002BDAD1012013E06B68B3F5803F12D151
:10486000236843F480332360FEF7CCFB06462368BD
:104870009803CAD4FEF7C6FB801B6428F7D903202F
:1048800002B0BDE8F0819BB9236823F48033236034
:10489000236823F480232360FEF7B4FB06462368D5
:1048A0009903B2D5FEF7AEFB801B6428F7D9E6E783
:1048B000B3F5A02F236803D143F480232360CFE70F
:1048C00023F480332360236823F48023CBE7684CF0
:1048D000636813F00C0F07D0636803F00C03082B18
:1048E00010D16368DA030DD423689B0702D52B69C6
:1048F000012BAFD123686A6923F0F80343EAC203AE
:10490000236085E72A695B4B6AB101221A60FEF7D2
:1049100079FB064623689F07ECD4FEF773FB801BE8
:104920000228F7D9ABE71A60FEF76CFB064623684E
:1049300098077FF56DAFFEF765FB801B0228F6D95F
:104940009DE7AA694A4E4B4BE2B10122C3F880248D
:10495000FEF758FB0446736A9B070DD54FF4FA52D5
:10496000454B1B68B3FBF2F3019300BF019B5A1E3A
:104970000192002BF9D14FE7FEF744FB001B022800
:10498000E9D97CE7C3F88024FEF73CFB0446736A50
:104990009F077FF541AFFEF735FB001B0228F6D9D4
:1049A0006DE7334CE369D80024D40127E36943F071
:1049B0008053E361E36903F080530093009B2F4E23
:1049C0003368D90518D5EB68012B26D1236A43F04B
:1049D00001032362FEF716FB41F288380646236A7C
:1049E0009B073FD5002F3FF41BAFE36923F08053B3
:1049F000E36115E70027E2E7336843F4807333602F
:104A0000FEF700FB80463368DA05DCD4FEF7FAFADD
:104A1000A0EB08006428F6D931E7ABB9236A41F26C
:104A2000883823F001032362236A23F004032362FE
:104A3000FEF7E8FA0646236A9807D3D5FEF7E2FAAE
:104A4000801B4045F7D91AE7052B236A03D143F0B1
:104A500004032362BAE723F001032362236A23F0ED
:104A60000403B6E7FEF7CEFA801B4045B7D906E748
:104A700000100240000042420C0000200070004084
:104A80002A4C626802F00C02082A3ED00022022B57
:104A9000274B1A662CD1FEF7B5FA06462368990112
:104AA00020D42B6AB3F5803F05D16268A96822F44F
:104AB00000320A436260696A62680B4322F474122E
:104AC0001343012263601A4B1A66FEF79BFA0546F0
:104AD00023689A013FF5A8AEFEF794FA401B02281E
:104AE000F6D9CCE6FEF78EFA801B0228D6D9C6E6A8
:104AF000FEF788FA054623689B017FF595AEFEF721
:104B000081FA401B0228F6D9B9E6012B3FF4A2AE88
:104B100060682B6A00F480329A427FF49BAE6B6A25
:104B200000F47010C01A18BF0120A9E6001002405E
:104B3000000042420D4A536803F00C01082912D1CB
:104B40000B48C3F38341DB03405C09D55368094A32
:104B5000C3F340435043084AD35CB0FBF3F07047C3
:104B6000064B584370470348704700BF001002408F
:104B7000C1A1000800127A00BFA1000800093D0091
:104B80002DE9F0410D46044610B90120BDE8F08141
:104B9000444A136803F007038B4228D321688E0729
:104BA00030D4CA0743D43F4A136803F00703AB422B
:104BB00065D822683C4D12F0040F6CD1130706D55E
:104BC0006B68226923F4605343EAC2036B60FFF70A
:104BD000B1FF6B68354AC3F30313D35CD840344B41
:104BE0001860344B1868FEF7CBF90020CEE7136845
:104BF00023F007030B431360136803F007038B4292
:104C0000C3D1CBE7284B11F0040F1EBF5A6842F402
:104C1000E0625A60080742BF5A6842F460525A6024
:104C20005A68A06822F0F00202435A60B9E762684D
:104C30001D4E012A33681AD113F4003FA5D07368C2
:104C400041F2883823F0030313437360FEF7DAF967
:104C500007467368626803F00C03B3EB820FA2D0BF
:104C6000FEF7D0F9C01B4045F3D903208EE7022A96
:104C700002D113F0007FE1E713F0020FDEE71368C3
:104C800023F007032B431360136803F00703AB42C1
:104C90007FF47BAF8DE76B68E16823F4E0630B433F
:104CA0006B608BE70020024000100240AFA10008BB
:104CB0000C00002014000020044B054A5B68C3F37D
:104CC0000223D35C034A1068D840704700100240AA
:104CD000A7A100080C000020044B054A5B68C3F341
:104CE000C223D35C034A1068D840704700100240CA
:104CF000A7A100080C00002003682DE9F341054638
:104D0000D80721D5364CE369D9002BD40126E369B5
:104D100043F08053E361E36903F080530193019B07
:104D2000304F3B68DA051FD5236A6A6813F4407375
:104D30002ED1236A6A6823F44073134323621EB1A1
:104D4000E36923F08053E3612A68910706D524497B
:104D5000A8684B6823F4404303434B60D30636D422
:104D6000002012E00026DBE73B6843F480733B60E1
:104D7000FEF748F980463B68DB05D5D4FEF742F9DB
:104D8000A0EB08006428F6D9032002B0BDE8F0814A
:104D900002F440729A42CCD00120134A236AC2F82E
:104DA0004004002023F44071DF07C2F84004216270
:104DB000BFD5FEF727F941F288380746236A9807DE
:104DC000B7D4FEF71FF9C01B4045F7D9DCE7044A0A
:104DD000E968536823F480030B435360C0E700BFC6
:104DE00000100240007000400000424270477047CF
:104DF000704770477047036870B5DD681E690446E8
:104E0000B1070DD5AA070BD56FF002021A61012276
:104E100002779B699B0769D0FFF7EAFF002323779E
:104E2000710710D56A070ED56FF00402236820467B
:104E30001A61022222779B6913F4407F5CD0FFF74E
:104E4000D7FF0023237733070FD528070DD56FF041
:104E50000802236820461A6104222277DB69990739
:104E600050D0FFF7C5FF00232377F20610D5EB06DD
:104E70000ED56FF01002236820461A6108222277AF
:104E8000DB6913F4407F43D0FFF7B2FF00232377A1
:104E9000F00708D5E90706D56FF001022368204620
:104EA0001A61FFF7A3FF320608D52B0606D56FF06F
:104EB0008002236820461A6100F063F9700608D565
:104EC000690606D56FF04002236820461A61FFF795
:104ED00091FFB20622D5AB0620D56FF020022368E1
:104EE0002046BDE870401A6100F04AB9FFF77FFF25
:104EF0002046FFF77EFF91E7FFF779FF2046FFF797
:104F000078FF9EE7FFF773FF2046FFF772FFAAE7DF
:104F1000FFF76DFF2046FFF76CFFB7E770BD00009D
:104F2000174A036890420AD0B0F1804F07D0A2F52B
:104F30009432904203D002F58062904207D14A68D1
:104F400023F070031343CA6823F4407313434A6980
:104F500023F08003134303608B68C3620B68836292
:104F6000074B984204BF0B69036301234361036944
:104F7000DB0742BF036923F001030361704700BFF1
:104F8000002C014010B5044630B390F83D3003F0DA
:104F9000FF021BB980F83C20FDF778FE0223206851
:104FA00084F83D30211DFFF7BBFF0123002084F86A
:104FB000463084F83E3084F83F3084F8403084F83E
:104FC000413084F8423084F8433084F8443084F827
:104FD000453084F83D3010BD0120FCE710B58468F1
:104FE0000A4324F47F4442EA03222243826010BD34
:104FF00038B590F83C300446012B4FF0020000F029
:105000008E80012284F83D00206884F83C2083686B
:1050100023F47F4323F0770383600B68602B4FD02A
:1050200032D8402B64D016D8202B0DD00AD833F0BC
:10503000100109D0012384F83D30002384F83C306E
:10504000104638BD302BF5D1826822F07002134330
:1050500043F0070328E0502BECD14A68CD68016A81
:10506000036A21F00A0123F00103036283690A4302
:1050700023F0F00343EA051383610262836823F09F
:10508000700343F057030FE0B3F5805F0DD0B3F525
:10509000005F0CD0702BCDD1CB68D1E90121FFF797
:1050A0009DFF836843F0770383600022C2E7CB68EB
:1050B000D1E90121FFF792FF836843F48043F3E7CE
:1050C000036A026A4D6822F01002C96802628269AE
:1050D00023F0A00322F4704243EA051342EA0132AE
:1050E00082610362836823F0700343F06703DBE7A8
:1050F0004A68CD68016A036A21F00A0123F00103BE
:10510000036283690A4323F0F00343EA05138361D2
:105110000262836823F0700343F04703C4E702464A
:105120008EE7000030B590F83C300246012B4FF07E
:10513000020022D0136882F83D005C680D6824F0FC
:1051400070042C4398685C600C4CA3420AD0B3F105
:10515000804F07D0A4F59434A34203D004F58064B3
:10516000A34204D1496820F08000014399600123E3
:10517000002082F83D3082F83C0030BD002C014018
:1051800070477047026802F10C0353E8003F23F4B4
:1051900090730C3242E8003102680029F2D102F12A
:1051A000140353E8003F23F0010302F1140C4CE810
:1051B00000310029F3D1036B012B0BD102F10C0359
:1051C00053E8003F23F0100302F10C0C4CE80031CF
:1051D0000029F3D1202380F8423000230363704775
:1051E00010B504460368C1681A6922F440520A43A4
:1051F0001A6182680069D9680243606921F4B0517C
:1052000021F00C0102430A43DA605A69A16922F4D1
:1052100040720A435A610E4A934215D1FFF75CFD72
:1052200019234343626820689200B3FBF2F36422BF
:10523000B3FBF2F102FB11331B013233B3FBF2F388
:1052400003EB0113836010BDFFF736FDE8E700BFF5
:1052500000380140F7B505460C4617461E462A6839
:10526000136834EA030301D1002021E0701CF7D059
:10527000FDF7C8FEC01B86421CD3DEB12B68DA687E
:105280005107ECD5802CEAD0402CE8D01A681207E0
:10529000E5D5002401941A68284601925B680193C1
:1052A000019BFFF76FFF082301206B6485F84040E6
:1052B00003B0F0BD0320FBE710B5044648B390F8F7
:1052C000413003F0FF021BB980F84020FDF7FCFCE1
:1052D0002423226884F84130D368204623F4005305
:1052E000D360FFF77DFF236800201A6922F4904203
:1052F0001A615A6922F02A025A61DA6842F40052AD
:10530000DA602023606484F8413084F842306063BE
:1053100010BD0120FCE72DE9F843984690F8413094
:105320000446202B0E4617463FD100293FD0002AC5
:105330003DD021230025456480F84130FDF762FE11
:10534000A3688146B3F5805FA784E78403D123690E
:105350000BB935461E46E38C9BB253B943464A46C9
:1053600040212046FFF776FF202350B984F84130D2
:105370000AE043464A4680212046FFF76BFF28B1EA
:105380002023032084F84130BDE8F88322684EB919
:1053900035F8023BC3F308035360E18C013989B24D
:1053A000E184D8E716F8013BF6E70220ECE701209C
:1053B000EAE72DE9F8431F4690F842300446202BD7
:1053C0000E46914648D1002948D0002A46D02223D3
:1053D0000025456480F842300563FDF713FEA3689D
:1053E0008046B3F5805FA4F82C90A4F82E9003D1EA
:1053F00023690BB935461E46E08D80B218B92023CB
:1054000084F842300AE03B46424620212046FFF71E
:1054100021FF28B12023032084F84230BDE8F8831F
:1054200023684EB95B68C3F3080325F8023BE38D9C
:10543000013B9BB2E385DFE7A268B2F5805F02D053
:1054400032B9226922B95968C9B206F8011BEEE7E0
:10545000596801F07F01F8E70220DFE70120DDE76E
:1054600010B50446226802F10C0353E8003F23F410
:10547000F0730C3242E8003123680029F2D103F1C5
:10548000140252E8002F22F0010203F1140040E858
:1054900000210029F3D1226B012A0BD103F10C0268
:1054A00052E8002F22F0100203F10C0040E8002126
:1054B0000029F3D15A6912061AD503F1140252E8F1
:1054C000002F22F0800203F1140040E8002100299F
:1054D000F3D1A06B60B14163FDF710FE40B1A06B4A
:1054E000FDF772FE202803D110230320636410BD52
:1054F000226853695B0616D502F1140353E8003F96
:1055000023F0400302F1140040E800310029F3D1F8
:10551000E06B40B14163FDF7F1FD20B1E06BFDF7B9
:1055200053FE2028E0D000202023E084E085606442
:1055300084F8423084F841302063D8E708B500236E
:10554000406AC385C384FCF7F1FB08BD70470000C7
:1055500010B50446226802F10C0353E8003F23F41F
:1055600090730C3242E8003123680029F2D103F134
:10557000140252E8002F22F0010203F1140040E867
:1055800000210029F3D1226B012A0BD103F10C0277
:1055900052E8002F22F0100203F10C0040E8002135
:1055A0000029F3D15A6912F0400220D003F114020D
:1055B00052E8002F22F0400203F1140040E80021DD
:1055C0000029F3D1E06B48B10C4B4363FDF7B6FD06
:1055D00010B1E06B436B9847002010BD2023E0859D
:1055E00084F8423020632046FFF7B0FFF4E7202321
:1055F000E28584F842302263F5E700BF01560008D7
:1056000008B520220023406AC38580F84220036346
:10561000FFF79CFF08BD704790F8423007B5222B7A
:1056200042D181680268B1F5805F836A3FD1016928
:1056300000293FD15268C2F3080223F8022B83628B
:10564000C38D013B9BB2C385002B2DD10268D1686D
:1056500021F02001D160D16821F48071D1605169BD
:1056600021F001015161202280F842204363026B46
:10567000012A026828D1036302F10C0353E8003FBA
:1056800023F0100302F10C0C4CE800310029F3D197
:105690001368DB0605D501911368019353680193E4
:1056A000019B818DFFF7B7FF03B05DF804FB39B9AB
:1056B000016929B95268D2B21A70836A0133BEE710
:1056C000526802F07F02F7E7FCF716FBECE70000F8
:1056D000036873B51A6804461607D9685D6908D16E
:1056E000960668D58D0666D502B0BDE87040FFF716
:1056F00093BF05F0010001F4907505435BD0D60718
:1057000005D5CD0542BF636C43F0010363645307C5
:1057100004D518B1636C43F002036364960704D5A3
:1057200018B1636C43F004036364150707D501F0F7
:10573000200303431EBF636C43F008036364636C80
:10574000002B32D0920604D58B0602D52046FFF7F7
:1057500063FF266820467369626C03F0400302F021
:10576000080253EA020522D0FFF70CFD73695E06BA
:1057700018D5226802F1140353E8003F23F04003D8
:10578000143242E800310029F3D1E06B50B1744B80
:105790004363FDF7D3FC40B1E06B436B02B0BDE85F
:1057A000704018472046FCF7C1FA02B070BDFCF704
:1057B000BDFA6564F9E7206B012840F09480D506B6
:1057C00040F19180C80640F18E80002201921A6853
:1057D00001925A680192019A5A6952064DD5E16BBD
:1057E0000A68526892B2002ADFD0A08D9042DCD9BC
:1057F000E2858A69202A36D003F10C0252E8002F94
:1058000022F4807203F10C0040E800210029F3D15A
:1058100003F1140252E8002F22F0010203F11400F8
:1058200040E800210029F3D103F1140252E8002FCF
:1058300022F0400203F1140040E800210029F3D1D6
:10584000202284F84220216303F10C0252E8002F49
:1058500022F0100203F10C0040E800210029F3D1EE
:10586000E06BFDF74BFC02236363E38DA18DC91A46
:1058700089B22046FFF7CFFE97E7E28DE08DA18D3C
:1058800080B292B2002890D0891A89B200298CD0B7
:1058900003F10C0252E8002F22F4907203F10C0580
:1058A00045E800200028F3D103F1140252E8002F4C
:1058B00022F0010203F1140545E800200028F3D18D
:1058C000202284F84220206303F10C0252E8002FCA
:1058D00022F0100203F10C0545E800200028F3D166
:1058E00002236363C5E7160628D50D0626D594F86E
:1058F0004120212A7FF459AFA168226AB1F5805F67
:1059000017D12169A9B932F8021BC1F30801596006
:105910002262E28C013A92B2E284002A7FF445AF1F
:10592000DA6822F08002DA60DA6842F04002DA6077
:105930003BE7511C216212785A60EAE750067FF576
:1059400034AF4A067FF531AFDA68204622F04002D4
:10595000DA60202384F84130FCF7DEF925E700BF48
:105960003D5500080023C2854364222382850269D5
:1059700080F84230816203681AB1DA6842F48072BA
:10598000DA605A69002042F001025A61DA6842F096
:105990002002DA60704770B490F84260202E06D181
:1059A00041B13AB10024046370BCFFF7DBBF0220B1
:1059B00070BC70470120FBE7F0B50A78CD7830F86D
:1059C0002240034624F4EC4424F070042404240C04
:1059D000032D03D8DFE805F041494745012048F28F
:1059E0008006344323F8224033F822409F4FA4B26C
:1059F0003C401443344323F822400C7B03EB021C4D
:105A0000002C40F08D80CC884E78640864007EB312
:105A1000B3F8501089B26144A1F8004433F8221061
:105A2000490609D533F8221089B2394041F40041C2
:105A300041F0C00123F8221033F822108C4C89B2B7
:105A4000012D01EA040101D081F0200141F400415F
:105A500041F0800123F822104CE0284644F4007401
:105A6000BDE744F4C0640020B9E744F48064FAE779
:105A7000B3F850500969ADB26544A5F80844B3F8CD
:105A800050403E29A4B26444B4F80C54C5F309054F
:105A9000A4F80C542FD94D09CE06B4F80C1408BF45
:105AA00005F1FF3589B241EA85216FEA41416FEA8C
:105AB000514189B2A4F80C1433F822104F040DD5CB
:105AC00033F8221021F4E04121F070010904090C9F
:105AD00041F4404141F0800123F82210654CC2B9E5
